{"src/contracts/Voting.sol":{"Voting":{"abi":[{"anonymous":false,"inputs":[{"indexed":false,"internalType":"string","name":"fullName","type":"string"},{"indexed":true,"internalType":"address","name":"voter","type":"address"},{"indexed":false,"internalType":"uint256","name":"timestamp","type":"uint256"}],"name":"Voted","type":"event"},{"inputs":[{"internalType":"uint256","name":"_id","type":"uint256"}],"name":"contest","outputs":[],"stateMutability":"nonpayable","type":"function"},{"inputs":[{"internalType":"uint256","name":"","type":"uint256"},{"internalType":"uint256","name":"","type":"uint256"}],"name":"contestantIn","outputs":[{"internalType":"uint256","name":"id","type":"uint256"},{"internalType":"string","name":"image","type":"string"},{"internalType":"string","name":"fullName","type":"string"},{"internalType":"address","name":"voterAddress","type":"address"},{"internalType":"uint256","name":"totalVotes","type":"uint256"}],"stateMutability":"view","type":"function"},{"inputs":[{"internalType":"uint256","name":"","type":"uint256"},{"internalType":"address","name":"","type":"address"}],"name":"contested","outputs":[{"internalType":"bool","name":"","type":"bool"}],"stateMutability":"view","type":"function"},{"inputs":[{"internalType":"string","name":"_image","type":"string"},{"internalType":"string","name":"_title","type":"string"},{"internalType":"string","name":"_description","type":"string"},{"internalType":"uint256","name":"_startsAt","type":"uint256"},{"internalType":"uint256","name":"_endsAt","type":"uint256"}],"name":"createPoll","outputs":[],"stateMutability":"nonpayable","type":"function"},{"inputs":[{"internalType":"uint256","name":"_pollId","type":"uint256"}],"name":"deletePollById","outputs":[],"stateMutability":"nonpayable","type":"function"},{"inputs":[{"internalType":"uint256","name":"_pollId","type":"uint256"}],"name":"getAllContestantsByPoll","outputs":[{"components":[{"internalType":"uint256","name":"id","type":"uint256"},{"internalType":"string","name":"image","type":"string"},{"internalType":"string","name":"fullName","type":"string"},{"internalType":"address","name":"voterAddress","type":"address"},{"internalType":"uint256","name":"totalVotes","type":"uint256"},{"internalType":"address[]","name":"voters","type":"address[]"}],"internalType":"struct Voting.Voter[]","name":"","type":"tuple[]"}],"stateMutability":"view","type":"function"},{"inputs":[],"name":"getAllPolls","outputs":[{"components":[{"internalType":"uint256","name":"id","type":"uint256"},{"internalType":"string","name":"image","type":"string"},{"internalType":"string","name":"title","type":"string"},{"internalType":"string","name":"description","type":"string"},{"internalType":"uint256","name":"totalVotes","type":"uint256"},{"internalType":"uint256","name":"totalContestants","type":"uint256"},{"internalType":"bool","name":"deleted","type":"bool"},{"internalType":"address","name":"director","type":"address"},{"internalType":"uint256","name":"startsAt","type":"uint256"},{"internalType":"uint256","name":"endsAt","type":"uint256"},{"internalType":"uint256","name":"createdAt","type":"uint256"},{"internalType":"uint256","name":"updatedAt","type":"uint256"}],"internalType":"struct Voting.Poll[]","name":"","type":"tuple[]"}],"stateMutability":"view","type":"function"},{"inputs":[{"internalType":"uint256","name":"_pollId","type":"uint256"}],"name":"getPollById","outputs":[{"components":[{"internalType":"uint256","name":"id","type":"uint256"},{"internalType":"string","name":"image","type":"string"},{"internalType":"string","name":"title","type":"string"},{"internalType":"string","name":"description","type":"string"},{"internalType":"uint256","name":"totalVotes","type":"uint256"},{"internalType":"uint256","name":"totalContestants","type":"uint256"},{"internalType":"bool","name":"deleted","type":"bool"},{"internalType":"address","name":"director","type":"address"},{"internalType":"uint256","name":"startsAt","type":"uint256"},{"internalType":"uint256","name":"endsAt","type":"uint256"},{"internalType":"uint256","name":"createdAt","type":"uint256"},{"internalType":"uint256","name":"updatedAt","type":"uint256"}],"internalType":"struct Voting.Poll","name":"","type":"tuple"}],"stateMutability":"view","type":"function"},{"inputs":[{"internalType":"string","name":"_image","type":"string"},{"internalType":"string","name":"_fullName","type":"string"}],"name":"registerUser","outputs":[],"stateMutability":"nonpayable","type":"function"},{"inputs":[],"name":"totalPolls","outputs":[{"internalType":"uint256","name":"","type":"uint256"}],"stateMutability":"view","type":"function"},{"inputs":[],"name":"totalUsers","outputs":[{"internalType":"uint256","name":"","type":"uint256"}],"stateMutability":"view","type":"function"},{"inputs":[{"internalType":"uint256","name":"_pollId","type":"uint256"},{"internalType":"string","name":"_image","type":"string"},{"internalType":"string","name":"_title","type":"string"},{"internalType":"string","name":"_description","type":"string"},{"internalType":"uint256","name":"_startsAt","type":"uint256"},{"internalType":"uint256","name":"_endsAt","type":"uint256"}],"name":"updatePollById","outputs":[],"stateMutability":"nonpayable","type":"function"},{"inputs":[{"internalType":"address","name":"","type":"address"}],"name":"users","outputs":[{"internalType":"uint256","name":"id","type":"uint256"},{"internalType":"string","name":"image","type":"string"},{"internalType":"string","name":"fullName","type":"string"},{"internalType":"address","name":"voterAddress","type":"address"},{"internalType":"uint256","name":"totalVotes","type":"uint256"}],"stateMutability":"view","type":"function"},{"inputs":[{"internalType":"uint256","name":"_pollId","type":"uint256"},{"internalType":"uint256","name":"_contestantId","type":"uint256"}],"name":"voteContestant","outputs":[],"stateMutability":"nonpayable","type":"function"},{"inputs":[{"internalType":"uint256","name":"","type":"uint256"},{"internalType":"address","name":"","type":"address"}],"name":"voted","outputs":[{"internalType":"bool","name":"","type":"bool"}],"stateMutability":"view","type":"function"}],"evm":{"bytecode":{"linkReferences":{},"object":"608060405234801561001057600080fd5b5061399c806100206000396000f3fe608060405234801561001057600080fd5b50600436106100f55760003560e01c8063a2eeeb2f11610097578063d4bc5e9111610066578063d4bc5e9114610278578063da5199cb146102a8578063e8e35632146102d8578063f0d0bc4514610308576100f5565b8063a2eeeb2f146101d4578063a87430ba146101f2578063bff1f9e114610226578063c16c9e0314610244576100f5565b80636b56dd23116100d35780636b56dd2314610164578063729428401461018057806393c2f2221461019c5780639d1c0bc6146101b8576100f5565b80631d2e4afd146100fa57806332b633fa146101165780635277b4ae14610134575b600080fd5b610114600480360381019061010f9190612622565b610324565b005b61011e610482565b60405161012b9190612962565b60405180910390f35b61014e600480360381019061014991906129dc565b61074f565b60405161015b9190612a2b565b60405180910390f35b61017e60048036038101906101799190612a46565b61077e565b005b61019a60048036038101906101959190612a73565b6108d6565b005b6101b660048036038101906101b19190612ab3565b610d43565b005b6101d260048036038101906101cd9190612a46565b611129565b005b6101dc61165e565b6040516101e99190612ba3565b60405180910390f35b61020c60048036038101906102079190612bbe565b611664565b60405161021d959493929190612c44565b60405180910390f35b61022e6117ca565b60405161023b9190612ba3565b60405180910390f35b61025e60048036038101906102599190612a73565b6117d0565b60405161026f959493929190612c44565b60405180910390f35b610292600480360381019061028d9190612a46565b611953565b60405161029f9190612db7565b60405180910390f35b6102c260048036038101906102bd9190612a46565b611c5f565b6040516102cf9190612fe1565b60405180910390f35b6102f260048036038101906102ed91906129dc565b611f4f565b6040516102ff9190612a2b565b60405180910390f35b610322600480360381019061031d9190613003565b611f7e565b005b61032c61235c565b6001600081548092919061033f90613101565b9190505581600001818152505082816020018190525081816040018190525033816060019073ffffffffffffffffffffffffffffffffffffffff16908173ffffffffffffffffffffffffffffffffffffffff168152505080600360003373ffffffffffffffffffffffffffffffffffffffff1673ffffffffffffffffffffffffffffffffffffffff1681526020019081526020016000206000820151816000015560208201518160010190816103f59190613355565b50604082015181600201908161040b9190613355565b5060608201518160030160006101000a81548173ffffffffffffffffffffffffffffffffffffffff021916908373ffffffffffffffffffffffffffffffffffffffff1602179055506080820151816004015560a08201518160050190805190602001906104799291906123a8565b50905050505050565b60606002805480602002602001604051908101604052809291908181526020016000905b8282101561074657838290600052602060002090600b020160405180610180016040529081600082015481526020016001820180546104e490613178565b80601f016020809104026020016040519081016040528092919081815260200182805461051090613178565b801561055d5780601f106105325761010080835404028352916020019161055d565b820191906000526020600020905b81548152906001019060200180831161054057829003601f168201915b5050505050815260200160028201805461057690613178565b80601f01602080910402602001604051908101604052809291908181526020018280546105a290613178565b80156105ef5780601f106105c4576101008083540402835291602001916105ef565b820191906000526020600020905b8154815290600101906020018083116105d257829003601f168201915b5050505050815260200160038201805461060890613178565b80601f016020809104026020016040519081016040528092919081815260200182805461063490613178565b80156106815780601f1061065657610100808354040283529160200191610681565b820191906000526020600020905b81548152906001019060200180831161066457829003601f168201915b5050505050815260200160048201548152602001600582015481526020016006820160009054906101000a900460ff161515151581526020016006820160019054906101000a900473ffffffffffffffffffffffffffffffffffffffff1673ffffffffffffffffffffffffffffffffffffffff1673ffffffffffffffffffffffffffffffffffffffff168152602001600782015481526020016008820154815260200160098201548152602001600a82015481525050815260200190600101906104a6565b50505050905090565b60046020528160005260406000206020528060005260406000206000915091509054906101000a900460ff1681565b6002818154811061079257610791613427565b5b90600052602060002090600b020160060160019054906101000a900473ffffffffffffffffffffffffffffffffffffffff163373ffffffffffffffffffffffffffffffffffffffff168173ffffffffffffffffffffffffffffffffffffffff1614610832576040517f08c379a0000000000000000000000000000000000000000000000000000000008152600401610829906134a2565b60405180910390fd5b816008600082815260200190815260200160002060009054906101000a900460ff16610893576040517f08c379a000000000000000000000000000000000000000000000000000000000815260040161088a9061350e565b60405180910390fd5b6001600284815481106108a9576108a8613427565b5b90600052602060002090600b020160060160006101000a81548160ff021916908315150217905550505050565b3373ffffffffffffffffffffffffffffffffffffffff16600360003373ffffffffffffffffffffffffffffffffffffffff1673ffffffffffffffffffffffffffffffffffffffff16815260200190815260200160002060030160009054906101000a900473ffffffffffffffffffffffffffffffffffffffff1673ffffffffffffffffffffffffffffffffffffffff16146109a6576040517f08c379a000000000000000000000000000000000000000000000000000000000815260040161099d9061357a565b60405180910390fd5b816008600082815260200190815260200160002060009054906101000a900460ff16610a07576040517f08c379a00000000000000000000000000000000000000000000000000000000081526004016109fe9061350e565b60405180910390fd5b82336004600083815260200190815260200160002060008273ffffffffffffffffffffffffffffffffffffffff1673ffffffffffffffffffffffffffffffffffffffff16815260200190815260200160002060009054906101000a900460ff1615610aa7576040517f08c379a0000000000000000000000000000000000000000000000000000000008152600401610a9e906135e6565b60405180910390fd5b8460028181548110610abc57610abb613427565b5b90600052602060002090600b020160060160009054906101000a900460ff1615610b1b576040517f08c379a0000000000000000000000000000000000000000000000000000000008152600401610b1290613652565b60405180910390fd5b8560028181548110610b3057610b2f613427565b5b90600052602060002090600b02016007015442118015610b7457504260028281548110610b6057610b5f613427565b5b90600052602060002090600b020160080154115b610bb3576040517f08c379a0000000000000000000000000000000000000000000000000000000008152600401610baa906136be565b60405180910390fd5b60028781548110610bc757610bc6613427565b5b90600052602060002090600b02016004016000815480929190610be990613101565b9190505550600660008881526020019081526020016000208681548110610c1357610c12613427565b5b90600052602060002090600602016004016000815480929190610c3590613101565b9190505550600660008881526020019081526020016000208681548110610c5f57610c5e613427565b5b9060005260206000209060060201600501339080600181540180825580915050600190039060005260206000200160009091909190916101000a81548173ffffffffffffffffffffffffffffffffffffffff021916908373ffffffffffffffffffffffffffffffffffffffff16021790555060016004600089815260200190815260200160002060003373ffffffffffffffffffffffffffffffffffffffff1673ffffffffffffffffffffffffffffffffffffffff16815260200190815260200160002060006101000a81548160ff02191690831515021790555050505050505050565b3373ffffffffffffffffffffffffffffffffffffffff16600360003373ffffffffffffffffffffffffffffffffffffffff1673ffffffffffffffffffffffffffffffffffffffff16815260200190815260200160002060030160009054906101000a900473ffffffffffffffffffffffffffffffffffffffff1673ffffffffffffffffffffffffffffffffffffffff1614610e13576040517f08c379a0000000000000000000000000000000000000000000000000000000008152600401610e0a9061357a565b60405180910390fd5b856008600082815260200190815260200160002060009054906101000a900460ff16610e74576040517f08c379a0000000000000000000000000000000000000000000000000000000008152600401610e6b9061350e565b60405180910390fd5b866001151560028281548110610e8d57610e8c613427565b5b90600052602060002090600b020160060160009054906101000a900460ff16151503610eee576040517f08c379a0000000000000000000000000000000000000000000000000000000008152600401610ee59061372a565b60405180910390fd5b6000875111610f32576040517f08c379a0000000000000000000000000000000000000000000000000000000008152600401610f2990613796565b60405180910390fd5b6000865111610f76576040517f08c379a0000000000000000000000000000000000000000000000000000000008152600401610f6d90613802565b60405180910390fd5b6000855111610fba576040517f08c379a0000000000000000000000000000000000000000000000000000000008152600401610fb19061386e565b60405180910390fd5b600083118015610fc957508383115b611008576040517f08c379a0000000000000000000000000000000000000000000000000000000008152600401610fff906138da565b60405180910390fd5b856002898154811061101d5761101c613427565b5b90600052602060002090600b0201600201908161103a9190613355565b5084600289815481106110505761104f613427565b5b90600052602060002090600b0201600301908161106d9190613355565b50866002898154811061108357611082613427565b5b90600052602060002090600b020160010190816110a09190613355565b5083600289815481106110b6576110b5613427565b5b90600052602060002090600b02016007018190555082600289815481106110e0576110df613427565b5b90600052602060002090600b020160080181905550426002898154811061110a57611109613427565b5b90600052602060002090600b0201600a01819055505050505050505050565b806008600082815260200190815260200160002060009054906101000a900460ff1661118a576040517f08c379a00000000000000000000000000000000000000000000000000000000081526004016111819061350e565b60405180910390fd5b600760003373ffffffffffffffffffffffffffffffffffffffff1673ffffffffffffffffffffffffffffffffffffffff16815260200190815260200160002060009054906101000a900460ff16611216576040517f08c379a000000000000000000000000000000000000000000000000000000000815260040161120d90613946565b60405180910390fd5b6000600360003373ffffffffffffffffffffffffffffffffffffffff1673ffffffffffffffffffffffffffffffffffffffff1681526020019081526020016000206040518060c00160405290816000820154815260200160018201805461127c90613178565b80601f01602080910402602001604051908101604052809291908181526020018280546112a890613178565b80156112f55780601f106112ca576101008083540402835291602001916112f5565b820191906000526020600020905b8154815290600101906020018083116112d857829003601f168201915b5050505050815260200160028201805461130e90613178565b80601f016020809104026020016040519081016040528092919081815260200182805461133a90613178565b80156113875780601f1061135c57610100808354040283529160200191611387565b820191906000526020600020905b81548152906001019060200180831161136a57829003601f168201915b505050505081526020016003820160009054906101000a900473ffffffffffffffffffffffffffffffffffffffff1673ffffffffffffffffffffffffffffffffffffffff1673ffffffffffffffffffffffffffffffffffffffff168152602001600482015481526020016005820180548060200260200160405190810160405280929190818152602001828054801561147557602002820191906000526020600020905b8160009054906101000a900473ffffffffffffffffffffffffffffffffffffffff1673ffffffffffffffffffffffffffffffffffffffff168152602001906001019080831161142b575b5050505050815250509050600760003373ffffffffffffffffffffffffffffffffffffffff1673ffffffffffffffffffffffffffffffffffffffff16815260200190815260200160002060009054906101000a900460ff16611659576006600084815260200190815260200160002081908060018154018082558091505060019003906000526020600020906006020160009091909190915060008201518160000155602082015181600101908161152d9190613355565b5060408201518160020190816115439190613355565b5060608201518160030160006101000a81548173ffffffffffffffffffffffffffffffffffffffff021916908373ffffffffffffffffffffffffffffffffffffffff1602179055506080820151816004015560a08201518160050190805190602001906115b19291906123a8565b50505060016005600085815260200190815260200160002060003373ffffffffffffffffffffffffffffffffffffffff1673ffffffffffffffffffffffffffffffffffffffff16815260200190815260200160002060006101000a81548160ff0219169083151502179055506002838154811061163157611630613427565b5b90600052602060002090600b0201600501600081548092919061165390613101565b91905055505b505050565b60005481565b600360205280600052604060002060009150905080600001549080600101805461168d90613178565b80601f01602080910402602001604051908101604052809291908181526020018280546116b990613178565b80156117065780601f106116db57610100808354040283529160200191611706565b820191906000526020600020905b8154815290600101906020018083116116e957829003601f168201915b50505050509080600201805461171b90613178565b80601f016020809104026020016040519081016040528092919081815260200182805461174790613178565b80156117945780601f1061176957610100808354040283529160200191611794565b820191906000526020600020905b81548152906001019060200180831161177757829003601f168201915b5050505050908060030160009054906101000a900473ffffffffffffffffffffffffffffffffffffffff16908060040154905085565b60015481565b600660205281600052604060002081815481106117ec57600080fd5b90600052602060002090600602016000915091505080600001549080600101805461181690613178565b80601f016020809104026020016040519081016040528092919081815260200182805461184290613178565b801561188f5780601f106118645761010080835404028352916020019161188f565b820191906000526020600020905b81548152906001019060200180831161187257829003601f168201915b5050505050908060020180546118a490613178565b80601f01602080910402602001604051908101604052809291908181526020018280546118d090613178565b801561191d5780601f106118f25761010080835404028352916020019161191d565b820191906000526020600020905b81548152906001019060200180831161190057829003601f168201915b5050505050908060030160009054906101000a900473ffffffffffffffffffffffffffffffffffffffff16908060040154905085565b61195b612432565b816008600082815260200190815260200160002060009054906101000a900460ff166119bc576040517f08c379a00000000000000000000000000000000000000000000000000000000081526004016119b39061350e565b60405180910390fd5b600283815481106119d0576119cf613427565b5b90600052602060002090600b02016040518061018001604052908160008201548152602001600182018054611a0490613178565b80601f0160208091040260200160405190810160405280929190818152602001828054611a3090613178565b8015611a7d5780601f10611a5257610100808354040283529160200191611a7d565b820191906000526020600020905b815481529060010190602001808311611a6057829003601f168201915b50505050508152602001600282018054611a9690613178565b80601f0160208091040260200160405190810160405280929190818152602001828054611ac290613178565b8015611b0f5780601f10611ae457610100808354040283529160200191611b0f565b820191906000526020600020905b815481529060010190602001808311611af257829003601f168201915b50505050508152602001600382018054611b2890613178565b80601f0160208091040260200160405190810160405280929190818152602001828054611b5490613178565b8015611ba15780601f10611b7657610100808354040283529160200191611ba1565b820191906000526020600020905b815481529060010190602001808311611b8457829003601f168201915b5050505050815260200160048201548152602001600582015481526020016006820160009054906101000a900460ff161515151581526020016006820160019054906101000a900473ffffffffffffffffffffffffffffffffffffffff1673ffffffffffffffffffffffffffffffffffffffff1673ffffffffffffffffffffffffffffffffffffffff168152602001600782015481526020016008820154815260200160098201548152602001600a82015481525050915050919050565b6060816008600082815260200190815260200160002060009054906101000a900460ff16611cc2576040517f08c379a0000000000000000000000000000000000000000000000000000000008152600401611cb99061350e565b60405180910390fd5b60066000848152602001908152602001600020805480602002602001604051908101604052809291908181526020016000905b82821015611f4357838290600052602060002090600602016040518060c001604052908160008201548152602001600182018054611d3290613178565b80601f0160208091040260200160405190810160405280929190818152602001828054611d5e90613178565b8015611dab5780601f10611d8057610100808354040283529160200191611dab565b820191906000526020600020905b815481529060010190602001808311611d8e57829003601f168201915b50505050508152602001600282018054611dc490613178565b80601f0160208091040260200160405190810160405280929190818152602001828054611df090613178565b8015611e3d5780601f10611e1257610100808354040283529160200191611e3d565b820191906000526020600020905b815481529060010190602001808311611e2057829003601f168201915b505050505081526020016003820160009054906101000a900473ffffffffffffffffffffffffffffffffffffffff1673ffffffffffffffffffffffffffffffffffffffff1673ffffffffffffffffffffffffffffffffffffffff1681526020016004820154815260200160058201805480602002602001604051908101604052809291908181526020018280548015611f2b57602002820191906000526020600020905b8160009054906101000a900473ffffffffffffffffffffffffffffffffffffffff1673ffffffffffffffffffffffffffffffffffffffff1681526020019060010190808311611ee1575b50505050508152505081526020019060010190611cf5565b50505050915050919050565b60056020528160005260406000206020528060005260406000206000915091509054906101000a900460ff1681565b3373ffffffffffffffffffffffffffffffffffffffff16600360003373ffffffffffffffffffffffffffffffffffffffff1673ffffffffffffffffffffffffffffffffffffffff16815260200190815260200160002060030160009054906101000a900473ffffffffffffffffffffffffffffffffffffffff1673ffffffffffffffffffffffffffffffffffffffff161461204e576040517f08c379a00000000000000000000000000000000000000000000000000000000081526004016120459061357a565b60405180910390fd5b6000855111612092576040517f08c379a000000000000000000000000000000000000000000000000000000000815260040161208990613796565b60405180910390fd5b60008451116120d6576040517f08c379a00000000000000000000000000000000000000000000000000000000081526004016120cd90613802565b60405180910390fd5b600083511161211a576040517f08c379a00000000000000000000000000000000000000000000000000000000081526004016121119061386e565b60405180910390fd5b60008111801561212957508181115b612168576040517f08c379a000000000000000000000000000000000000000000000000000000000815260040161215f906138da565b60405180910390fd5b612170612432565b60008081548092919061218290613101565b9190505581600001818152505084816040018190525083816060018190525085816020018190525082816101000181815250508181610120018181525050338160e0019073ffffffffffffffffffffffffffffffffffffffff16908173ffffffffffffffffffffffffffffffffffffffff1681525050428161014001818152505060028190806001815401808255809150506001900390600052602060002090600b020160009091909190915060008201518160000155602082015181600101908161224e9190613355565b5060408201518160020190816122649190613355565b50606082015181600301908161227a9190613355565b506080820151816004015560a0820151816005015560c08201518160060160006101000a81548160ff02191690831515021790555060e08201518160060160016101000a81548173ffffffffffffffffffffffffffffffffffffffff021916908373ffffffffffffffffffffffffffffffffffffffff16021790555061010082015181600701556101208201518160080155610140820151816009015561016082015181600a015550506001600860008360000151815260200190815260200160002060006101000a81548160ff021916908315150217905550505050505050565b6040518060c00160405280600081526020016060815260200160608152602001600073ffffffffffffffffffffffffffffffffffffffff16815260200160008152602001606081525090565b828054828255906000526020600020908101928215612421579160200282015b828111156124205782518260006101000a81548173ffffffffffffffffffffffffffffffffffffffff021916908373ffffffffffffffffffffffffffffffffffffffff160217905550916020019190600101906123c8565b5b50905061242e91906124ab565b5090565b604051806101800160405280600081526020016060815260200160608152602001606081526020016000815260200160008152602001600015158152602001600073ffffffffffffffffffffffffffffffffffffffff168152602001600081526020016000815260200160008152602001600081525090565b5b808211156124c45760008160009055506001016124ac565b5090565b6000604051905090565b600080fd5b600080fd5b600080fd5b600080fd5b6000601f19601f8301169050919050565b7f4e487b7100000000000000000000000000000000000000000000000000000000600052604160045260246000fd5b61252f826124e6565b810181811067ffffffffffffffff8211171561254e5761254d6124f7565b5b80604052505050565b60006125616124c8565b905061256d8282612526565b919050565b600067ffffffffffffffff82111561258d5761258c6124f7565b5b612596826124e6565b9050602081019050919050565b82818337600083830152505050565b60006125c56125c084612572565b612557565b9050828152602081018484840111156125e1576125e06124e1565b5b6125ec8482856125a3565b509392505050565b600082601f830112612609576126086124dc565b5b81356126198482602086016125b2565b91505092915050565b60008060408385031215612639576126386124d2565b5b600083013567ffffffffffffffff811115612657576126566124d7565b5b612663858286016125f4565b925050602083013567ffffffffffffffff811115612684576126836124d7565b5b612690858286016125f4565b9150509250929050565b600081519050919050565b600082825260208201905092915050565b6000819050602082019050919050565b6000819050919050565b6126d9816126c6565b82525050565b600081519050919050565b600082825260208201905092915050565b60005b838110156127195780820151818401526020810190506126fe565b60008484015250505050565b6000612730826126df565b61273a81856126ea565b935061274a8185602086016126fb565b612753816124e6565b840191505092915050565b60008115159050919050565b6127738161275e565b82525050565b600073ffffffffffffffffffffffffffffffffffffffff82169050919050565b60006127a482612779565b9050919050565b6127b481612799565b82525050565b6000610180830160008301516127d360008601826126d0565b50602083015184820360208601526127eb8282612725565b915050604083015184820360408601526128058282612725565b9150506060830151848203606086015261281f8282612725565b915050608083015161283460808601826126d0565b5060a083015161284760a08601826126d0565b5060c083015161285a60c086018261276a565b5060e083015161286d60e08601826127ab565b506101008301516128826101008601826126d0565b506101208301516128976101208601826126d0565b506101408301516128ac6101408601826126d0565b506101608301516128c16101608601826126d0565b508091505092915050565b60006128d883836127ba565b905092915050565b6000602082019050919050565b60006128f88261269a565b61290281856126a5565b935083602082028501612914856126b6565b8060005b85811015612950578484038952815161293185826128cc565b945061293c836128e0565b925060208a01995050600181019050612918565b50829750879550505050505092915050565b6000602082019050818103600083015261297c81846128ed565b905092915050565b61298d816126c6565b811461299857600080fd5b50565b6000813590506129aa81612984565b92915050565b6129b981612799565b81146129c457600080fd5b50565b6000813590506129d6816129b0565b92915050565b600080604083850312156129f3576129f26124d2565b5b6000612a018582860161299b565b9250506020612a12858286016129c7565b9150509250929050565b612a258161275e565b82525050565b6000602082019050612a406000830184612a1c565b92915050565b600060208284031215612a5c57612a5b6124d2565b5b6000612a6a8482850161299b565b91505092915050565b60008060408385031215612a8a57612a896124d2565b5b6000612a988582860161299b565b9250506020612aa98582860161299b565b9150509250929050565b60008060008060008060c08789031215612ad057612acf6124d2565b5b6000612ade89828a0161299b565b965050602087013567ffffffffffffffff811115612aff57612afe6124d7565b5b612b0b89828a016125f4565b955050604087013567ffffffffffffffff811115612b2c57612b2b6124d7565b5b612b3889828a016125f4565b945050606087013567ffffffffffffffff811115612b5957612b586124d7565b5b612b6589828a016125f4565b9350506080612b7689828a0161299b565b92505060a0612b8789828a0161299b565b9150509295509295509295565b612b9d816126c6565b82525050565b6000602082019050612bb86000830184612b94565b92915050565b600060208284031215612bd457612bd36124d2565b5b6000612be2848285016129c7565b91505092915050565b600082825260208201905092915050565b6000612c07826126df565b612c118185612beb565b9350612c218185602086016126fb565b612c2a816124e6565b840191505092915050565b612c3e81612799565b82525050565b600060a082019050612c596000830188612b94565b8181036020830152612c6b8187612bfc565b90508181036040830152612c7f8186612bfc565b9050612c8e6060830185612c35565b612c9b6080830184612b94565b9695505050505050565b600061018083016000830151612cbe60008601826126d0565b5060208301518482036020860152612cd68282612725565b91505060408301518482036040860152612cf08282612725565b91505060608301518482036060860152612d0a8282612725565b9150506080830151612d1f60808601826126d0565b5060a0830151612d3260a08601826126d0565b5060c0830151612d4560c086018261276a565b5060e0830151612d5860e08601826127ab565b50610100830151612d6d6101008601826126d0565b50610120830151612d826101208601826126d0565b50610140830151612d976101408601826126d0565b50610160830151612dac6101608601826126d0565b508091505092915050565b60006020820190508181036000830152612dd18184612ca5565b905092915050565b600081519050919050565b600082825260208201905092915050565b6000819050602082019050919050565b600081519050919050565b600082825260208201905092915050565b6000819050602082019050919050565b6000612e3d83836127ab565b60208301905092915050565b6000602082019050919050565b6000612e6182612e05565b612e6b8185612e10565b9350612e7683612e21565b8060005b83811015612ea7578151612e8e8882612e31565b9750612e9983612e49565b925050600181019050612e7a565b5085935050505092915050565b600060c083016000830151612ecc60008601826126d0565b5060208301518482036020860152612ee48282612725565b91505060408301518482036040860152612efe8282612725565b9150506060830151612f1360608601826127ab565b506080830151612f2660808601826126d0565b5060a083015184820360a0860152612f3e8282612e56565b9150508091505092915050565b6000612f578383612eb4565b905092915050565b6000602082019050919050565b6000612f7782612dd9565b612f818185612de4565b935083602082028501612f9385612df5565b8060005b85811015612fcf5784840389528151612fb08582612f4b565b9450612fbb83612f5f565b925060208a01995050600181019050612f97565b50829750879550505050505092915050565b60006020820190508181036000830152612ffb8184612f6c565b905092915050565b600080600080600060a0868803121561301f5761301e6124d2565b5b600086013567ffffffffffffffff81111561303d5761303c6124d7565b5b613049888289016125f4565b955050602086013567ffffffffffffffff81111561306a576130696124d7565b5b613076888289016125f4565b945050604086013567ffffffffffffffff811115613097576130966124d7565b5b6130a3888289016125f4565b93505060606130b48882890161299b565b92505060806130c58882890161299b565b9150509295509295909350565b7f4e487b7100000000000000000000000000000000000000000000000000000000600052601160045260246000fd5b600061310c826126c6565b91507fffffffffffffffffffffffffffffffffffffffffffffffffffffffffffffffff820361313e5761313d6130d2565b5b600182019050919050565b7f4e487b7100000000000000000000000000000000000000000000000000000000600052602260045260246000fd5b6000600282049050600182168061319057607f821691505b6020821081036131a3576131a2613149565b5b50919050565b60008190508160005260206000209050919050565b60006020601f8301049050919050565b600082821b905092915050565b60006008830261320b7fffffffffffffffffffffffffffffffffffffffffffffffffffffffffffffffff826131ce565b61321586836131ce565b95508019841693508086168417925050509392505050565b6000819050919050565b600061325261324d613248846126c6565b61322d565b6126c6565b9050919050565b6000819050919050565b61326c83613237565b61328061327882613259565b8484546131db565b825550505050565b600090565b613295613288565b6132a0818484613263565b505050565b5b818110156132c4576132b960008261328d565b6001810190506132a6565b5050565b601f821115613309576132da816131a9565b6132e3846131be565b810160208510156132f2578190505b6133066132fe856131be565b8301826132a5565b50505b505050565b600082821c905092915050565b600061332c6000198460080261330e565b1980831691505092915050565b6000613345838361331b565b9150826002028217905092915050565b61335e826126df565b67ffffffffffffffff811115613377576133766124f7565b5b6133818254613178565b61338c8282856132c8565b600060209050601f8311600181146133bf57600084156133ad578287015190505b6133b78582613339565b86555061341f565b601f1984166133cd866131a9565b60005b828110156133f5578489015182556001820191506020850194506020810190506133d0565b86831015613412578489015161340e601f89168261331b565b8355505b6001600288020188555050505b505050505050565b7f4e487b7100000000000000000000000000000000000000000000000000000000600052603260045260246000fd5b7f556e617574686f72697a656420416374696f6e00000000000000000000000000600082015250565b600061348c601383612beb565b915061349782613456565b602082019050919050565b600060208201905081810360008301526134bb8161347f565b9050919050565b7f506f6c6c20646f6573206e6f7420657869737400000000000000000000000000600082015250565b60006134f8601383612beb565b9150613503826134c2565b602082019050919050565b60006020820190508181036000830152613527816134eb565b9050919050565b7f4e6f7420612052656769737465726564204d656d626572000000000000000000600082015250565b6000613564601783612beb565b915061356f8261352e565b602082019050919050565b6000602082019050818103600083015261359381613557565b9050919050565b7f416c726561647920566f74656400000000000000000000000000000000000000600082015250565b60006135d0600d83612beb565b91506135db8261359a565b602082019050919050565b600060208201905081810360008301526135ff816135c3565b9050919050565b7f506f6c6c20686173206265656e2064656c657465640000000000000000000000600082015250565b600061363c601583612beb565b915061364782613606565b602082019050919050565b6000602082019050818103600083015261366b8161362f565b9050919050565b7f506f6c6c206e6f7420696e2073657373696f6e00000000000000000000000000600082015250565b60006136a8601383612beb565b91506136b382613672565b602082019050919050565b600060208201905081810360008301526136d78161369b565b9050919050565b7f506f6c6c206e6f206c6f6e676572206578697374730000000000000000000000600082015250565b6000613714601583612beb565b915061371f826136de565b602082019050919050565b6000602082019050818103600083015261374381613707565b9050919050565b7f496d6167652063616e6e6f7420626520656d7074790000000000000000000000600082015250565b6000613780601583612beb565b915061378b8261374a565b602082019050919050565b600060208201905081810360008301526137af81613773565b9050919050565b7f5469746c652063616e6e6f7420626520656d7074790000000000000000000000600082015250565b60006137ec601583612beb565b91506137f7826137b6565b602082019050919050565b6000602082019050818103600083015261381b816137df565b9050919050565b7f4465736372697074696f6e2063616e6e6f7420626520656d7074790000000000600082015250565b6000613858601b83612beb565b915061386382613822565b602082019050919050565b600060208201905081810360008301526138878161384b565b9050919050565b7f496e76616c696420456e642054696d6520476976656e00000000000000000000600082015250565b60006138c4601683612beb565b91506138cf8261388e565b602082019050919050565b600060208201905081810360008301526138f3816138b7565b9050919050565b7f416c726561647920436f6e746573746564000000000000000000000000000000600082015250565b6000613930601183612beb565b915061393b826138fa565b602082019050919050565b6000602082019050818103600083015261395f81613923565b905091905056fea26469706673582212201eace1cf0bd1f48e582ae32c4feb5f2d5d0dcc7d951300d94243b3c33d084ddf64736f6c63430008110033","opcodes":"PUSH1 0x80 PUSH1 0x40 MSTORE CALLVALUE DUP1 ISZERO PUSH2 0x10 JUMPI PUSH1 0x0 DUP1 REVERT JUMPDEST POP PUSH2 0x399C DUP1 PUSH2 0x20 PUSH1 0x0 CODECOPY PUSH1 0x0 RETURN INVALID PUSH1 0x80 PUSH1 0x40 MSTORE CALLVALUE DUP1 ISZERO PUSH2 0x10 JUMPI PUSH1 0x0 DUP1 REVERT JUMPDEST POP PUSH1 0x4 CALLDATASIZE LT PUSH2 0xF5 JUMPI PUSH1 0x0 CALLDATALOAD PUSH1 0xE0 SHR DUP1 PUSH4 0xA2EEEB2F GT PUSH2 0x97 JUMPI DUP1 PUSH4 0xD4BC5E91 GT PUSH2 0x66 JUMPI DUP1 PUSH4 0xD4BC5E91 EQ PUSH2 0x278 JUMPI DUP1 PUSH4 0xDA5199CB EQ PUSH2 0x2A8 JUMPI DUP1 PUSH4 0xE8E35632 EQ PUSH2 0x2D8 JUMPI DUP1 PUSH4 0xF0D0BC45 EQ PUSH2 0x308 JUMPI PUSH2 0xF5 JUMP JUMPDEST DUP1 PUSH4 0xA2EEEB2F EQ PUSH2 0x1D4 JUMPI DUP1 PUSH4 0xA87430BA EQ PUSH2 0x1F2 JUMPI DUP1 PUSH4 0xBFF1F9E1 EQ PUSH2 0x226 JUMPI DUP1 PUSH4 0xC16C9E03 EQ PUSH2 0x244 JUMPI PUSH2 0xF5 JUMP JUMPDEST DUP1 PUSH4 0x6B56DD23 GT PUSH2 0xD3 JUMPI DUP1 PUSH4 0x6B56DD23 EQ PUSH2 0x164 JUMPI DUP1 PUSH4 0x72942840 EQ PUSH2 0x180 JUMPI DUP1 PUSH4 0x93C2F222 EQ PUSH2 0x19C JUMPI DUP1 PUSH4 0x9D1C0BC6 EQ PUSH2 0x1B8 JUMPI PUSH2 0xF5 JUMP JUMPDEST DUP1 PUSH4 0x1D2E4AFD EQ PUSH2 0xFA JUMPI DUP1 PUSH4 0x32B633FA EQ PUSH2 0x116 JUMPI DUP1 PUSH4 0x5277B4AE EQ PUSH2 0x134 JUMPI JUMPDEST PUSH1 0x0 DUP1 REVERT JUMPDEST PUSH2 0x114 PUSH1 0x4 DUP1 CALLDATASIZE SUB DUP2 ADD SWAP1 PUSH2 0x10F SWAP2 SWAP1 PUSH2 0x2622 JUMP JUMPDEST PUSH2 0x324 JUMP JUMPDEST STOP JUMPDEST PUSH2 0x11E PUSH2 0x482 JUMP JUMPDEST PUSH1 0x40 MLOAD PUSH2 0x12B SWAP2 SWAP1 PUSH2 0x2962 JUMP JUMPDEST PUSH1 0x40 MLOAD DUP1 SWAP2 SUB SWAP1 RETURN JUMPDEST PUSH2 0x14E PUSH1 0x4 DUP1 CALLDATASIZE SUB DUP2 ADD SWAP1 PUSH2 0x149 SWAP2 SWAP1 PUSH2 0x29DC JUMP JUMPDEST PUSH2 0x74F JUMP JUMPDEST PUSH1 0x40 MLOAD PUSH2 0x15B SWAP2 SWAP1 PUSH2 0x2A2B JUMP JUMPDEST PUSH1 0x40 MLOAD DUP1 SWAP2 SUB SWAP1 RETURN JUMPDEST PUSH2 0x17E PUSH1 0x4 DUP1 CALLDATASIZE SUB DUP2 ADD SWAP1 PUSH2 0x179 SWAP2 SWAP1 PUSH2 0x2A46 JUMP JUMPDEST PUSH2 0x77E JUMP JUMPDEST STOP JUMPDEST PUSH2 0x19A PUSH1 0x4 DUP1 CALLDATASIZE SUB DUP2 ADD SWAP1 PUSH2 0x195 SWAP2 SWAP1 PUSH2 0x2A73 JUMP JUMPDEST PUSH2 0x8D6 JUMP JUMPDEST STOP JUMPDEST PUSH2 0x1B6 PUSH1 0x4 DUP1 CALLDATASIZE SUB DUP2 ADD SWAP1 PUSH2 0x1B1 SWAP2 SWAP1 PUSH2 0x2AB3 JUMP JUMPDEST PUSH2 0xD43 JUMP JUMPDEST STOP JUMPDEST PUSH2 0x1D2 PUSH1 0x4 DUP1 CALLDATASIZE SUB DUP2 ADD SWAP1 PUSH2 0x1CD SWAP2 SWAP1 PUSH2 0x2A46 JUMP JUMPDEST PUSH2 0x1129 JUMP JUMPDEST STOP JUMPDEST PUSH2 0x1DC PUSH2 0x165E JUMP JUMPDEST PUSH1 0x40 MLOAD PUSH2 0x1E9 SWAP2 SWAP1 PUSH2 0x2BA3 JUMP JUMPDEST PUSH1 0x40 MLOAD DUP1 SWAP2 SUB SWAP1 RETURN JUMPDEST PUSH2 0x20C PUSH1 0x4 DUP1 CALLDATASIZE SUB DUP2 ADD SWAP1 PUSH2 0x207 SWAP2 SWAP1 PUSH2 0x2BBE JUMP JUMPDEST PUSH2 0x1664 JUMP JUMPDEST PUSH1 0x40 MLOAD PUSH2 0x21D SWAP6 SWAP5 SWAP4 SWAP3 SWAP2 SWAP1 PUSH2 0x2C44 JUMP JUMPDEST PUSH1 0x40 MLOAD DUP1 SWAP2 SUB SWAP1 RETURN JUMPDEST PUSH2 0x22E PUSH2 0x17CA JUMP JUMPDEST PUSH1 0x40 MLOAD PUSH2 0x23B SWAP2 SWAP1 PUSH2 0x2BA3 JUMP JUMPDEST PUSH1 0x40 MLOAD DUP1 SWAP2 SUB SWAP1 RETURN JUMPDEST PUSH2 0x25E PUSH1 0x4 DUP1 CALLDATASIZE SUB DUP2 ADD SWAP1 PUSH2 0x259 SWAP2 SWAP1 PUSH2 0x2A73 JUMP JUMPDEST PUSH2 0x17D0 JUMP JUMPDEST PUSH1 0x40 MLOAD PUSH2 0x26F SWAP6 SWAP5 SWAP4 SWAP3 SWAP2 SWAP1 PUSH2 0x2C44 JUMP JUMPDEST PUSH1 0x40 MLOAD DUP1 SWAP2 SUB SWAP1 RETURN JUMPDEST PUSH2 0x292 PUSH1 0x4 DUP1 CALLDATASIZE SUB DUP2 ADD SWAP1 PUSH2 0x28D SWAP2 SWAP1 PUSH2 0x2A46 JUMP JUMPDEST PUSH2 0x1953 JUMP JUMPDEST PUSH1 0x40 MLOAD PUSH2 0x29F SWAP2 SWAP1 PUSH2 0x2DB7 JUMP JUMPDEST PUSH1 0x40 MLOAD DUP1 SWAP2 SUB SWAP1 RETURN JUMPDEST PUSH2 0x2C2 PUSH1 0x4 DUP1 CALLDATASIZE SUB DUP2 ADD SWAP1 PUSH2 0x2BD SWAP2 SWAP1 PUSH2 0x2A46 JUMP JUMPDEST PUSH2 0x1C5F JUMP JUMPDEST PUSH1 0x40 MLOAD PUSH2 0x2CF SWAP2 SWAP1 PUSH2 0x2FE1 JUMP JUMPDEST PUSH1 0x40 MLOAD DUP1 SWAP2 SUB SWAP1 RETURN JUMPDEST PUSH2 0x2F2 PUSH1 0x4 DUP1 CALLDATASIZE SUB DUP2 ADD SWAP1 PUSH2 0x2ED SWAP2 SWAP1 PUSH2 0x29DC JUMP JUMPDEST PUSH2 0x1F4F JUMP JUMPDEST PUSH1 0x40 MLOAD PUSH2 0x2FF SWAP2 SWAP1 PUSH2 0x2A2B JUMP JUMPDEST PUSH1 0x40 MLOAD DUP1 SWAP2 SUB SWAP1 RETURN JUMPDEST PUSH2 0x322 PUSH1 0x4 DUP1 CALLDATASIZE SUB DUP2 ADD SWAP1 PUSH2 0x31D SWAP2 SWAP1 PUSH2 0x3003 JUMP JUMPDEST PUSH2 0x1F7E JUMP JUMPDEST STOP JUMPDEST PUSH2 0x32C PUSH2 0x235C JUMP JUMPDEST PUSH1 0x1 PUSH1 0x0 DUP2 SLOAD DUP1 SWAP3 SWAP2 SWAP1 PUSH2 0x33F SWAP1 PUSH2 0x3101 JUMP JUMPDEST SWAP2 SWAP1 POP SSTORE DUP2 PUSH1 0x0 ADD DUP2 DUP2 MSTORE POP POP DUP3 DUP2 PUSH1 0x20 ADD DUP2 SWAP1 MSTORE POP DUP2 DUP2 PUSH1 0x40 ADD DUP2 SWAP1 MSTORE POP CALLER DUP2 PUSH1 0x60 ADD SWAP1 PUSH20 0xFFFFFFFFFFFFFFFFFFFFFFFFFFFFFFFFFFFFFFFF AND SWAP1 DUP2 PUSH20 0xFFFFFFFFFFFFFFFFFFFFFFFFFFFFFFFFFFFFFFFF AND DUP2 MSTORE POP POP DUP1 PUSH1 0x3 PUSH1 0x0 CALLER PUSH20 0xFFFFFFFFFFFFFFFFFFFFFFFFFFFFFFFFFFFFFFFF AND PUSH20 0xFFFFFFFFFFFFFFFFFFFFFFFFFFFFFFFFFFFFFFFF AND DUP2 MSTORE PUSH1 0x20 ADD SWAP1 DUP2 MSTORE PUSH1 0x20 ADD PUSH1 0x0 KECCAK256 PUSH1 0x0 DUP3 ADD MLOAD DUP2 PUSH1 0x0 ADD SSTORE PUSH1 0x20 DUP3 ADD MLOAD DUP2 PUSH1 0x1 ADD SWAP1 DUP2 PUSH2 0x3F5 SWAP2 SWAP1 PUSH2 0x3355 JUMP JUMPDEST POP PUSH1 0x40 DUP3 ADD MLOAD DUP2 PUSH1 0x2 ADD SWAP1 DUP2 PUSH2 0x40B SWAP2 SWAP1 PUSH2 0x3355 JUMP JUMPDEST POP PUSH1 0x60 DUP3 ADD MLOAD DUP2 PUSH1 0x3 ADD PUSH1 0x0 PUSH2 0x100 EXP DUP2 SLOAD DUP2 PUSH20 0xFFFFFFFFFFFFFFFFFFFFFFFFFFFFFFFFFFFFFFFF MUL NOT AND SWAP1 DUP4 PUSH20 0xFFFFFFFFFFFFFFFFFFFFFFFFFFFFFFFFFFFFFFFF AND MUL OR SWAP1 SSTORE POP PUSH1 0x80 DUP3 ADD MLOAD DUP2 PUSH1 0x4 ADD SSTORE PUSH1 0xA0 DUP3 ADD MLOAD DUP2 PUSH1 0x5 ADD SWAP1 DUP1 MLOAD SWAP1 PUSH1 0x20 ADD SWAP1 PUSH2 0x479 SWAP3 SWAP2 SWAP1 PUSH2 0x23A8 JUMP JUMPDEST POP SWAP1 POP POP POP POP POP JUMP JUMPDEST PUSH1 0x60 PUSH1 0x2 DUP1 SLOAD DUP1 PUSH1 0x20 MUL PUSH1 0x20 ADD PUSH1 0x40 MLOAD SWAP1 DUP2 ADD PUSH1 0x40 MSTORE DUP1 SWAP3 SWAP2 SWAP1 DUP2 DUP2 MSTORE PUSH1 0x20 ADD PUSH1 0x0 SWAP1 JUMPDEST DUP3 DUP3 LT ISZERO PUSH2 0x746 JUMPI DUP4 DUP3 SWAP1 PUSH1 0x0 MSTORE PUSH1 0x20 PUSH1 0x0 KECCAK256 SWAP1 PUSH1 0xB MUL ADD PUSH1 0x40 MLOAD DUP1 PUSH2 0x180 ADD PUSH1 0x40 MSTORE SWAP1 DUP2 PUSH1 0x0 DUP3 ADD SLOAD DUP2 MSTORE PUSH1 0x20 ADD PUSH1 0x1 DUP3 ADD DUP1 SLOAD PUSH2 0x4E4 SWAP1 PUSH2 0x3178 JUMP JUMPDEST DUP1 PUSH1 0x1F ADD PUSH1 0x20 DUP1 SWAP2 DIV MUL PUSH1 0x20 ADD PUSH1 0x40 MLOAD SWAP1 DUP2 ADD PUSH1 0x40 MSTORE DUP1 SWAP3 SWAP2 SWAP1 DUP2 DUP2 MSTORE PUSH1 0x20 ADD DUP3 DUP1 SLOAD PUSH2 0x510 SWAP1 PUSH2 0x3178 JUMP JUMPDEST DUP1 ISZERO PUSH2 0x55D JUMPI DUP1 PUSH1 0x1F LT PUSH2 0x532 JUMPI PUSH2 0x100 DUP1 DUP4 SLOAD DIV MUL DUP4 MSTORE SWAP2 PUSH1 0x20 ADD SWAP2 PUSH2 0x55D JUMP JUMPDEST DUP3 ADD SWAP2 SWAP1 PUSH1 0x0 MSTORE PUSH1 0x20 PUSH1 0x0 KECCAK256 SWAP1 JUMPDEST DUP2 SLOAD DUP2 MSTORE SWAP1 PUSH1 0x1 ADD SWAP1 PUSH1 0x20 ADD DUP1 DUP4 GT PUSH2 0x540 JUMPI DUP3 SWAP1 SUB PUSH1 0x1F AND DUP3 ADD SWAP2 JUMPDEST POP POP POP POP POP DUP2 MSTORE PUSH1 0x20 ADD PUSH1 0x2 DUP3 ADD DUP1 SLOAD PUSH2 0x576 SWAP1 PUSH2 0x3178 JUMP JUMPDEST DUP1 PUSH1 0x1F ADD PUSH1 0x20 DUP1 SWAP2 DIV MUL PUSH1 0x20 ADD PUSH1 0x40 MLOAD SWAP1 DUP2 ADD PUSH1 0x40 MSTORE DUP1 SWAP3 SWAP2 SWAP1 DUP2 DUP2 MSTORE PUSH1 0x20 ADD DUP3 DUP1 SLOAD PUSH2 0x5A2 SWAP1 PUSH2 0x3178 JUMP JUMPDEST DUP1 ISZERO PUSH2 0x5EF JUMPI DUP1 PUSH1 0x1F LT PUSH2 0x5C4 JUMPI PUSH2 0x100 DUP1 DUP4 SLOAD DIV MUL DUP4 MSTORE SWAP2 PUSH1 0x20 ADD SWAP2 PUSH2 0x5EF JUMP JUMPDEST DUP3 ADD SWAP2 SWAP1 PUSH1 0x0 MSTORE PUSH1 0x20 PUSH1 0x0 KECCAK256 SWAP1 JUMPDEST DUP2 SLOAD DUP2 MSTORE SWAP1 PUSH1 0x1 ADD SWAP1 PUSH1 0x20 ADD DUP1 DUP4 GT PUSH2 0x5D2 JUMPI DUP3 SWAP1 SUB PUSH1 0x1F AND DUP3 ADD SWAP2 JUMPDEST POP POP POP POP POP DUP2 MSTORE PUSH1 0x20 ADD PUSH1 0x3 DUP3 ADD DUP1 SLOAD PUSH2 0x608 SWAP1 PUSH2 0x3178 JUMP JUMPDEST DUP1 PUSH1 0x1F ADD PUSH1 0x20 DUP1 SWAP2 DIV MUL PUSH1 0x20 ADD PUSH1 0x40 MLOAD SWAP1 DUP2 ADD PUSH1 0x40 MSTORE DUP1 SWAP3 SWAP2 SWAP1 DUP2 DUP2 MSTORE PUSH1 0x20 ADD DUP3 DUP1 SLOAD PUSH2 0x634 SWAP1 PUSH2 0x3178 JUMP JUMPDEST DUP1 ISZERO PUSH2 0x681 JUMPI DUP1 PUSH1 0x1F LT PUSH2 0x656 JUMPI PUSH2 0x100 DUP1 DUP4 SLOAD DIV MUL DUP4 MSTORE SWAP2 PUSH1 0x20 ADD SWAP2 PUSH2 0x681 JUMP JUMPDEST DUP3 ADD SWAP2 SWAP1 PUSH1 0x0 MSTORE PUSH1 0x20 PUSH1 0x0 KECCAK256 SWAP1 JUMPDEST DUP2 SLOAD DUP2 MSTORE SWAP1 PUSH1 0x1 ADD SWAP1 PUSH1 0x20 ADD DUP1 DUP4 GT PUSH2 0x664 JUMPI DUP3 SWAP1 SUB PUSH1 0x1F AND DUP3 ADD SWAP2 JUMPDEST POP POP POP POP POP DUP2 MSTORE PUSH1 0x20 ADD PUSH1 0x4 DUP3 ADD SLOAD DUP2 MSTORE PUSH1 0x20 ADD PUSH1 0x5 DUP3 ADD SLOAD DUP2 MSTORE PUSH1 0x20 ADD PUSH1 0x6 DUP3 ADD PUSH1 0x0 SWAP1 SLOAD SWAP1 PUSH2 0x100 EXP SWAP1 DIV PUSH1 0xFF AND ISZERO ISZERO ISZERO ISZERO DUP2 MSTORE PUSH1 0x20 ADD PUSH1 0x6 DUP3 ADD PUSH1 0x1 SWAP1 SLOAD SWAP1 PUSH2 0x100 EXP SWAP1 DIV PUSH20 0xFFFFFFFFFFFFFFFFFFFFFFFFFFFFFFFFFFFFFFFF AND PUSH20 0xFFFFFFFFFFFFFFFFFFFFFFFFFFFFFFFFFFFFFFFF AND PUSH20 0xFFFFFFFFFFFFFFFFFFFFFFFFFFFFFFFFFFFFFFFF AND DUP2 MSTORE PUSH1 0x20 ADD PUSH1 0x7 DUP3 ADD SLOAD DUP2 MSTORE PUSH1 0x20 ADD PUSH1 0x8 DUP3 ADD SLOAD DUP2 MSTORE PUSH1 0x20 ADD PUSH1 0x9 DUP3 ADD SLOAD DUP2 MSTORE PUSH1 0x20 ADD PUSH1 0xA DUP3 ADD SLOAD DUP2 MSTORE POP POP DUP2 MSTORE PUSH1 0x20 ADD SWAP1 PUSH1 0x1 ADD SWAP1 PUSH2 0x4A6 JUMP JUMPDEST POP POP POP POP SWAP1 POP SWAP1 JUMP JUMPDEST PUSH1 0x4 PUSH1 0x20 MSTORE DUP2 PUSH1 0x0 MSTORE PUSH1 0x40 PUSH1 0x0 KECCAK256 PUSH1 0x20 MSTORE DUP1 PUSH1 0x0 MSTORE PUSH1 0x40 PUSH1 0x0 KECCAK256 PUSH1 0x0 SWAP2 POP SWAP2 POP SWAP1 SLOAD SWAP1 PUSH2 0x100 EXP SWAP1 DIV PUSH1 0xFF AND DUP2 JUMP JUMPDEST PUSH1 0x2 DUP2 DUP2 SLOAD DUP2 LT PUSH2 0x792 JUMPI PUSH2 0x791 PUSH2 0x3427 JUMP JUMPDEST JUMPDEST SWAP1 PUSH1 0x0 MSTORE PUSH1 0x20 PUSH1 0x0 KECCAK256 SWAP1 PUSH1 0xB MUL ADD PUSH1 0x6 ADD PUSH1 0x1 SWAP1 SLOAD SWAP1 PUSH2 0x100 EXP SWAP1 DIV PUSH20 0xFFFFFFFFFFFFFFFFFFFFFFFFFFFFFFFFFFFFFFFF AND CALLER PUSH20 0xFFFFFFFFFFFFFFFFFFFFFFFFFFFFFFFFFFFFFFFF AND DUP2 PUSH20 0xFFFFFFFFFFFFFFFFFFFFFFFFFFFFFFFFFFFFFFFF AND EQ PUSH2 0x832 JUMPI PUSH1 0x40 MLOAD PUSH32 0x8C379A000000000000000000000000000000000000000000000000000000000 DUP2 MSTORE PUSH1 0x4 ADD PUSH2 0x829 SWAP1 PUSH2 0x34A2 JUMP JUMPDEST PUSH1 0x40 MLOAD DUP1 SWAP2 SUB SWAP1 REVERT JUMPDEST DUP2 PUSH1 0x8 PUSH1 0x0 DUP3 DUP2 MSTORE PUSH1 0x20 ADD SWAP1 DUP2 MSTORE PUSH1 0x20 ADD PUSH1 0x0 KECCAK256 PUSH1 0x0 SWAP1 SLOAD SWAP1 PUSH2 0x100 EXP SWAP1 DIV PUSH1 0xFF AND PUSH2 0x893 JUMPI PUSH1 0x40 MLOAD PUSH32 0x8C379A000000000000000000000000000000000000000000000000000000000 DUP2 MSTORE PUSH1 0x4 ADD PUSH2 0x88A SWAP1 PUSH2 0x350E JUMP JUMPDEST PUSH1 0x40 MLOAD DUP1 SWAP2 SUB SWAP1 REVERT JUMPDEST PUSH1 0x1 PUSH1 0x2 DUP5 DUP2 SLOAD DUP2 LT PUSH2 0x8A9 JUMPI PUSH2 0x8A8 PUSH2 0x3427 JUMP JUMPDEST JUMPDEST SWAP1 PUSH1 0x0 MSTORE PUSH1 0x20 PUSH1 0x0 KECCAK256 SWAP1 PUSH1 0xB MUL ADD PUSH1 0x6 ADD PUSH1 0x0 PUSH2 0x100 EXP DUP2 SLOAD DUP2 PUSH1 0xFF MUL NOT AND SWAP1 DUP4 ISZERO ISZERO MUL OR SWAP1 SSTORE POP POP POP POP JUMP JUMPDEST CALLER PUSH20 0xFFFFFFFFFFFFFFFFFFFFFFFFFFFFFFFFFFFFFFFF AND PUSH1 0x3 PUSH1 0x0 CALLER PUSH20 0xFFFFFFFFFFFFFFFFFFFFFFFFFFFFFFFFFFFFFFFF AND PUSH20 0xFFFFFFFFFFFFFFFFFFFFFFFFFFFFFFFFFFFFFFFF AND DUP2 MSTORE PUSH1 0x20 ADD SWAP1 DUP2 MSTORE PUSH1 0x20 ADD PUSH1 0x0 KECCAK256 PUSH1 0x3 ADD PUSH1 0x0 SWAP1 SLOAD SWAP1 PUSH2 0x100 EXP SWAP1 DIV PUSH20 0xFFFFFFFFFFFFFFFFFFFFFFFFFFFFFFFFFFFFFFFF AND PUSH20 0xFFFFFFFFFFFFFFFFFFFFFFFFFFFFFFFFFFFFFFFF AND EQ PUSH2 0x9A6 JUMPI PUSH1 0x40 MLOAD PUSH32 0x8C379A000000000000000000000000000000000000000000000000000000000 DUP2 MSTORE PUSH1 0x4 ADD PUSH2 0x99D SWAP1 PUSH2 0x357A JUMP JUMPDEST PUSH1 0x40 MLOAD DUP1 SWAP2 SUB SWAP1 REVERT JUMPDEST DUP2 PUSH1 0x8 PUSH1 0x0 DUP3 DUP2 MSTORE PUSH1 0x20 ADD SWAP1 DUP2 MSTORE PUSH1 0x20 ADD PUSH1 0x0 KECCAK256 PUSH1 0x0 SWAP1 SLOAD SWAP1 PUSH2 0x100 EXP SWAP1 DIV PUSH1 0xFF AND PUSH2 0xA07 JUMPI PUSH1 0x40 MLOAD PUSH32 0x8C379A000000000000000000000000000000000000000000000000000000000 DUP2 MSTORE PUSH1 0x4 ADD PUSH2 0x9FE SWAP1 PUSH2 0x350E JUMP JUMPDEST PUSH1 0x40 MLOAD DUP1 SWAP2 SUB SWAP1 REVERT JUMPDEST DUP3 CALLER PUSH1 0x4 PUSH1 0x0 DUP4 DUP2 MSTORE PUSH1 0x20 ADD SWAP1 DUP2 MSTORE PUSH1 0x20 ADD PUSH1 0x0 KECCAK256 PUSH1 0x0 DUP3 PUSH20 0xFFFFFFFFFFFFFFFFFFFFFFFFFFFFFFFFFFFFFFFF AND PUSH20 0xFFFFFFFFFFFFFFFFFFFFFFFFFFFFFFFFFFFFFFFF AND DUP2 MSTORE PUSH1 0x20 ADD SWAP1 DUP2 MSTORE PUSH1 0x20 ADD PUSH1 0x0 KECCAK256 PUSH1 0x0 SWAP1 SLOAD SWAP1 PUSH2 0x100 EXP SWAP1 DIV PUSH1 0xFF AND ISZERO PUSH2 0xAA7 JUMPI PUSH1 0x40 MLOAD PUSH32 0x8C379A000000000000000000000000000000000000000000000000000000000 DUP2 MSTORE PUSH1 0x4 ADD PUSH2 0xA9E SWAP1 PUSH2 0x35E6 JUMP JUMPDEST PUSH1 0x40 MLOAD DUP1 SWAP2 SUB SWAP1 REVERT JUMPDEST DUP5 PUSH1 0x2 DUP2 DUP2 SLOAD DUP2 LT PUSH2 0xABC JUMPI PUSH2 0xABB PUSH2 0x3427 JUMP JUMPDEST JUMPDEST SWAP1 PUSH1 0x0 MSTORE PUSH1 0x20 PUSH1 0x0 KECCAK256 SWAP1 PUSH1 0xB MUL ADD PUSH1 0x6 ADD PUSH1 0x0 SWAP1 SLOAD SWAP1 PUSH2 0x100 EXP SWAP1 DIV PUSH1 0xFF AND ISZERO PUSH2 0xB1B JUMPI PUSH1 0x40 MLOAD PUSH32 0x8C379A000000000000000000000000000000000000000000000000000000000 DUP2 MSTORE PUSH1 0x4 ADD PUSH2 0xB12 SWAP1 PUSH2 0x3652 JUMP JUMPDEST PUSH1 0x40 MLOAD DUP1 SWAP2 SUB SWAP1 REVERT JUMPDEST DUP6 PUSH1 0x2 DUP2 DUP2 SLOAD DUP2 LT PUSH2 0xB30 JUMPI PUSH2 0xB2F PUSH2 0x3427 JUMP JUMPDEST JUMPDEST SWAP1 PUSH1 0x0 MSTORE PUSH1 0x20 PUSH1 0x0 KECCAK256 SWAP1 PUSH1 0xB MUL ADD PUSH1 0x7 ADD SLOAD TIMESTAMP GT DUP1 ISZERO PUSH2 0xB74 JUMPI POP TIMESTAMP PUSH1 0x2 DUP3 DUP2 SLOAD DUP2 LT PUSH2 0xB60 JUMPI PUSH2 0xB5F PUSH2 0x3427 JUMP JUMPDEST JUMPDEST SWAP1 PUSH1 0x0 MSTORE PUSH1 0x20 PUSH1 0x0 KECCAK256 SWAP1 PUSH1 0xB MUL ADD PUSH1 0x8 ADD SLOAD GT JUMPDEST PUSH2 0xBB3 JUMPI PUSH1 0x40 MLOAD PUSH32 0x8C379A000000000000000000000000000000000000000000000000000000000 DUP2 MSTORE PUSH1 0x4 ADD PUSH2 0xBAA SWAP1 PUSH2 0x36BE JUMP JUMPDEST PUSH1 0x40 MLOAD DUP1 SWAP2 SUB SWAP1 REVERT JUMPDEST PUSH1 0x2 DUP8 DUP2 SLOAD DUP2 LT PUSH2 0xBC7 JUMPI PUSH2 0xBC6 PUSH2 0x3427 JUMP JUMPDEST JUMPDEST SWAP1 PUSH1 0x0 MSTORE PUSH1 0x20 PUSH1 0x0 KECCAK256 SWAP1 PUSH1 0xB MUL ADD PUSH1 0x4 ADD PUSH1 0x0 DUP2 SLOAD DUP1 SWAP3 SWAP2 SWAP1 PUSH2 0xBE9 SWAP1 PUSH2 0x3101 JUMP JUMPDEST SWAP2 SWAP1 POP SSTORE POP PUSH1 0x6 PUSH1 0x0 DUP9 DUP2 MSTORE PUSH1 0x20 ADD SWAP1 DUP2 MSTORE PUSH1 0x20 ADD PUSH1 0x0 KECCAK256 DUP7 DUP2 SLOAD DUP2 LT PUSH2 0xC13 JUMPI PUSH2 0xC12 PUSH2 0x3427 JUMP JUMPDEST JUMPDEST SWAP1 PUSH1 0x0 MSTORE PUSH1 0x20 PUSH1 0x0 KECCAK256 SWAP1 PUSH1 0x6 MUL ADD PUSH1 0x4 ADD PUSH1 0x0 DUP2 SLOAD DUP1 SWAP3 SWAP2 SWAP1 PUSH2 0xC35 SWAP1 PUSH2 0x3101 JUMP JUMPDEST SWAP2 SWAP1 POP SSTORE POP PUSH1 0x6 PUSH1 0x0 DUP9 DUP2 MSTORE PUSH1 0x20 ADD SWAP1 DUP2 MSTORE PUSH1 0x20 ADD PUSH1 0x0 KECCAK256 DUP7 DUP2 SLOAD DUP2 LT PUSH2 0xC5F JUMPI PUSH2 0xC5E PUSH2 0x3427 JUMP JUMPDEST JUMPDEST SWAP1 PUSH1 0x0 MSTORE PUSH1 0x20 PUSH1 0x0 KECCAK256 SWAP1 PUSH1 0x6 MUL ADD PUSH1 0x5 ADD CALLER SWAP1 DUP1 PUSH1 0x1 DUP2 SLOAD ADD DUP1 DUP3 SSTORE DUP1 SWAP2 POP POP PUSH1 0x1 SWAP1 SUB SWAP1 PUSH1 0x0 MSTORE PUSH1 0x20 PUSH1 0x0 KECCAK256 ADD PUSH1 0x0 SWAP1 SWAP2 SWAP1 SWAP2 SWAP1 SWAP2 PUSH2 0x100 EXP DUP2 SLOAD DUP2 PUSH20 0xFFFFFFFFFFFFFFFFFFFFFFFFFFFFFFFFFFFFFFFF MUL NOT AND SWAP1 DUP4 PUSH20 0xFFFFFFFFFFFFFFFFFFFFFFFFFFFFFFFFFFFFFFFF AND MUL OR SWAP1 SSTORE POP PUSH1 0x1 PUSH1 0x4 PUSH1 0x0 DUP10 DUP2 MSTORE PUSH1 0x20 ADD SWAP1 DUP2 MSTORE PUSH1 0x20 ADD PUSH1 0x0 KECCAK256 PUSH1 0x0 CALLER PUSH20 0xFFFFFFFFFFFFFFFFFFFFFFFFFFFFFFFFFFFFFFFF AND PUSH20 0xFFFFFFFFFFFFFFFFFFFFFFFFFFFFFFFFFFFFFFFF AND DUP2 MSTORE PUSH1 0x20 ADD SWAP1 DUP2 MSTORE PUSH1 0x20 ADD PUSH1 0x0 KECCAK256 PUSH1 0x0 PUSH2 0x100 EXP DUP2 SLOAD DUP2 PUSH1 0xFF MUL NOT AND SWAP1 DUP4 ISZERO ISZERO MUL OR SWAP1 SSTORE POP POP POP POP POP POP POP POP JUMP JUMPDEST CALLER PUSH20 0xFFFFFFFFFFFFFFFFFFFFFFFFFFFFFFFFFFFFFFFF AND PUSH1 0x3 PUSH1 0x0 CALLER PUSH20 0xFFFFFFFFFFFFFFFFFFFFFFFFFFFFFFFFFFFFFFFF AND PUSH20 0xFFFFFFFFFFFFFFFFFFFFFFFFFFFFFFFFFFFFFFFF AND DUP2 MSTORE PUSH1 0x20 ADD SWAP1 DUP2 MSTORE PUSH1 0x20 ADD PUSH1 0x0 KECCAK256 PUSH1 0x3 ADD PUSH1 0x0 SWAP1 SLOAD SWAP1 PUSH2 0x100 EXP SWAP1 DIV PUSH20 0xFFFFFFFFFFFFFFFFFFFFFFFFFFFFFFFFFFFFFFFF AND PUSH20 0xFFFFFFFFFFFFFFFFFFFFFFFFFFFFFFFFFFFFFFFF AND EQ PUSH2 0xE13 JUMPI PUSH1 0x40 MLOAD PUSH32 0x8C379A000000000000000000000000000000000000000000000000000000000 DUP2 MSTORE PUSH1 0x4 ADD PUSH2 0xE0A SWAP1 PUSH2 0x357A JUMP JUMPDEST PUSH1 0x40 MLOAD DUP1 SWAP2 SUB SWAP1 REVERT JUMPDEST DUP6 PUSH1 0x8 PUSH1 0x0 DUP3 DUP2 MSTORE PUSH1 0x20 ADD SWAP1 DUP2 MSTORE PUSH1 0x20 ADD PUSH1 0x0 KECCAK256 PUSH1 0x0 SWAP1 SLOAD SWAP1 PUSH2 0x100 EXP SWAP1 DIV PUSH1 0xFF AND PUSH2 0xE74 JUMPI PUSH1 0x40 MLOAD PUSH32 0x8C379A000000000000000000000000000000000000000000000000000000000 DUP2 MSTORE PUSH1 0x4 ADD PUSH2 0xE6B SWAP1 PUSH2 0x350E JUMP JUMPDEST PUSH1 0x40 MLOAD DUP1 SWAP2 SUB SWAP1 REVERT JUMPDEST DUP7 PUSH1 0x1 ISZERO ISZERO PUSH1 0x2 DUP3 DUP2 SLOAD DUP2 LT PUSH2 0xE8D JUMPI PUSH2 0xE8C PUSH2 0x3427 JUMP JUMPDEST JUMPDEST SWAP1 PUSH1 0x0 MSTORE PUSH1 0x20 PUSH1 0x0 KECCAK256 SWAP1 PUSH1 0xB MUL ADD PUSH1 0x6 ADD PUSH1 0x0 SWAP1 SLOAD SWAP1 PUSH2 0x100 EXP SWAP1 DIV PUSH1 0xFF AND ISZERO ISZERO SUB PUSH2 0xEEE JUMPI PUSH1 0x40 MLOAD PUSH32 0x8C379A000000000000000000000000000000000000000000000000000000000 DUP2 MSTORE PUSH1 0x4 ADD PUSH2 0xEE5 SWAP1 PUSH2 0x372A JUMP JUMPDEST PUSH1 0x40 MLOAD DUP1 SWAP2 SUB SWAP1 REVERT JUMPDEST PUSH1 0x0 DUP8 MLOAD GT PUSH2 0xF32 JUMPI PUSH1 0x40 MLOAD PUSH32 0x8C379A000000000000000000000000000000000000000000000000000000000 DUP2 MSTORE PUSH1 0x4 ADD PUSH2 0xF29 SWAP1 PUSH2 0x3796 JUMP JUMPDEST PUSH1 0x40 MLOAD DUP1 SWAP2 SUB SWAP1 REVERT JUMPDEST PUSH1 0x0 DUP7 MLOAD GT PUSH2 0xF76 JUMPI PUSH1 0x40 MLOAD PUSH32 0x8C379A000000000000000000000000000000000000000000000000000000000 DUP2 MSTORE PUSH1 0x4 ADD PUSH2 0xF6D SWAP1 PUSH2 0x3802 JUMP JUMPDEST PUSH1 0x40 MLOAD DUP1 SWAP2 SUB SWAP1 REVERT JUMPDEST PUSH1 0x0 DUP6 MLOAD GT PUSH2 0xFBA JUMPI PUSH1 0x40 MLOAD PUSH32 0x8C379A000000000000000000000000000000000000000000000000000000000 DUP2 MSTORE PUSH1 0x4 ADD PUSH2 0xFB1 SWAP1 PUSH2 0x386E JUMP JUMPDEST PUSH1 0x40 MLOAD DUP1 SWAP2 SUB SWAP1 REVERT JUMPDEST PUSH1 0x0 DUP4 GT DUP1 ISZERO PUSH2 0xFC9 JUMPI POP DUP4 DUP4 GT JUMPDEST PUSH2 0x1008 JUMPI PUSH1 0x40 MLOAD PUSH32 0x8C379A000000000000000000000000000000000000000000000000000000000 DUP2 MSTORE PUSH1 0x4 ADD PUSH2 0xFFF SWAP1 PUSH2 0x38DA JUMP JUMPDEST PUSH1 0x40 MLOAD DUP1 SWAP2 SUB SWAP1 REVERT JUMPDEST DUP6 PUSH1 0x2 DUP10 DUP2 SLOAD DUP2 LT PUSH2 0x101D JUMPI PUSH2 0x101C PUSH2 0x3427 JUMP JUMPDEST JUMPDEST SWAP1 PUSH1 0x0 MSTORE PUSH1 0x20 PUSH1 0x0 KECCAK256 SWAP1 PUSH1 0xB MUL ADD PUSH1 0x2 ADD SWAP1 DUP2 PUSH2 0x103A SWAP2 SWAP1 PUSH2 0x3355 JUMP JUMPDEST POP DUP5 PUSH1 0x2 DUP10 DUP2 SLOAD DUP2 LT PUSH2 0x1050 JUMPI PUSH2 0x104F PUSH2 0x3427 JUMP JUMPDEST JUMPDEST SWAP1 PUSH1 0x0 MSTORE PUSH1 0x20 PUSH1 0x0 KECCAK256 SWAP1 PUSH1 0xB MUL ADD PUSH1 0x3 ADD SWAP1 DUP2 PUSH2 0x106D SWAP2 SWAP1 PUSH2 0x3355 JUMP JUMPDEST POP DUP7 PUSH1 0x2 DUP10 DUP2 SLOAD DUP2 LT PUSH2 0x1083 JUMPI PUSH2 0x1082 PUSH2 0x3427 JUMP JUMPDEST JUMPDEST SWAP1 PUSH1 0x0 MSTORE PUSH1 0x20 PUSH1 0x0 KECCAK256 SWAP1 PUSH1 0xB MUL ADD PUSH1 0x1 ADD SWAP1 DUP2 PUSH2 0x10A0 SWAP2 SWAP1 PUSH2 0x3355 JUMP JUMPDEST POP DUP4 PUSH1 0x2 DUP10 DUP2 SLOAD DUP2 LT PUSH2 0x10B6 JUMPI PUSH2 0x10B5 PUSH2 0x3427 JUMP JUMPDEST JUMPDEST SWAP1 PUSH1 0x0 MSTORE PUSH1 0x20 PUSH1 0x0 KECCAK256 SWAP1 PUSH1 0xB MUL ADD PUSH1 0x7 ADD DUP2 SWAP1 SSTORE POP DUP3 PUSH1 0x2 DUP10 DUP2 SLOAD DUP2 LT PUSH2 0x10E0 JUMPI PUSH2 0x10DF PUSH2 0x3427 JUMP JUMPDEST JUMPDEST SWAP1 PUSH1 0x0 MSTORE PUSH1 0x20 PUSH1 0x0 KECCAK256 SWAP1 PUSH1 0xB MUL ADD PUSH1 0x8 ADD DUP2 SWAP1 SSTORE POP TIMESTAMP PUSH1 0x2 DUP10 DUP2 SLOAD DUP2 LT PUSH2 0x110A JUMPI PUSH2 0x1109 PUSH2 0x3427 JUMP JUMPDEST JUMPDEST SWAP1 PUSH1 0x0 MSTORE PUSH1 0x20 PUSH1 0x0 KECCAK256 SWAP1 PUSH1 0xB MUL ADD PUSH1 0xA ADD DUP2 SWAP1 SSTORE POP POP POP POP POP POP POP POP POP JUMP JUMPDEST DUP1 PUSH1 0x8 PUSH1 0x0 DUP3 DUP2 MSTORE PUSH1 0x20 ADD SWAP1 DUP2 MSTORE PUSH1 0x20 ADD PUSH1 0x0 KECCAK256 PUSH1 0x0 SWAP1 SLOAD SWAP1 PUSH2 0x100 EXP SWAP1 DIV PUSH1 0xFF AND PUSH2 0x118A JUMPI PUSH1 0x40 MLOAD PUSH32 0x8C379A000000000000000000000000000000000000000000000000000000000 DUP2 MSTORE PUSH1 0x4 ADD PUSH2 0x1181 SWAP1 PUSH2 0x350E JUMP JUMPDEST PUSH1 0x40 MLOAD DUP1 SWAP2 SUB SWAP1 REVERT JUMPDEST PUSH1 0x7 PUSH1 0x0 CALLER PUSH20 0xFFFFFFFFFFFFFFFFFFFFFFFFFFFFFFFFFFFFFFFF AND PUSH20 0xFFFFFFFFFFFFFFFFFFFFFFFFFFFFFFFFFFFFFFFF AND DUP2 MSTORE PUSH1 0x20 ADD SWAP1 DUP2 MSTORE PUSH1 0x20 ADD PUSH1 0x0 KECCAK256 PUSH1 0x0 SWAP1 SLOAD SWAP1 PUSH2 0x100 EXP SWAP1 DIV PUSH1 0xFF AND PUSH2 0x1216 JUMPI PUSH1 0x40 MLOAD PUSH32 0x8C379A000000000000000000000000000000000000000000000000000000000 DUP2 MSTORE PUSH1 0x4 ADD PUSH2 0x120D SWAP1 PUSH2 0x3946 JUMP JUMPDEST PUSH1 0x40 MLOAD DUP1 SWAP2 SUB SWAP1 REVERT JUMPDEST PUSH1 0x0 PUSH1 0x3 PUSH1 0x0 CALLER PUSH20 0xFFFFFFFFFFFFFFFFFFFFFFFFFFFFFFFFFFFFFFFF AND PUSH20 0xFFFFFFFFFFFFFFFFFFFFFFFFFFFFFFFFFFFFFFFF AND DUP2 MSTORE PUSH1 0x20 ADD SWAP1 DUP2 MSTORE PUSH1 0x20 ADD PUSH1 0x0 KECCAK256 PUSH1 0x40 MLOAD DUP1 PUSH1 0xC0 ADD PUSH1 0x40 MSTORE SWAP1 DUP2 PUSH1 0x0 DUP3 ADD SLOAD DUP2 MSTORE PUSH1 0x20 ADD PUSH1 0x1 DUP3 ADD DUP1 SLOAD PUSH2 0x127C SWAP1 PUSH2 0x3178 JUMP JUMPDEST DUP1 PUSH1 0x1F ADD PUSH1 0x20 DUP1 SWAP2 DIV MUL PUSH1 0x20 ADD PUSH1 0x40 MLOAD SWAP1 DUP2 ADD PUSH1 0x40 MSTORE DUP1 SWAP3 SWAP2 SWAP1 DUP2 DUP2 MSTORE PUSH1 0x20 ADD DUP3 DUP1 SLOAD PUSH2 0x12A8 SWAP1 PUSH2 0x3178 JUMP JUMPDEST DUP1 ISZERO PUSH2 0x12F5 JUMPI DUP1 PUSH1 0x1F LT PUSH2 0x12CA JUMPI PUSH2 0x100 DUP1 DUP4 SLOAD DIV MUL DUP4 MSTORE SWAP2 PUSH1 0x20 ADD SWAP2 PUSH2 0x12F5 JUMP JUMPDEST DUP3 ADD SWAP2 SWAP1 PUSH1 0x0 MSTORE PUSH1 0x20 PUSH1 0x0 KECCAK256 SWAP1 JUMPDEST DUP2 SLOAD DUP2 MSTORE SWAP1 PUSH1 0x1 ADD SWAP1 PUSH1 0x20 ADD DUP1 DUP4 GT PUSH2 0x12D8 JUMPI DUP3 SWAP1 SUB PUSH1 0x1F AND DUP3 ADD SWAP2 JUMPDEST POP POP POP POP POP DUP2 MSTORE PUSH1 0x20 ADD PUSH1 0x2 DUP3 ADD DUP1 SLOAD PUSH2 0x130E SWAP1 PUSH2 0x3178 JUMP JUMPDEST DUP1 PUSH1 0x1F ADD PUSH1 0x20 DUP1 SWAP2 DIV MUL PUSH1 0x20 ADD PUSH1 0x40 MLOAD SWAP1 DUP2 ADD PUSH1 0x40 MSTORE DUP1 SWAP3 SWAP2 SWAP1 DUP2 DUP2 MSTORE PUSH1 0x20 ADD DUP3 DUP1 SLOAD PUSH2 0x133A SWAP1 PUSH2 0x3178 JUMP JUMPDEST DUP1 ISZERO PUSH2 0x1387 JUMPI DUP1 PUSH1 0x1F LT PUSH2 0x135C JUMPI PUSH2 0x100 DUP1 DUP4 SLOAD DIV MUL DUP4 MSTORE SWAP2 PUSH1 0x20 ADD SWAP2 PUSH2 0x1387 JUMP JUMPDEST DUP3 ADD SWAP2 SWAP1 PUSH1 0x0 MSTORE PUSH1 0x20 PUSH1 0x0 KECCAK256 SWAP1 JUMPDEST DUP2 SLOAD DUP2 MSTORE SWAP1 PUSH1 0x1 ADD SWAP1 PUSH1 0x20 ADD DUP1 DUP4 GT PUSH2 0x136A JUMPI DUP3 SWAP1 SUB PUSH1 0x1F AND DUP3 ADD SWAP2 JUMPDEST POP POP POP POP POP DUP2 MSTORE PUSH1 0x20 ADD PUSH1 0x3 DUP3 ADD PUSH1 0x0 SWAP1 SLOAD SWAP1 PUSH2 0x100 EXP SWAP1 DIV PUSH20 0xFFFFFFFFFFFFFFFFFFFFFFFFFFFFFFFFFFFFFFFF AND PUSH20 0xFFFFFFFFFFFFFFFFFFFFFFFFFFFFFFFFFFFFFFFF AND PUSH20 0xFFFFFFFFFFFFFFFFFFFFFFFFFFFFFFFFFFFFFFFF AND DUP2 MSTORE PUSH1 0x20 ADD PUSH1 0x4 DUP3 ADD SLOAD DUP2 MSTORE PUSH1 0x20 ADD PUSH1 0x5 DUP3 ADD DUP1 SLOAD DUP1 PUSH1 0x20 MUL PUSH1 0x20 ADD PUSH1 0x40 MLOAD SWAP1 DUP2 ADD PUSH1 0x40 MSTORE DUP1 SWAP3 SWAP2 SWAP1 DUP2 DUP2 MSTORE PUSH1 0x20 ADD DUP3 DUP1 SLOAD DUP1 ISZERO PUSH2 0x1475 JUMPI PUSH1 0x20 MUL DUP3 ADD SWAP2 SWAP1 PUSH1 0x0 MSTORE PUSH1 0x20 PUSH1 0x0 KECCAK256 SWAP1 JUMPDEST DUP2 PUSH1 0x0 SWAP1 SLOAD SWAP1 PUSH2 0x100 EXP SWAP1 DIV PUSH20 0xFFFFFFFFFFFFFFFFFFFFFFFFFFFFFFFFFFFFFFFF AND PUSH20 0xFFFFFFFFFFFFFFFFFFFFFFFFFFFFFFFFFFFFFFFF AND DUP2 MSTORE PUSH1 0x20 ADD SWAP1 PUSH1 0x1 ADD SWAP1 DUP1 DUP4 GT PUSH2 0x142B JUMPI JUMPDEST POP POP POP POP POP DUP2 MSTORE POP POP SWAP1 POP PUSH1 0x7 PUSH1 0x0 CALLER PUSH20 0xFFFFFFFFFFFFFFFFFFFFFFFFFFFFFFFFFFFFFFFF AND PUSH20 0xFFFFFFFFFFFFFFFFFFFFFFFFFFFFFFFFFFFFFFFF AND DUP2 MSTORE PUSH1 0x20 ADD SWAP1 DUP2 MSTORE PUSH1 0x20 ADD PUSH1 0x0 KECCAK256 PUSH1 0x0 SWAP1 SLOAD SWAP1 PUSH2 0x100 EXP SWAP1 DIV PUSH1 0xFF AND PUSH2 0x1659 JUMPI PUSH1 0x6 PUSH1 0x0 DUP5 DUP2 MSTORE PUSH1 0x20 ADD SWAP1 DUP2 MSTORE PUSH1 0x20 ADD PUSH1 0x0 KECCAK256 DUP2 SWAP1 DUP1 PUSH1 0x1 DUP2 SLOAD ADD DUP1 DUP3 SSTORE DUP1 SWAP2 POP POP PUSH1 0x1 SWAP1 SUB SWAP1 PUSH1 0x0 MSTORE PUSH1 0x20 PUSH1 0x0 KECCAK256 SWAP1 PUSH1 0x6 MUL ADD PUSH1 0x0 SWAP1 SWAP2 SWAP1 SWAP2 SWAP1 SWAP2 POP PUSH1 0x0 DUP3 ADD MLOAD DUP2 PUSH1 0x0 ADD SSTORE PUSH1 0x20 DUP3 ADD MLOAD DUP2 PUSH1 0x1 ADD SWAP1 DUP2 PUSH2 0x152D SWAP2 SWAP1 PUSH2 0x3355 JUMP JUMPDEST POP PUSH1 0x40 DUP3 ADD MLOAD DUP2 PUSH1 0x2 ADD SWAP1 DUP2 PUSH2 0x1543 SWAP2 SWAP1 PUSH2 0x3355 JUMP JUMPDEST POP PUSH1 0x60 DUP3 ADD MLOAD DUP2 PUSH1 0x3 ADD PUSH1 0x0 PUSH2 0x100 EXP DUP2 SLOAD DUP2 PUSH20 0xFFFFFFFFFFFFFFFFFFFFFFFFFFFFFFFFFFFFFFFF MUL NOT AND SWAP1 DUP4 PUSH20 0xFFFFFFFFFFFFFFFFFFFFFFFFFFFFFFFFFFFFFFFF AND MUL OR SWAP1 SSTORE POP PUSH1 0x80 DUP3 ADD MLOAD DUP2 PUSH1 0x4 ADD SSTORE PUSH1 0xA0 DUP3 ADD MLOAD DUP2 PUSH1 0x5 ADD SWAP1 DUP1 MLOAD SWAP1 PUSH1 0x20 ADD SWAP1 PUSH2 0x15B1 SWAP3 SWAP2 SWAP1 PUSH2 0x23A8 JUMP JUMPDEST POP POP POP PUSH1 0x1 PUSH1 0x5 PUSH1 0x0 DUP6 DUP2 MSTORE PUSH1 0x20 ADD SWAP1 DUP2 MSTORE PUSH1 0x20 ADD PUSH1 0x0 KECCAK256 PUSH1 0x0 CALLER PUSH20 0xFFFFFFFFFFFFFFFFFFFFFFFFFFFFFFFFFFFFFFFF AND PUSH20 0xFFFFFFFFFFFFFFFFFFFFFFFFFFFFFFFFFFFFFFFF AND DUP2 MSTORE PUSH1 0x20 ADD SWAP1 DUP2 MSTORE PUSH1 0x20 ADD PUSH1 0x0 KECCAK256 PUSH1 0x0 PUSH2 0x100 EXP DUP2 SLOAD DUP2 PUSH1 0xFF MUL NOT AND SWAP1 DUP4 ISZERO ISZERO MUL OR SWAP1 SSTORE POP PUSH1 0x2 DUP4 DUP2 SLOAD DUP2 LT PUSH2 0x1631 JUMPI PUSH2 0x1630 PUSH2 0x3427 JUMP JUMPDEST JUMPDEST SWAP1 PUSH1 0x0 MSTORE PUSH1 0x20 PUSH1 0x0 KECCAK256 SWAP1 PUSH1 0xB MUL ADD PUSH1 0x5 ADD PUSH1 0x0 DUP2 SLOAD DUP1 SWAP3 SWAP2 SWAP1 PUSH2 0x1653 SWAP1 PUSH2 0x3101 JUMP JUMPDEST SWAP2 SWAP1 POP SSTORE POP JUMPDEST POP POP POP JUMP JUMPDEST PUSH1 0x0 SLOAD DUP2 JUMP JUMPDEST PUSH1 0x3 PUSH1 0x20 MSTORE DUP1 PUSH1 0x0 MSTORE PUSH1 0x40 PUSH1 0x0 KECCAK256 PUSH1 0x0 SWAP2 POP SWAP1 POP DUP1 PUSH1 0x0 ADD SLOAD SWAP1 DUP1 PUSH1 0x1 ADD DUP1 SLOAD PUSH2 0x168D SWAP1 PUSH2 0x3178 JUMP JUMPDEST DUP1 PUSH1 0x1F ADD PUSH1 0x20 DUP1 SWAP2 DIV MUL PUSH1 0x20 ADD PUSH1 0x40 MLOAD SWAP1 DUP2 ADD PUSH1 0x40 MSTORE DUP1 SWAP3 SWAP2 SWAP1 DUP2 DUP2 MSTORE PUSH1 0x20 ADD DUP3 DUP1 SLOAD PUSH2 0x16B9 SWAP1 PUSH2 0x3178 JUMP JUMPDEST DUP1 ISZERO PUSH2 0x1706 JUMPI DUP1 PUSH1 0x1F LT PUSH2 0x16DB JUMPI PUSH2 0x100 DUP1 DUP4 SLOAD DIV MUL DUP4 MSTORE SWAP2 PUSH1 0x20 ADD SWAP2 PUSH2 0x1706 JUMP JUMPDEST DUP3 ADD SWAP2 SWAP1 PUSH1 0x0 MSTORE PUSH1 0x20 PUSH1 0x0 KECCAK256 SWAP1 JUMPDEST DUP2 SLOAD DUP2 MSTORE SWAP1 PUSH1 0x1 ADD SWAP1 PUSH1 0x20 ADD DUP1 DUP4 GT PUSH2 0x16E9 JUMPI DUP3 SWAP1 SUB PUSH1 0x1F AND DUP3 ADD SWAP2 JUMPDEST POP POP POP POP POP SWAP1 DUP1 PUSH1 0x2 ADD DUP1 SLOAD PUSH2 0x171B SWAP1 PUSH2 0x3178 JUMP JUMPDEST DUP1 PUSH1 0x1F ADD PUSH1 0x20 DUP1 SWAP2 DIV MUL PUSH1 0x20 ADD PUSH1 0x40 MLOAD SWAP1 DUP2 ADD PUSH1 0x40 MSTORE DUP1 SWAP3 SWAP2 SWAP1 DUP2 DUP2 MSTORE PUSH1 0x20 ADD DUP3 DUP1 SLOAD PUSH2 0x1747 SWAP1 PUSH2 0x3178 JUMP JUMPDEST DUP1 ISZERO PUSH2 0x1794 JUMPI DUP1 PUSH1 0x1F LT PUSH2 0x1769 JUMPI PUSH2 0x100 DUP1 DUP4 SLOAD DIV MUL DUP4 MSTORE SWAP2 PUSH1 0x20 ADD SWAP2 PUSH2 0x1794 JUMP JUMPDEST DUP3 ADD SWAP2 SWAP1 PUSH1 0x0 MSTORE PUSH1 0x20 PUSH1 0x0 KECCAK256 SWAP1 JUMPDEST DUP2 SLOAD DUP2 MSTORE SWAP1 PUSH1 0x1 ADD SWAP1 PUSH1 0x20 ADD DUP1 DUP4 GT PUSH2 0x1777 JUMPI DUP3 SWAP1 SUB PUSH1 0x1F AND DUP3 ADD SWAP2 JUMPDEST POP POP POP POP POP SWAP1 DUP1 PUSH1 0x3 ADD PUSH1 0x0 SWAP1 SLOAD SWAP1 PUSH2 0x100 EXP SWAP1 DIV PUSH20 0xFFFFFFFFFFFFFFFFFFFFFFFFFFFFFFFFFFFFFFFF AND SWAP1 DUP1 PUSH1 0x4 ADD SLOAD SWAP1 POP DUP6 JUMP JUMPDEST PUSH1 0x1 SLOAD DUP2 JUMP JUMPDEST PUSH1 0x6 PUSH1 0x20 MSTORE DUP2 PUSH1 0x0 MSTORE PUSH1 0x40 PUSH1 0x0 KECCAK256 DUP2 DUP2 SLOAD DUP2 LT PUSH2 0x17EC JUMPI PUSH1 0x0 DUP1 REVERT JUMPDEST SWAP1 PUSH1 0x0 MSTORE PUSH1 0x20 PUSH1 0x0 KECCAK256 SWAP1 PUSH1 0x6 MUL ADD PUSH1 0x0 SWAP2 POP SWAP2 POP POP DUP1 PUSH1 0x0 ADD SLOAD SWAP1 DUP1 PUSH1 0x1 ADD DUP1 SLOAD PUSH2 0x1816 SWAP1 PUSH2 0x3178 JUMP JUMPDEST DUP1 PUSH1 0x1F ADD PUSH1 0x20 DUP1 SWAP2 DIV MUL PUSH1 0x20 ADD PUSH1 0x40 MLOAD SWAP1 DUP2 ADD PUSH1 0x40 MSTORE DUP1 SWAP3 SWAP2 SWAP1 DUP2 DUP2 MSTORE PUSH1 0x20 ADD DUP3 DUP1 SLOAD PUSH2 0x1842 SWAP1 PUSH2 0x3178 JUMP JUMPDEST DUP1 ISZERO PUSH2 0x188F JUMPI DUP1 PUSH1 0x1F LT PUSH2 0x1864 JUMPI PUSH2 0x100 DUP1 DUP4 SLOAD DIV MUL DUP4 MSTORE SWAP2 PUSH1 0x20 ADD SWAP2 PUSH2 0x188F JUMP JUMPDEST DUP3 ADD SWAP2 SWAP1 PUSH1 0x0 MSTORE PUSH1 0x20 PUSH1 0x0 KECCAK256 SWAP1 JUMPDEST DUP2 SLOAD DUP2 MSTORE SWAP1 PUSH1 0x1 ADD SWAP1 PUSH1 0x20 ADD DUP1 DUP4 GT PUSH2 0x1872 JUMPI DUP3 SWAP1 SUB PUSH1 0x1F AND DUP3 ADD SWAP2 JUMPDEST POP POP POP POP POP SWAP1 DUP1 PUSH1 0x2 ADD DUP1 SLOAD PUSH2 0x18A4 SWAP1 PUSH2 0x3178 JUMP JUMPDEST DUP1 PUSH1 0x1F ADD PUSH1 0x20 DUP1 SWAP2 DIV MUL PUSH1 0x20 ADD PUSH1 0x40 MLOAD SWAP1 DUP2 ADD PUSH1 0x40 MSTORE DUP1 SWAP3 SWAP2 SWAP1 DUP2 DUP2 MSTORE PUSH1 0x20 ADD DUP3 DUP1 SLOAD PUSH2 0x18D0 SWAP1 PUSH2 0x3178 JUMP JUMPDEST DUP1 ISZERO PUSH2 0x191D JUMPI DUP1 PUSH1 0x1F LT PUSH2 0x18F2 JUMPI PUSH2 0x100 DUP1 DUP4 SLOAD DIV MUL DUP4 MSTORE SWAP2 PUSH1 0x20 ADD SWAP2 PUSH2 0x191D JUMP JUMPDEST DUP3 ADD SWAP2 SWAP1 PUSH1 0x0 MSTORE PUSH1 0x20 PUSH1 0x0 KECCAK256 SWAP1 JUMPDEST DUP2 SLOAD DUP2 MSTORE SWAP1 PUSH1 0x1 ADD SWAP1 PUSH1 0x20 ADD DUP1 DUP4 GT PUSH2 0x1900 JUMPI DUP3 SWAP1 SUB PUSH1 0x1F AND DUP3 ADD SWAP2 JUMPDEST POP POP POP POP POP SWAP1 DUP1 PUSH1 0x3 ADD PUSH1 0x0 SWAP1 SLOAD SWAP1 PUSH2 0x100 EXP SWAP1 DIV PUSH20 0xFFFFFFFFFFFFFFFFFFFFFFFFFFFFFFFFFFFFFFFF AND SWAP1 DUP1 PUSH1 0x4 ADD SLOAD SWAP1 POP DUP6 JUMP JUMPDEST PUSH2 0x195B PUSH2 0x2432 JUMP JUMPDEST DUP2 PUSH1 0x8 PUSH1 0x0 DUP3 DUP2 MSTORE PUSH1 0x20 ADD SWAP1 DUP2 MSTORE PUSH1 0x20 ADD PUSH1 0x0 KECCAK256 PUSH1 0x0 SWAP1 SLOAD SWAP1 PUSH2 0x100 EXP SWAP1 DIV PUSH1 0xFF AND PUSH2 0x19BC JUMPI PUSH1 0x40 MLOAD PUSH32 0x8C379A000000000000000000000000000000000000000000000000000000000 DUP2 MSTORE PUSH1 0x4 ADD PUSH2 0x19B3 SWAP1 PUSH2 0x350E JUMP JUMPDEST PUSH1 0x40 MLOAD DUP1 SWAP2 SUB SWAP1 REVERT JUMPDEST PUSH1 0x2 DUP4 DUP2 SLOAD DUP2 LT PUSH2 0x19D0 JUMPI PUSH2 0x19CF PUSH2 0x3427 JUMP JUMPDEST JUMPDEST SWAP1 PUSH1 0x0 MSTORE PUSH1 0x20 PUSH1 0x0 KECCAK256 SWAP1 PUSH1 0xB MUL ADD PUSH1 0x40 MLOAD DUP1 PUSH2 0x180 ADD PUSH1 0x40 MSTORE SWAP1 DUP2 PUSH1 0x0 DUP3 ADD SLOAD DUP2 MSTORE PUSH1 0x20 ADD PUSH1 0x1 DUP3 ADD DUP1 SLOAD PUSH2 0x1A04 SWAP1 PUSH2 0x3178 JUMP JUMPDEST DUP1 PUSH1 0x1F ADD PUSH1 0x20 DUP1 SWAP2 DIV MUL PUSH1 0x20 ADD PUSH1 0x40 MLOAD SWAP1 DUP2 ADD PUSH1 0x40 MSTORE DUP1 SWAP3 SWAP2 SWAP1 DUP2 DUP2 MSTORE PUSH1 0x20 ADD DUP3 DUP1 SLOAD PUSH2 0x1A30 SWAP1 PUSH2 0x3178 JUMP JUMPDEST DUP1 ISZERO PUSH2 0x1A7D JUMPI DUP1 PUSH1 0x1F LT PUSH2 0x1A52 JUMPI PUSH2 0x100 DUP1 DUP4 SLOAD DIV MUL DUP4 MSTORE SWAP2 PUSH1 0x20 ADD SWAP2 PUSH2 0x1A7D JUMP JUMPDEST DUP3 ADD SWAP2 SWAP1 PUSH1 0x0 MSTORE PUSH1 0x20 PUSH1 0x0 KECCAK256 SWAP1 JUMPDEST DUP2 SLOAD DUP2 MSTORE SWAP1 PUSH1 0x1 ADD SWAP1 PUSH1 0x20 ADD DUP1 DUP4 GT PUSH2 0x1A60 JUMPI DUP3 SWAP1 SUB PUSH1 0x1F AND DUP3 ADD SWAP2 JUMPDEST POP POP POP POP POP DUP2 MSTORE PUSH1 0x20 ADD PUSH1 0x2 DUP3 ADD DUP1 SLOAD PUSH2 0x1A96 SWAP1 PUSH2 0x3178 JUMP JUMPDEST DUP1 PUSH1 0x1F ADD PUSH1 0x20 DUP1 SWAP2 DIV MUL PUSH1 0x20 ADD PUSH1 0x40 MLOAD SWAP1 DUP2 ADD PUSH1 0x40 MSTORE DUP1 SWAP3 SWAP2 SWAP1 DUP2 DUP2 MSTORE PUSH1 0x20 ADD DUP3 DUP1 SLOAD PUSH2 0x1AC2 SWAP1 PUSH2 0x3178 JUMP JUMPDEST DUP1 ISZERO PUSH2 0x1B0F JUMPI DUP1 PUSH1 0x1F LT PUSH2 0x1AE4 JUMPI PUSH2 0x100 DUP1 DUP4 SLOAD DIV MUL DUP4 MSTORE SWAP2 PUSH1 0x20 ADD SWAP2 PUSH2 0x1B0F JUMP JUMPDEST DUP3 ADD SWAP2 SWAP1 PUSH1 0x0 MSTORE PUSH1 0x20 PUSH1 0x0 KECCAK256 SWAP1 JUMPDEST DUP2 SLOAD DUP2 MSTORE SWAP1 PUSH1 0x1 ADD SWAP1 PUSH1 0x20 ADD DUP1 DUP4 GT PUSH2 0x1AF2 JUMPI DUP3 SWAP1 SUB PUSH1 0x1F AND DUP3 ADD SWAP2 JUMPDEST POP POP POP POP POP DUP2 MSTORE PUSH1 0x20 ADD PUSH1 0x3 DUP3 ADD DUP1 SLOAD PUSH2 0x1B28 SWAP1 PUSH2 0x3178 JUMP JUMPDEST DUP1 PUSH1 0x1F ADD PUSH1 0x20 DUP1 SWAP2 DIV MUL PUSH1 0x20 ADD PUSH1 0x40 MLOAD SWAP1 DUP2 ADD PUSH1 0x40 MSTORE DUP1 SWAP3 SWAP2 SWAP1 DUP2 DUP2 MSTORE PUSH1 0x20 ADD DUP3 DUP1 SLOAD PUSH2 0x1B54 SWAP1 PUSH2 0x3178 JUMP JUMPDEST DUP1 ISZERO PUSH2 0x1BA1 JUMPI DUP1 PUSH1 0x1F LT PUSH2 0x1B76 JUMPI PUSH2 0x100 DUP1 DUP4 SLOAD DIV MUL DUP4 MSTORE SWAP2 PUSH1 0x20 ADD SWAP2 PUSH2 0x1BA1 JUMP JUMPDEST DUP3 ADD SWAP2 SWAP1 PUSH1 0x0 MSTORE PUSH1 0x20 PUSH1 0x0 KECCAK256 SWAP1 JUMPDEST DUP2 SLOAD DUP2 MSTORE SWAP1 PUSH1 0x1 ADD SWAP1 PUSH1 0x20 ADD DUP1 DUP4 GT PUSH2 0x1B84 JUMPI DUP3 SWAP1 SUB PUSH1 0x1F AND DUP3 ADD SWAP2 JUMPDEST POP POP POP POP POP DUP2 MSTORE PUSH1 0x20 ADD PUSH1 0x4 DUP3 ADD SLOAD DUP2 MSTORE PUSH1 0x20 ADD PUSH1 0x5 DUP3 ADD SLOAD DUP2 MSTORE PUSH1 0x20 ADD PUSH1 0x6 DUP3 ADD PUSH1 0x0 SWAP1 SLOAD SWAP1 PUSH2 0x100 EXP SWAP1 DIV PUSH1 0xFF AND ISZERO ISZERO ISZERO ISZERO DUP2 MSTORE PUSH1 0x20 ADD PUSH1 0x6 DUP3 ADD PUSH1 0x1 SWAP1 SLOAD SWAP1 PUSH2 0x100 EXP SWAP1 DIV PUSH20 0xFFFFFFFFFFFFFFFFFFFFFFFFFFFFFFFFFFFFFFFF AND PUSH20 0xFFFFFFFFFFFFFFFFFFFFFFFFFFFFFFFFFFFFFFFF AND PUSH20 0xFFFFFFFFFFFFFFFFFFFFFFFFFFFFFFFFFFFFFFFF AND DUP2 MSTORE PUSH1 0x20 ADD PUSH1 0x7 DUP3 ADD SLOAD DUP2 MSTORE PUSH1 0x20 ADD PUSH1 0x8 DUP3 ADD SLOAD DUP2 MSTORE PUSH1 0x20 ADD PUSH1 0x9 DUP3 ADD SLOAD DUP2 MSTORE PUSH1 0x20 ADD PUSH1 0xA DUP3 ADD SLOAD DUP2 MSTORE POP POP SWAP2 POP POP SWAP2 SWAP1 POP JUMP JUMPDEST PUSH1 0x60 DUP2 PUSH1 0x8 PUSH1 0x0 DUP3 DUP2 MSTORE PUSH1 0x20 ADD SWAP1 DUP2 MSTORE PUSH1 0x20 ADD PUSH1 0x0 KECCAK256 PUSH1 0x0 SWAP1 SLOAD SWAP1 PUSH2 0x100 EXP SWAP1 DIV PUSH1 0xFF AND PUSH2 0x1CC2 JUMPI PUSH1 0x40 MLOAD PUSH32 0x8C379A000000000000000000000000000000000000000000000000000000000 DUP2 MSTORE PUSH1 0x4 ADD PUSH2 0x1CB9 SWAP1 PUSH2 0x350E JUMP JUMPDEST PUSH1 0x40 MLOAD DUP1 SWAP2 SUB SWAP1 REVERT JUMPDEST PUSH1 0x6 PUSH1 0x0 DUP5 DUP2 MSTORE PUSH1 0x20 ADD SWAP1 DUP2 MSTORE PUSH1 0x20 ADD PUSH1 0x0 KECCAK256 DUP1 SLOAD DUP1 PUSH1 0x20 MUL PUSH1 0x20 ADD PUSH1 0x40 MLOAD SWAP1 DUP2 ADD PUSH1 0x40 MSTORE DUP1 SWAP3 SWAP2 SWAP1 DUP2 DUP2 MSTORE PUSH1 0x20 ADD PUSH1 0x0 SWAP1 JUMPDEST DUP3 DUP3 LT ISZERO PUSH2 0x1F43 JUMPI DUP4 DUP3 SWAP1 PUSH1 0x0 MSTORE PUSH1 0x20 PUSH1 0x0 KECCAK256 SWAP1 PUSH1 0x6 MUL ADD PUSH1 0x40 MLOAD DUP1 PUSH1 0xC0 ADD PUSH1 0x40 MSTORE SWAP1 DUP2 PUSH1 0x0 DUP3 ADD SLOAD DUP2 MSTORE PUSH1 0x20 ADD PUSH1 0x1 DUP3 ADD DUP1 SLOAD PUSH2 0x1D32 SWAP1 PUSH2 0x3178 JUMP JUMPDEST DUP1 PUSH1 0x1F ADD PUSH1 0x20 DUP1 SWAP2 DIV MUL PUSH1 0x20 ADD PUSH1 0x40 MLOAD SWAP1 DUP2 ADD PUSH1 0x40 MSTORE DUP1 SWAP3 SWAP2 SWAP1 DUP2 DUP2 MSTORE PUSH1 0x20 ADD DUP3 DUP1 SLOAD PUSH2 0x1D5E SWAP1 PUSH2 0x3178 JUMP JUMPDEST DUP1 ISZERO PUSH2 0x1DAB JUMPI DUP1 PUSH1 0x1F LT PUSH2 0x1D80 JUMPI PUSH2 0x100 DUP1 DUP4 SLOAD DIV MUL DUP4 MSTORE SWAP2 PUSH1 0x20 ADD SWAP2 PUSH2 0x1DAB JUMP JUMPDEST DUP3 ADD SWAP2 SWAP1 PUSH1 0x0 MSTORE PUSH1 0x20 PUSH1 0x0 KECCAK256 SWAP1 JUMPDEST DUP2 SLOAD DUP2 MSTORE SWAP1 PUSH1 0x1 ADD SWAP1 PUSH1 0x20 ADD DUP1 DUP4 GT PUSH2 0x1D8E JUMPI DUP3 SWAP1 SUB PUSH1 0x1F AND DUP3 ADD SWAP2 JUMPDEST POP POP POP POP POP DUP2 MSTORE PUSH1 0x20 ADD PUSH1 0x2 DUP3 ADD DUP1 SLOAD PUSH2 0x1DC4 SWAP1 PUSH2 0x3178 JUMP JUMPDEST DUP1 PUSH1 0x1F ADD PUSH1 0x20 DUP1 SWAP2 DIV MUL PUSH1 0x20 ADD PUSH1 0x40 MLOAD SWAP1 DUP2 ADD PUSH1 0x40 MSTORE DUP1 SWAP3 SWAP2 SWAP1 DUP2 DUP2 MSTORE PUSH1 0x20 ADD DUP3 DUP1 SLOAD PUSH2 0x1DF0 SWAP1 PUSH2 0x3178 JUMP JUMPDEST DUP1 ISZERO PUSH2 0x1E3D JUMPI DUP1 PUSH1 0x1F LT PUSH2 0x1E12 JUMPI PUSH2 0x100 DUP1 DUP4 SLOAD DIV MUL DUP4 MSTORE SWAP2 PUSH1 0x20 ADD SWAP2 PUSH2 0x1E3D JUMP JUMPDEST DUP3 ADD SWAP2 SWAP1 PUSH1 0x0 MSTORE PUSH1 0x20 PUSH1 0x0 KECCAK256 SWAP1 JUMPDEST DUP2 SLOAD DUP2 MSTORE SWAP1 PUSH1 0x1 ADD SWAP1 PUSH1 0x20 ADD DUP1 DUP4 GT PUSH2 0x1E20 JUMPI DUP3 SWAP1 SUB PUSH1 0x1F AND DUP3 ADD SWAP2 JUMPDEST POP POP POP POP POP DUP2 MSTORE PUSH1 0x20 ADD PUSH1 0x3 DUP3 ADD PUSH1 0x0 SWAP1 SLOAD SWAP1 PUSH2 0x100 EXP SWAP1 DIV PUSH20 0xFFFFFFFFFFFFFFFFFFFFFFFFFFFFFFFFFFFFFFFF AND PUSH20 0xFFFFFFFFFFFFFFFFFFFFFFFFFFFFFFFFFFFFFFFF AND PUSH20 0xFFFFFFFFFFFFFFFFFFFFFFFFFFFFFFFFFFFFFFFF AND DUP2 MSTORE PUSH1 0x20 ADD PUSH1 0x4 DUP3 ADD SLOAD DUP2 MSTORE PUSH1 0x20 ADD PUSH1 0x5 DUP3 ADD DUP1 SLOAD DUP1 PUSH1 0x20 MUL PUSH1 0x20 ADD PUSH1 0x40 MLOAD SWAP1 DUP2 ADD PUSH1 0x40 MSTORE DUP1 SWAP3 SWAP2 SWAP1 DUP2 DUP2 MSTORE PUSH1 0x20 ADD DUP3 DUP1 SLOAD DUP1 ISZERO PUSH2 0x1F2B JUMPI PUSH1 0x20 MUL DUP3 ADD SWAP2 SWAP1 PUSH1 0x0 MSTORE PUSH1 0x20 PUSH1 0x0 KECCAK256 SWAP1 JUMPDEST DUP2 PUSH1 0x0 SWAP1 SLOAD SWAP1 PUSH2 0x100 EXP SWAP1 DIV PUSH20 0xFFFFFFFFFFFFFFFFFFFFFFFFFFFFFFFFFFFFFFFF AND PUSH20 0xFFFFFFFFFFFFFFFFFFFFFFFFFFFFFFFFFFFFFFFF AND DUP2 MSTORE PUSH1 0x20 ADD SWAP1 PUSH1 0x1 ADD SWAP1 DUP1 DUP4 GT PUSH2 0x1EE1 JUMPI JUMPDEST POP POP POP POP POP DUP2 MSTORE POP POP DUP2 MSTORE PUSH1 0x20 ADD SWAP1 PUSH1 0x1 ADD SWAP1 PUSH2 0x1CF5 JUMP JUMPDEST POP POP POP POP SWAP2 POP POP SWAP2 SWAP1 POP JUMP JUMPDEST PUSH1 0x5 PUSH1 0x20 MSTORE DUP2 PUSH1 0x0 MSTORE PUSH1 0x40 PUSH1 0x0 KECCAK256 PUSH1 0x20 MSTORE DUP1 PUSH1 0x0 MSTORE PUSH1 0x40 PUSH1 0x0 KECCAK256 PUSH1 0x0 SWAP2 POP SWAP2 POP SWAP1 SLOAD SWAP1 PUSH2 0x100 EXP SWAP1 DIV PUSH1 0xFF AND DUP2 JUMP JUMPDEST CALLER PUSH20 0xFFFFFFFFFFFFFFFFFFFFFFFFFFFFFFFFFFFFFFFF AND PUSH1 0x3 PUSH1 0x0 CALLER PUSH20 0xFFFFFFFFFFFFFFFFFFFFFFFFFFFFFFFFFFFFFFFF AND PUSH20 0xFFFFFFFFFFFFFFFFFFFFFFFFFFFFFFFFFFFFFFFF AND DUP2 MSTORE PUSH1 0x20 ADD SWAP1 DUP2 MSTORE PUSH1 0x20 ADD PUSH1 0x0 KECCAK256 PUSH1 0x3 ADD PUSH1 0x0 SWAP1 SLOAD SWAP1 PUSH2 0x100 EXP SWAP1 DIV PUSH20 0xFFFFFFFFFFFFFFFFFFFFFFFFFFFFFFFFFFFFFFFF AND PUSH20 0xFFFFFFFFFFFFFFFFFFFFFFFFFFFFFFFFFFFFFFFF AND EQ PUSH2 0x204E JUMPI PUSH1 0x40 MLOAD PUSH32 0x8C379A000000000000000000000000000000000000000000000000000000000 DUP2 MSTORE PUSH1 0x4 ADD PUSH2 0x2045 SWAP1 PUSH2 0x357A JUMP JUMPDEST PUSH1 0x40 MLOAD DUP1 SWAP2 SUB SWAP1 REVERT JUMPDEST PUSH1 0x0 DUP6 MLOAD GT PUSH2 0x2092 JUMPI PUSH1 0x40 MLOAD PUSH32 0x8C379A000000000000000000000000000000000000000000000000000000000 DUP2 MSTORE PUSH1 0x4 ADD PUSH2 0x2089 SWAP1 PUSH2 0x3796 JUMP JUMPDEST PUSH1 0x40 MLOAD DUP1 SWAP2 SUB SWAP1 REVERT JUMPDEST PUSH1 0x0 DUP5 MLOAD GT PUSH2 0x20D6 JUMPI PUSH1 0x40 MLOAD PUSH32 0x8C379A000000000000000000000000000000000000000000000000000000000 DUP2 MSTORE PUSH1 0x4 ADD PUSH2 0x20CD SWAP1 PUSH2 0x3802 JUMP JUMPDEST PUSH1 0x40 MLOAD DUP1 SWAP2 SUB SWAP1 REVERT JUMPDEST PUSH1 0x0 DUP4 MLOAD GT PUSH2 0x211A JUMPI PUSH1 0x40 MLOAD PUSH32 0x8C379A000000000000000000000000000000000000000000000000000000000 DUP2 MSTORE PUSH1 0x4 ADD PUSH2 0x2111 SWAP1 PUSH2 0x386E JUMP JUMPDEST PUSH1 0x40 MLOAD DUP1 SWAP2 SUB SWAP1 REVERT JUMPDEST PUSH1 0x0 DUP2 GT DUP1 ISZERO PUSH2 0x2129 JUMPI POP DUP2 DUP2 GT JUMPDEST PUSH2 0x2168 JUMPI PUSH1 0x40 MLOAD PUSH32 0x8C379A000000000000000000000000000000000000000000000000000000000 DUP2 MSTORE PUSH1 0x4 ADD PUSH2 0x215F SWAP1 PUSH2 0x38DA JUMP JUMPDEST PUSH1 0x40 MLOAD DUP1 SWAP2 SUB SWAP1 REVERT JUMPDEST PUSH2 0x2170 PUSH2 0x2432 JUMP JUMPDEST PUSH1 0x0 DUP1 DUP2 SLOAD DUP1 SWAP3 SWAP2 SWAP1 PUSH2 0x2182 SWAP1 PUSH2 0x3101 JUMP JUMPDEST SWAP2 SWAP1 POP SSTORE DUP2 PUSH1 0x0 ADD DUP2 DUP2 MSTORE POP POP DUP5 DUP2 PUSH1 0x40 ADD DUP2 SWAP1 MSTORE POP DUP4 DUP2 PUSH1 0x60 ADD DUP2 SWAP1 MSTORE POP DUP6 DUP2 PUSH1 0x20 ADD DUP2 SWAP1 MSTORE POP DUP3 DUP2 PUSH2 0x100 ADD DUP2 DUP2 MSTORE POP POP DUP2 DUP2 PUSH2 0x120 ADD DUP2 DUP2 MSTORE POP POP CALLER DUP2 PUSH1 0xE0 ADD SWAP1 PUSH20 0xFFFFFFFFFFFFFFFFFFFFFFFFFFFFFFFFFFFFFFFF AND SWAP1 DUP2 PUSH20 0xFFFFFFFFFFFFFFFFFFFFFFFFFFFFFFFFFFFFFFFF AND DUP2 MSTORE POP POP TIMESTAMP DUP2 PUSH2 0x140 ADD DUP2 DUP2 MSTORE POP POP PUSH1 0x2 DUP2 SWAP1 DUP1 PUSH1 0x1 DUP2 SLOAD ADD DUP1 DUP3 SSTORE DUP1 SWAP2 POP POP PUSH1 0x1 SWAP1 SUB SWAP1 PUSH1 0x0 MSTORE PUSH1 0x20 PUSH1 0x0 KECCAK256 SWAP1 PUSH1 0xB MUL ADD PUSH1 0x0 SWAP1 SWAP2 SWAP1 SWAP2 SWAP1 SWAP2 POP PUSH1 0x0 DUP3 ADD MLOAD DUP2 PUSH1 0x0 ADD SSTORE PUSH1 0x20 DUP3 ADD MLOAD DUP2 PUSH1 0x1 ADD SWAP1 DUP2 PUSH2 0x224E SWAP2 SWAP1 PUSH2 0x3355 JUMP JUMPDEST POP PUSH1 0x40 DUP3 ADD MLOAD DUP2 PUSH1 0x2 ADD SWAP1 DUP2 PUSH2 0x2264 SWAP2 SWAP1 PUSH2 0x3355 JUMP JUMPDEST POP PUSH1 0x60 DUP3 ADD MLOAD DUP2 PUSH1 0x3 ADD SWAP1 DUP2 PUSH2 0x227A SWAP2 SWAP1 PUSH2 0x3355 JUMP JUMPDEST POP PUSH1 0x80 DUP3 ADD MLOAD DUP2 PUSH1 0x4 ADD SSTORE PUSH1 0xA0 DUP3 ADD MLOAD DUP2 PUSH1 0x5 ADD SSTORE PUSH1 0xC0 DUP3 ADD MLOAD DUP2 PUSH1 0x6 ADD PUSH1 0x0 PUSH2 0x100 EXP DUP2 SLOAD DUP2 PUSH1 0xFF MUL NOT AND SWAP1 DUP4 ISZERO ISZERO MUL OR SWAP1 SSTORE POP PUSH1 0xE0 DUP3 ADD MLOAD DUP2 PUSH1 0x6 ADD PUSH1 0x1 PUSH2 0x100 EXP DUP2 SLOAD DUP2 PUSH20 0xFFFFFFFFFFFFFFFFFFFFFFFFFFFFFFFFFFFFFFFF MUL NOT AND SWAP1 DUP4 PUSH20 0xFFFFFFFFFFFFFFFFFFFFFFFFFFFFFFFFFFFFFFFF AND MUL OR SWAP1 SSTORE POP PUSH2 0x100 DUP3 ADD MLOAD DUP2 PUSH1 0x7 ADD SSTORE PUSH2 0x120 DUP3 ADD MLOAD DUP2 PUSH1 0x8 ADD SSTORE PUSH2 0x140 DUP3 ADD MLOAD DUP2 PUSH1 0x9 ADD SSTORE PUSH2 0x160 DUP3 ADD MLOAD DUP2 PUSH1 0xA ADD SSTORE POP POP PUSH1 0x1 PUSH1 0x8 PUSH1 0x0 DUP4 PUSH1 0x0 ADD MLOAD DUP2 MSTORE PUSH1 0x20 ADD SWAP1 DUP2 MSTORE PUSH1 0x20 ADD PUSH1 0x0 KECCAK256 PUSH1 0x0 PUSH2 0x100 EXP DUP2 SLOAD DUP2 PUSH1 0xFF MUL NOT AND SWAP1 DUP4 ISZERO ISZERO MUL OR SWAP1 SSTORE POP POP POP POP POP POP POP JUMP JUMPDEST PUSH1 0x40 MLOAD DUP1 PUSH1 0xC0 ADD PUSH1 0x40 MSTORE DUP1 PUSH1 0x0 DUP2 MSTORE PUSH1 0x20 ADD PUSH1 0x60 DUP2 MSTORE PUSH1 0x20 ADD PUSH1 0x60 DUP2 MSTORE PUSH1 0x20 ADD PUSH1 0x0 PUSH20 0xFFFFFFFFFFFFFFFFFFFFFFFFFFFFFFFFFFFFFFFF AND DUP2 MSTORE PUSH1 0x20 ADD PUSH1 0x0 DUP2 MSTORE PUSH1 0x20 ADD PUSH1 0x60 DUP2 MSTORE POP SWAP1 JUMP JUMPDEST DUP3 DUP1 SLOAD DUP3 DUP3 SSTORE SWAP1 PUSH1 0x0 MSTORE PUSH1 0x20 PUSH1 0x0 KECCAK256 SWAP1 DUP2 ADD SWAP3 DUP3 ISZERO PUSH2 0x2421 JUMPI SWAP2 PUSH1 0x20 MUL DUP3 ADD JUMPDEST DUP3 DUP2 GT ISZERO PUSH2 0x2420 JUMPI DUP3 MLOAD DUP3 PUSH1 0x0 PUSH2 0x100 EXP DUP2 SLOAD DUP2 PUSH20 0xFFFFFFFFFFFFFFFFFFFFFFFFFFFFFFFFFFFFFFFF MUL NOT AND SWAP1 DUP4 PUSH20 0xFFFFFFFFFFFFFFFFFFFFFFFFFFFFFFFFFFFFFFFF AND MUL OR SWAP1 SSTORE POP SWAP2 PUSH1 0x20 ADD SWAP2 SWAP1 PUSH1 0x1 ADD SWAP1 PUSH2 0x23C8 JUMP JUMPDEST JUMPDEST POP SWAP1 POP PUSH2 0x242E SWAP2 SWAP1 PUSH2 0x24AB JUMP JUMPDEST POP SWAP1 JUMP JUMPDEST PUSH1 0x40 MLOAD DUP1 PUSH2 0x180 ADD PUSH1 0x40 MSTORE DUP1 PUSH1 0x0 DUP2 MSTORE PUSH1 0x20 ADD PUSH1 0x60 DUP2 MSTORE PUSH1 0x20 ADD PUSH1 0x60 DUP2 MSTORE PUSH1 0x20 ADD PUSH1 0x60 DUP2 MSTORE PUSH1 0x20 ADD PUSH1 0x0 DUP2 MSTORE PUSH1 0x20 ADD PUSH1 0x0 DUP2 MSTORE PUSH1 0x20 ADD PUSH1 0x0 ISZERO ISZERO DUP2 MSTORE PUSH1 0x20 ADD PUSH1 0x0 PUSH20 0xFFFFFFFFFFFFFFFFFFFFFFFFFFFFFFFFFFFFFFFF AND DUP2 MSTORE PUSH1 0x20 ADD PUSH1 0x0 DUP2 MSTORE PUSH1 0x20 ADD PUSH1 0x0 DUP2 MSTORE PUSH1 0x20 ADD PUSH1 0x0 DUP2 MSTORE PUSH1 0x20 ADD PUSH1 0x0 DUP2 MSTORE POP SWAP1 JUMP JUMPDEST JUMPDEST DUP1 DUP3 GT ISZERO PUSH2 0x24C4 JUMPI PUSH1 0x0 DUP2 PUSH1 0x0 SWAP1 SSTORE POP PUSH1 0x1 ADD PUSH2 0x24AC JUMP JUMPDEST POP SWAP1 JUMP JUMPDEST PUSH1 0x0 PUSH1 0x40 MLOAD SWAP1 POP SWAP1 JUMP JUMPDEST PUSH1 0x0 DUP1 REVERT JUMPDEST PUSH1 0x0 DUP1 REVERT JUMPDEST PUSH1 0x0 DUP1 REVERT JUMPDEST PUSH1 0x0 DUP1 REVERT JUMPDEST PUSH1 0x0 PUSH1 0x1F NOT PUSH1 0x1F DUP4 ADD AND SWAP1 POP SWAP2 SWAP1 POP JUMP JUMPDEST PUSH32 0x4E487B7100000000000000000000000000000000000000000000000000000000 PUSH1 0x0 MSTORE PUSH1 0x41 PUSH1 0x4 MSTORE PUSH1 0x24 PUSH1 0x0 REVERT JUMPDEST PUSH2 0x252F DUP3 PUSH2 0x24E6 JUMP JUMPDEST DUP2 ADD DUP2 DUP2 LT PUSH8 0xFFFFFFFFFFFFFFFF DUP3 GT OR ISZERO PUSH2 0x254E JUMPI PUSH2 0x254D PUSH2 0x24F7 JUMP JUMPDEST JUMPDEST DUP1 PUSH1 0x40 MSTORE POP POP POP JUMP JUMPDEST PUSH1 0x0 PUSH2 0x2561 PUSH2 0x24C8 JUMP JUMPDEST SWAP1 POP PUSH2 0x256D DUP3 DUP3 PUSH2 0x2526 JUMP JUMPDEST SWAP2 SWAP1 POP JUMP JUMPDEST PUSH1 0x0 PUSH8 0xFFFFFFFFFFFFFFFF DUP3 GT ISZERO PUSH2 0x258D JUMPI PUSH2 0x258C PUSH2 0x24F7 JUMP JUMPDEST JUMPDEST PUSH2 0x2596 DUP3 PUSH2 0x24E6 JUMP JUMPDEST SWAP1 POP PUSH1 0x20 DUP2 ADD SWAP1 POP SWAP2 SWAP1 POP JUMP JUMPDEST DUP3 DUP2 DUP4 CALLDATACOPY PUSH1 0x0 DUP4 DUP4 ADD MSTORE POP POP POP JUMP JUMPDEST PUSH1 0x0 PUSH2 0x25C5 PUSH2 0x25C0 DUP5 PUSH2 0x2572 JUMP JUMPDEST PUSH2 0x2557 JUMP JUMPDEST SWAP1 POP DUP3 DUP2 MSTORE PUSH1 0x20 DUP2 ADD DUP5 DUP5 DUP5 ADD GT ISZERO PUSH2 0x25E1 JUMPI PUSH2 0x25E0 PUSH2 0x24E1 JUMP JUMPDEST JUMPDEST PUSH2 0x25EC DUP5 DUP3 DUP6 PUSH2 0x25A3 JUMP JUMPDEST POP SWAP4 SWAP3 POP POP POP JUMP JUMPDEST PUSH1 0x0 DUP3 PUSH1 0x1F DUP4 ADD SLT PUSH2 0x2609 JUMPI PUSH2 0x2608 PUSH2 0x24DC JUMP JUMPDEST JUMPDEST DUP2 CALLDATALOAD PUSH2 0x2619 DUP5 DUP3 PUSH1 0x20 DUP7 ADD PUSH2 0x25B2 JUMP JUMPDEST SWAP2 POP POP SWAP3 SWAP2 POP POP JUMP JUMPDEST PUSH1 0x0 DUP1 PUSH1 0x40 DUP4 DUP6 SUB SLT ISZERO PUSH2 0x2639 JUMPI PUSH2 0x2638 PUSH2 0x24D2 JUMP JUMPDEST JUMPDEST PUSH1 0x0 DUP4 ADD CALLDATALOAD PUSH8 0xFFFFFFFFFFFFFFFF DUP2 GT ISZERO PUSH2 0x2657 JUMPI PUSH2 0x2656 PUSH2 0x24D7 JUMP JUMPDEST JUMPDEST PUSH2 0x2663 DUP6 DUP3 DUP7 ADD PUSH2 0x25F4 JUMP JUMPDEST SWAP3 POP POP PUSH1 0x20 DUP4 ADD CALLDATALOAD PUSH8 0xFFFFFFFFFFFFFFFF DUP2 GT ISZERO PUSH2 0x2684 JUMPI PUSH2 0x2683 PUSH2 0x24D7 JUMP JUMPDEST JUMPDEST PUSH2 0x2690 DUP6 DUP3 DUP7 ADD PUSH2 0x25F4 JUMP JUMPDEST SWAP2 POP POP SWAP3 POP SWAP3 SWAP1 POP JUMP JUMPDEST PUSH1 0x0 DUP2 MLOAD SWAP1 POP SWAP2 SWAP1 POP JUMP JUMPDEST PUSH1 0x0 DUP3 DUP3 MSTORE PUSH1 0x20 DUP3 ADD SWAP1 POP SWAP3 SWAP2 POP POP JUMP JUMPDEST PUSH1 0x0 DUP2 SWAP1 POP PUSH1 0x20 DUP3 ADD SWAP1 POP SWAP2 SWAP1 POP JUMP JUMPDEST PUSH1 0x0 DUP2 SWAP1 POP SWAP2 SWAP1 POP JUMP JUMPDEST PUSH2 0x26D9 DUP2 PUSH2 0x26C6 JUMP JUMPDEST DUP3 MSTORE POP POP JUMP JUMPDEST PUSH1 0x0 DUP2 MLOAD SWAP1 POP SWAP2 SWAP1 POP JUMP JUMPDEST PUSH1 0x0 DUP3 DUP3 MSTORE PUSH1 0x20 DUP3 ADD SWAP1 POP SWAP3 SWAP2 POP POP JUMP JUMPDEST PUSH1 0x0 JUMPDEST DUP4 DUP2 LT ISZERO PUSH2 0x2719 JUMPI DUP1 DUP3 ADD MLOAD DUP2 DUP5 ADD MSTORE PUSH1 0x20 DUP2 ADD SWAP1 POP PUSH2 0x26FE JUMP JUMPDEST PUSH1 0x0 DUP5 DUP5 ADD MSTORE POP POP POP POP JUMP JUMPDEST PUSH1 0x0 PUSH2 0x2730 DUP3 PUSH2 0x26DF JUMP JUMPDEST PUSH2 0x273A DUP2 DUP6 PUSH2 0x26EA JUMP JUMPDEST SWAP4 POP PUSH2 0x274A DUP2 DUP6 PUSH1 0x20 DUP7 ADD PUSH2 0x26FB JUMP JUMPDEST PUSH2 0x2753 DUP2 PUSH2 0x24E6 JUMP JUMPDEST DUP5 ADD SWAP2 POP POP SWAP3 SWAP2 POP POP JUMP JUMPDEST PUSH1 0x0 DUP2 ISZERO ISZERO SWAP1 POP SWAP2 SWAP1 POP JUMP JUMPDEST PUSH2 0x2773 DUP2 PUSH2 0x275E JUMP JUMPDEST DUP3 MSTORE POP POP JUMP JUMPDEST PUSH1 0x0 PUSH20 0xFFFFFFFFFFFFFFFFFFFFFFFFFFFFFFFFFFFFFFFF DUP3 AND SWAP1 POP SWAP2 SWAP1 POP JUMP JUMPDEST PUSH1 0x0 PUSH2 0x27A4 DUP3 PUSH2 0x2779 JUMP JUMPDEST SWAP1 POP SWAP2 SWAP1 POP JUMP JUMPDEST PUSH2 0x27B4 DUP2 PUSH2 0x2799 JUMP JUMPDEST DUP3 MSTORE POP POP JUMP JUMPDEST PUSH1 0x0 PUSH2 0x180 DUP4 ADD PUSH1 0x0 DUP4 ADD MLOAD PUSH2 0x27D3 PUSH1 0x0 DUP7 ADD DUP3 PUSH2 0x26D0 JUMP JUMPDEST POP PUSH1 0x20 DUP4 ADD MLOAD DUP5 DUP3 SUB PUSH1 0x20 DUP7 ADD MSTORE PUSH2 0x27EB DUP3 DUP3 PUSH2 0x2725 JUMP JUMPDEST SWAP2 POP POP PUSH1 0x40 DUP4 ADD MLOAD DUP5 DUP3 SUB PUSH1 0x40 DUP7 ADD MSTORE PUSH2 0x2805 DUP3 DUP3 PUSH2 0x2725 JUMP JUMPDEST SWAP2 POP POP PUSH1 0x60 DUP4 ADD MLOAD DUP5 DUP3 SUB PUSH1 0x60 DUP7 ADD MSTORE PUSH2 0x281F DUP3 DUP3 PUSH2 0x2725 JUMP JUMPDEST SWAP2 POP POP PUSH1 0x80 DUP4 ADD MLOAD PUSH2 0x2834 PUSH1 0x80 DUP7 ADD DUP3 PUSH2 0x26D0 JUMP JUMPDEST POP PUSH1 0xA0 DUP4 ADD MLOAD PUSH2 0x2847 PUSH1 0xA0 DUP7 ADD DUP3 PUSH2 0x26D0 JUMP JUMPDEST POP PUSH1 0xC0 DUP4 ADD MLOAD PUSH2 0x285A PUSH1 0xC0 DUP7 ADD DUP3 PUSH2 0x276A JUMP JUMPDEST POP PUSH1 0xE0 DUP4 ADD MLOAD PUSH2 0x286D PUSH1 0xE0 DUP7 ADD DUP3 PUSH2 0x27AB JUMP JUMPDEST POP PUSH2 0x100 DUP4 ADD MLOAD PUSH2 0x2882 PUSH2 0x100 DUP7 ADD DUP3 PUSH2 0x26D0 JUMP JUMPDEST POP PUSH2 0x120 DUP4 ADD MLOAD PUSH2 0x2897 PUSH2 0x120 DUP7 ADD DUP3 PUSH2 0x26D0 JUMP JUMPDEST POP PUSH2 0x140 DUP4 ADD MLOAD PUSH2 0x28AC PUSH2 0x140 DUP7 ADD DUP3 PUSH2 0x26D0 JUMP JUMPDEST POP PUSH2 0x160 DUP4 ADD MLOAD PUSH2 0x28C1 PUSH2 0x160 DUP7 ADD DUP3 PUSH2 0x26D0 JUMP JUMPDEST POP DUP1 SWAP2 POP POP SWAP3 SWAP2 POP POP JUMP JUMPDEST PUSH1 0x0 PUSH2 0x28D8 DUP4 DUP4 PUSH2 0x27BA JUMP JUMPDEST SWAP1 POP SWAP3 SWAP2 POP POP JUMP JUMPDEST PUSH1 0x0 PUSH1 0x20 DUP3 ADD SWAP1 POP SWAP2 SWAP1 POP JUMP JUMPDEST PUSH1 0x0 PUSH2 0x28F8 DUP3 PUSH2 0x269A JUMP JUMPDEST PUSH2 0x2902 DUP2 DUP6 PUSH2 0x26A5 JUMP JUMPDEST SWAP4 POP DUP4 PUSH1 0x20 DUP3 MUL DUP6 ADD PUSH2 0x2914 DUP6 PUSH2 0x26B6 JUMP JUMPDEST DUP1 PUSH1 0x0 JUMPDEST DUP6 DUP2 LT ISZERO PUSH2 0x2950 JUMPI DUP5 DUP5 SUB DUP10 MSTORE DUP2 MLOAD PUSH2 0x2931 DUP6 DUP3 PUSH2 0x28CC JUMP JUMPDEST SWAP5 POP PUSH2 0x293C DUP4 PUSH2 0x28E0 JUMP JUMPDEST SWAP3 POP PUSH1 0x20 DUP11 ADD SWAP10 POP POP PUSH1 0x1 DUP2 ADD SWAP1 POP PUSH2 0x2918 JUMP JUMPDEST POP DUP3 SWAP8 POP DUP8 SWAP6 POP POP POP POP POP POP SWAP3 SWAP2 POP POP JUMP JUMPDEST PUSH1 0x0 PUSH1 0x20 DUP3 ADD SWAP1 POP DUP2 DUP2 SUB PUSH1 0x0 DUP4 ADD MSTORE PUSH2 0x297C DUP2 DUP5 PUSH2 0x28ED JUMP JUMPDEST SWAP1 POP SWAP3 SWAP2 POP POP JUMP JUMPDEST PUSH2 0x298D DUP2 PUSH2 0x26C6 JUMP JUMPDEST DUP2 EQ PUSH2 0x2998 JUMPI PUSH1 0x0 DUP1 REVERT JUMPDEST POP JUMP JUMPDEST PUSH1 0x0 DUP2 CALLDATALOAD SWAP1 POP PUSH2 0x29AA DUP2 PUSH2 0x2984 JUMP JUMPDEST SWAP3 SWAP2 POP POP JUMP JUMPDEST PUSH2 0x29B9 DUP2 PUSH2 0x2799 JUMP JUMPDEST DUP2 EQ PUSH2 0x29C4 JUMPI PUSH1 0x0 DUP1 REVERT JUMPDEST POP JUMP JUMPDEST PUSH1 0x0 DUP2 CALLDATALOAD SWAP1 POP PUSH2 0x29D6 DUP2 PUSH2 0x29B0 JUMP JUMPDEST SWAP3 SWAP2 POP POP JUMP JUMPDEST PUSH1 0x0 DUP1 PUSH1 0x40 DUP4 DUP6 SUB SLT ISZERO PUSH2 0x29F3 JUMPI PUSH2 0x29F2 PUSH2 0x24D2 JUMP JUMPDEST JUMPDEST PUSH1 0x0 PUSH2 0x2A01 DUP6 DUP3 DUP7 ADD PUSH2 0x299B JUMP JUMPDEST SWAP3 POP POP PUSH1 0x20 PUSH2 0x2A12 DUP6 DUP3 DUP7 ADD PUSH2 0x29C7 JUMP JUMPDEST SWAP2 POP POP SWAP3 POP SWAP3 SWAP1 POP JUMP JUMPDEST PUSH2 0x2A25 DUP2 PUSH2 0x275E JUMP JUMPDEST DUP3 MSTORE POP POP JUMP JUMPDEST PUSH1 0x0 PUSH1 0x20 DUP3 ADD SWAP1 POP PUSH2 0x2A40 PUSH1 0x0 DUP4 ADD DUP5 PUSH2 0x2A1C JUMP JUMPDEST SWAP3 SWAP2 POP POP JUMP JUMPDEST PUSH1 0x0 PUSH1 0x20 DUP3 DUP5 SUB SLT ISZERO PUSH2 0x2A5C JUMPI PUSH2 0x2A5B PUSH2 0x24D2 JUMP JUMPDEST JUMPDEST PUSH1 0x0 PUSH2 0x2A6A DUP5 DUP3 DUP6 ADD PUSH2 0x299B JUMP JUMPDEST SWAP2 POP POP SWAP3 SWAP2 POP POP JUMP JUMPDEST PUSH1 0x0 DUP1 PUSH1 0x40 DUP4 DUP6 SUB SLT ISZERO PUSH2 0x2A8A JUMPI PUSH2 0x2A89 PUSH2 0x24D2 JUMP JUMPDEST JUMPDEST PUSH1 0x0 PUSH2 0x2A98 DUP6 DUP3 DUP7 ADD PUSH2 0x299B JUMP JUMPDEST SWAP3 POP POP PUSH1 0x20 PUSH2 0x2AA9 DUP6 DUP3 DUP7 ADD PUSH2 0x299B JUMP JUMPDEST SWAP2 POP POP SWAP3 POP SWAP3 SWAP1 POP JUMP JUMPDEST PUSH1 0x0 DUP1 PUSH1 0x0 DUP1 PUSH1 0x0 DUP1 PUSH1 0xC0 DUP8 DUP10 SUB SLT ISZERO PUSH2 0x2AD0 JUMPI PUSH2 0x2ACF PUSH2 0x24D2 JUMP JUMPDEST JUMPDEST PUSH1 0x0 PUSH2 0x2ADE DUP10 DUP3 DUP11 ADD PUSH2 0x299B JUMP JUMPDEST SWAP7 POP POP PUSH1 0x20 DUP8 ADD CALLDATALOAD PUSH8 0xFFFFFFFFFFFFFFFF DUP2 GT ISZERO PUSH2 0x2AFF JUMPI PUSH2 0x2AFE PUSH2 0x24D7 JUMP JUMPDEST JUMPDEST PUSH2 0x2B0B DUP10 DUP3 DUP11 ADD PUSH2 0x25F4 JUMP JUMPDEST SWAP6 POP POP PUSH1 0x40 DUP8 ADD CALLDATALOAD PUSH8 0xFFFFFFFFFFFFFFFF DUP2 GT ISZERO PUSH2 0x2B2C JUMPI PUSH2 0x2B2B PUSH2 0x24D7 JUMP JUMPDEST JUMPDEST PUSH2 0x2B38 DUP10 DUP3 DUP11 ADD PUSH2 0x25F4 JUMP JUMPDEST SWAP5 POP POP PUSH1 0x60 DUP8 ADD CALLDATALOAD PUSH8 0xFFFFFFFFFFFFFFFF DUP2 GT ISZERO PUSH2 0x2B59 JUMPI PUSH2 0x2B58 PUSH2 0x24D7 JUMP JUMPDEST JUMPDEST PUSH2 0x2B65 DUP10 DUP3 DUP11 ADD PUSH2 0x25F4 JUMP JUMPDEST SWAP4 POP POP PUSH1 0x80 PUSH2 0x2B76 DUP10 DUP3 DUP11 ADD PUSH2 0x299B JUMP JUMPDEST SWAP3 POP POP PUSH1 0xA0 PUSH2 0x2B87 DUP10 DUP3 DUP11 ADD PUSH2 0x299B JUMP JUMPDEST SWAP2 POP POP SWAP3 SWAP6 POP SWAP3 SWAP6 POP SWAP3 SWAP6 JUMP JUMPDEST PUSH2 0x2B9D DUP2 PUSH2 0x26C6 JUMP JUMPDEST DUP3 MSTORE POP POP JUMP JUMPDEST PUSH1 0x0 PUSH1 0x20 DUP3 ADD SWAP1 POP PUSH2 0x2BB8 PUSH1 0x0 DUP4 ADD DUP5 PUSH2 0x2B94 JUMP JUMPDEST SWAP3 SWAP2 POP POP JUMP JUMPDEST PUSH1 0x0 PUSH1 0x20 DUP3 DUP5 SUB SLT ISZERO PUSH2 0x2BD4 JUMPI PUSH2 0x2BD3 PUSH2 0x24D2 JUMP JUMPDEST JUMPDEST PUSH1 0x0 PUSH2 0x2BE2 DUP5 DUP3 DUP6 ADD PUSH2 0x29C7 JUMP JUMPDEST SWAP2 POP POP SWAP3 SWAP2 POP POP JUMP JUMPDEST PUSH1 0x0 DUP3 DUP3 MSTORE PUSH1 0x20 DUP3 ADD SWAP1 POP SWAP3 SWAP2 POP POP JUMP JUMPDEST PUSH1 0x0 PUSH2 0x2C07 DUP3 PUSH2 0x26DF JUMP JUMPDEST PUSH2 0x2C11 DUP2 DUP6 PUSH2 0x2BEB JUMP JUMPDEST SWAP4 POP PUSH2 0x2C21 DUP2 DUP6 PUSH1 0x20 DUP7 ADD PUSH2 0x26FB JUMP JUMPDEST PUSH2 0x2C2A DUP2 PUSH2 0x24E6 JUMP JUMPDEST DUP5 ADD SWAP2 POP POP SWAP3 SWAP2 POP POP JUMP JUMPDEST PUSH2 0x2C3E DUP2 PUSH2 0x2799 JUMP JUMPDEST DUP3 MSTORE POP POP JUMP JUMPDEST PUSH1 0x0 PUSH1 0xA0 DUP3 ADD SWAP1 POP PUSH2 0x2C59 PUSH1 0x0 DUP4 ADD DUP9 PUSH2 0x2B94 JUMP JUMPDEST DUP2 DUP2 SUB PUSH1 0x20 DUP4 ADD MSTORE PUSH2 0x2C6B DUP2 DUP8 PUSH2 0x2BFC JUMP JUMPDEST SWAP1 POP DUP2 DUP2 SUB PUSH1 0x40 DUP4 ADD MSTORE PUSH2 0x2C7F DUP2 DUP7 PUSH2 0x2BFC JUMP JUMPDEST SWAP1 POP PUSH2 0x2C8E PUSH1 0x60 DUP4 ADD DUP6 PUSH2 0x2C35 JUMP JUMPDEST PUSH2 0x2C9B PUSH1 0x80 DUP4 ADD DUP5 PUSH2 0x2B94 JUMP JUMPDEST SWAP7 SWAP6 POP POP POP POP POP POP JUMP JUMPDEST PUSH1 0x0 PUSH2 0x180 DUP4 ADD PUSH1 0x0 DUP4 ADD MLOAD PUSH2 0x2CBE PUSH1 0x0 DUP7 ADD DUP3 PUSH2 0x26D0 JUMP JUMPDEST POP PUSH1 0x20 DUP4 ADD MLOAD DUP5 DUP3 SUB PUSH1 0x20 DUP7 ADD MSTORE PUSH2 0x2CD6 DUP3 DUP3 PUSH2 0x2725 JUMP JUMPDEST SWAP2 POP POP PUSH1 0x40 DUP4 ADD MLOAD DUP5 DUP3 SUB PUSH1 0x40 DUP7 ADD MSTORE PUSH2 0x2CF0 DUP3 DUP3 PUSH2 0x2725 JUMP JUMPDEST SWAP2 POP POP PUSH1 0x60 DUP4 ADD MLOAD DUP5 DUP3 SUB PUSH1 0x60 DUP7 ADD MSTORE PUSH2 0x2D0A DUP3 DUP3 PUSH2 0x2725 JUMP JUMPDEST SWAP2 POP POP PUSH1 0x80 DUP4 ADD MLOAD PUSH2 0x2D1F PUSH1 0x80 DUP7 ADD DUP3 PUSH2 0x26D0 JUMP JUMPDEST POP PUSH1 0xA0 DUP4 ADD MLOAD PUSH2 0x2D32 PUSH1 0xA0 DUP7 ADD DUP3 PUSH2 0x26D0 JUMP JUMPDEST POP PUSH1 0xC0 DUP4 ADD MLOAD PUSH2 0x2D45 PUSH1 0xC0 DUP7 ADD DUP3 PUSH2 0x276A JUMP JUMPDEST POP PUSH1 0xE0 DUP4 ADD MLOAD PUSH2 0x2D58 PUSH1 0xE0 DUP7 ADD DUP3 PUSH2 0x27AB JUMP JUMPDEST POP PUSH2 0x100 DUP4 ADD MLOAD PUSH2 0x2D6D PUSH2 0x100 DUP7 ADD DUP3 PUSH2 0x26D0 JUMP JUMPDEST POP PUSH2 0x120 DUP4 ADD MLOAD PUSH2 0x2D82 PUSH2 0x120 DUP7 ADD DUP3 PUSH2 0x26D0 JUMP JUMPDEST POP PUSH2 0x140 DUP4 ADD MLOAD PUSH2 0x2D97 PUSH2 0x140 DUP7 ADD DUP3 PUSH2 0x26D0 JUMP JUMPDEST POP PUSH2 0x160 DUP4 ADD MLOAD PUSH2 0x2DAC PUSH2 0x160 DUP7 ADD DUP3 PUSH2 0x26D0 JUMP JUMPDEST POP DUP1 SWAP2 POP POP SWAP3 SWAP2 POP POP JUMP JUMPDEST PUSH1 0x0 PUSH1 0x20 DUP3 ADD SWAP1 POP DUP2 DUP2 SUB PUSH1 0x0 DUP4 ADD MSTORE PUSH2 0x2DD1 DUP2 DUP5 PUSH2 0x2CA5 JUMP JUMPDEST SWAP1 POP SWAP3 SWAP2 POP POP JUMP JUMPDEST PUSH1 0x0 DUP2 MLOAD SWAP1 POP SWAP2 SWAP1 POP JUMP JUMPDEST PUSH1 0x0 DUP3 DUP3 MSTORE PUSH1 0x20 DUP3 ADD SWAP1 POP SWAP3 SWAP2 POP POP JUMP JUMPDEST PUSH1 0x0 DUP2 SWAP1 POP PUSH1 0x20 DUP3 ADD SWAP1 POP SWAP2 SWAP1 POP JUMP JUMPDEST PUSH1 0x0 DUP2 MLOAD SWAP1 POP SWAP2 SWAP1 POP JUMP JUMPDEST PUSH1 0x0 DUP3 DUP3 MSTORE PUSH1 0x20 DUP3 ADD SWAP1 POP SWAP3 SWAP2 POP POP JUMP JUMPDEST PUSH1 0x0 DUP2 SWAP1 POP PUSH1 0x20 DUP3 ADD SWAP1 POP SWAP2 SWAP1 POP JUMP JUMPDEST PUSH1 0x0 PUSH2 0x2E3D DUP4 DUP4 PUSH2 0x27AB JUMP JUMPDEST PUSH1 0x20 DUP4 ADD SWAP1 POP SWAP3 SWAP2 POP POP JUMP JUMPDEST PUSH1 0x0 PUSH1 0x20 DUP3 ADD SWAP1 POP SWAP2 SWAP1 POP JUMP JUMPDEST PUSH1 0x0 PUSH2 0x2E61 DUP3 PUSH2 0x2E05 JUMP JUMPDEST PUSH2 0x2E6B DUP2 DUP6 PUSH2 0x2E10 JUMP JUMPDEST SWAP4 POP PUSH2 0x2E76 DUP4 PUSH2 0x2E21 JUMP JUMPDEST DUP1 PUSH1 0x0 JUMPDEST DUP4 DUP2 LT ISZERO PUSH2 0x2EA7 JUMPI DUP2 MLOAD PUSH2 0x2E8E DUP9 DUP3 PUSH2 0x2E31 JUMP JUMPDEST SWAP8 POP PUSH2 0x2E99 DUP4 PUSH2 0x2E49 JUMP JUMPDEST SWAP3 POP POP PUSH1 0x1 DUP2 ADD SWAP1 POP PUSH2 0x2E7A JUMP JUMPDEST POP DUP6 SWAP4 POP POP POP POP SWAP3 SWAP2 POP POP JUMP JUMPDEST PUSH1 0x0 PUSH1 0xC0 DUP4 ADD PUSH1 0x0 DUP4 ADD MLOAD PUSH2 0x2ECC PUSH1 0x0 DUP7 ADD DUP3 PUSH2 0x26D0 JUMP JUMPDEST POP PUSH1 0x20 DUP4 ADD MLOAD DUP5 DUP3 SUB PUSH1 0x20 DUP7 ADD MSTORE PUSH2 0x2EE4 DUP3 DUP3 PUSH2 0x2725 JUMP JUMPDEST SWAP2 POP POP PUSH1 0x40 DUP4 ADD MLOAD DUP5 DUP3 SUB PUSH1 0x40 DUP7 ADD MSTORE PUSH2 0x2EFE DUP3 DUP3 PUSH2 0x2725 JUMP JUMPDEST SWAP2 POP POP PUSH1 0x60 DUP4 ADD MLOAD PUSH2 0x2F13 PUSH1 0x60 DUP7 ADD DUP3 PUSH2 0x27AB JUMP JUMPDEST POP PUSH1 0x80 DUP4 ADD MLOAD PUSH2 0x2F26 PUSH1 0x80 DUP7 ADD DUP3 PUSH2 0x26D0 JUMP JUMPDEST POP PUSH1 0xA0 DUP4 ADD MLOAD DUP5 DUP3 SUB PUSH1 0xA0 DUP7 ADD MSTORE PUSH2 0x2F3E DUP3 DUP3 PUSH2 0x2E56 JUMP JUMPDEST SWAP2 POP POP DUP1 SWAP2 POP POP SWAP3 SWAP2 POP POP JUMP JUMPDEST PUSH1 0x0 PUSH2 0x2F57 DUP4 DUP4 PUSH2 0x2EB4 JUMP JUMPDEST SWAP1 POP SWAP3 SWAP2 POP POP JUMP JUMPDEST PUSH1 0x0 PUSH1 0x20 DUP3 ADD SWAP1 POP SWAP2 SWAP1 POP JUMP JUMPDEST PUSH1 0x0 PUSH2 0x2F77 DUP3 PUSH2 0x2DD9 JUMP JUMPDEST PUSH2 0x2F81 DUP2 DUP6 PUSH2 0x2DE4 JUMP JUMPDEST SWAP4 POP DUP4 PUSH1 0x20 DUP3 MUL DUP6 ADD PUSH2 0x2F93 DUP6 PUSH2 0x2DF5 JUMP JUMPDEST DUP1 PUSH1 0x0 JUMPDEST DUP6 DUP2 LT ISZERO PUSH2 0x2FCF JUMPI DUP5 DUP5 SUB DUP10 MSTORE DUP2 MLOAD PUSH2 0x2FB0 DUP6 DUP3 PUSH2 0x2F4B JUMP JUMPDEST SWAP5 POP PUSH2 0x2FBB DUP4 PUSH2 0x2F5F JUMP JUMPDEST SWAP3 POP PUSH1 0x20 DUP11 ADD SWAP10 POP POP PUSH1 0x1 DUP2 ADD SWAP1 POP PUSH2 0x2F97 JUMP JUMPDEST POP DUP3 SWAP8 POP DUP8 SWAP6 POP POP POP POP POP POP SWAP3 SWAP2 POP POP JUMP JUMPDEST PUSH1 0x0 PUSH1 0x20 DUP3 ADD SWAP1 POP DUP2 DUP2 SUB PUSH1 0x0 DUP4 ADD MSTORE PUSH2 0x2FFB DUP2 DUP5 PUSH2 0x2F6C JUMP JUMPDEST SWAP1 POP SWAP3 SWAP2 POP POP JUMP JUMPDEST PUSH1 0x0 DUP1 PUSH1 0x0 DUP1 PUSH1 0x0 PUSH1 0xA0 DUP7 DUP9 SUB SLT ISZERO PUSH2 0x301F JUMPI PUSH2 0x301E PUSH2 0x24D2 JUMP JUMPDEST JUMPDEST PUSH1 0x0 DUP7 ADD CALLDATALOAD PUSH8 0xFFFFFFFFFFFFFFFF DUP2 GT ISZERO PUSH2 0x303D JUMPI PUSH2 0x303C PUSH2 0x24D7 JUMP JUMPDEST JUMPDEST PUSH2 0x3049 DUP9 DUP3 DUP10 ADD PUSH2 0x25F4 JUMP JUMPDEST SWAP6 POP POP PUSH1 0x20 DUP7 ADD CALLDATALOAD PUSH8 0xFFFFFFFFFFFFFFFF DUP2 GT ISZERO PUSH2 0x306A JUMPI PUSH2 0x3069 PUSH2 0x24D7 JUMP JUMPDEST JUMPDEST PUSH2 0x3076 DUP9 DUP3 DUP10 ADD PUSH2 0x25F4 JUMP JUMPDEST SWAP5 POP POP PUSH1 0x40 DUP7 ADD CALLDATALOAD PUSH8 0xFFFFFFFFFFFFFFFF DUP2 GT ISZERO PUSH2 0x3097 JUMPI PUSH2 0x3096 PUSH2 0x24D7 JUMP JUMPDEST JUMPDEST PUSH2 0x30A3 DUP9 DUP3 DUP10 ADD PUSH2 0x25F4 JUMP JUMPDEST SWAP4 POP POP PUSH1 0x60 PUSH2 0x30B4 DUP9 DUP3 DUP10 ADD PUSH2 0x299B JUMP JUMPDEST SWAP3 POP POP PUSH1 0x80 PUSH2 0x30C5 DUP9 DUP3 DUP10 ADD PUSH2 0x299B JUMP JUMPDEST SWAP2 POP POP SWAP3 SWAP6 POP SWAP3 SWAP6 SWAP1 SWAP4 POP JUMP JUMPDEST PUSH32 0x4E487B7100000000000000000000000000000000000000000000000000000000 PUSH1 0x0 MSTORE PUSH1 0x11 PUSH1 0x4 MSTORE PUSH1 0x24 PUSH1 0x0 REVERT JUMPDEST PUSH1 0x0 PUSH2 0x310C DUP3 PUSH2 0x26C6 JUMP JUMPDEST SWAP2 POP PUSH32 0xFFFFFFFFFFFFFFFFFFFFFFFFFFFFFFFFFFFFFFFFFFFFFFFFFFFFFFFFFFFFFFFF DUP3 SUB PUSH2 0x313E JUMPI PUSH2 0x313D PUSH2 0x30D2 JUMP JUMPDEST JUMPDEST PUSH1 0x1 DUP3 ADD SWAP1 POP SWAP2 SWAP1 POP JUMP JUMPDEST PUSH32 0x4E487B7100000000000000000000000000000000000000000000000000000000 PUSH1 0x0 MSTORE PUSH1 0x22 PUSH1 0x4 MSTORE PUSH1 0x24 PUSH1 0x0 REVERT JUMPDEST PUSH1 0x0 PUSH1 0x2 DUP3 DIV SWAP1 POP PUSH1 0x1 DUP3 AND DUP1 PUSH2 0x3190 JUMPI PUSH1 0x7F DUP3 AND SWAP2 POP JUMPDEST PUSH1 0x20 DUP3 LT DUP2 SUB PUSH2 0x31A3 JUMPI PUSH2 0x31A2 PUSH2 0x3149 JUMP JUMPDEST JUMPDEST POP SWAP2 SWAP1 POP JUMP JUMPDEST PUSH1 0x0 DUP2 SWAP1 POP DUP2 PUSH1 0x0 MSTORE PUSH1 0x20 PUSH1 0x0 KECCAK256 SWAP1 POP SWAP2 SWAP1 POP JUMP JUMPDEST PUSH1 0x0 PUSH1 0x20 PUSH1 0x1F DUP4 ADD DIV SWAP1 POP SWAP2 SWAP1 POP JUMP JUMPDEST PUSH1 0x0 DUP3 DUP3 SHL SWAP1 POP SWAP3 SWAP2 POP POP JUMP JUMPDEST PUSH1 0x0 PUSH1 0x8 DUP4 MUL PUSH2 0x320B PUSH32 0xFFFFFFFFFFFFFFFFFFFFFFFFFFFFFFFFFFFFFFFFFFFFFFFFFFFFFFFFFFFFFFFF DUP3 PUSH2 0x31CE JUMP JUMPDEST PUSH2 0x3215 DUP7 DUP4 PUSH2 0x31CE JUMP JUMPDEST SWAP6 POP DUP1 NOT DUP5 AND SWAP4 POP DUP1 DUP7 AND DUP5 OR SWAP3 POP POP POP SWAP4 SWAP3 POP POP POP JUMP JUMPDEST PUSH1 0x0 DUP2 SWAP1 POP SWAP2 SWAP1 POP JUMP JUMPDEST PUSH1 0x0 PUSH2 0x3252 PUSH2 0x324D PUSH2 0x3248 DUP5 PUSH2 0x26C6 JUMP JUMPDEST PUSH2 0x322D JUMP JUMPDEST PUSH2 0x26C6 JUMP JUMPDEST SWAP1 POP SWAP2 SWAP1 POP JUMP JUMPDEST PUSH1 0x0 DUP2 SWAP1 POP SWAP2 SWAP1 POP JUMP JUMPDEST PUSH2 0x326C DUP4 PUSH2 0x3237 JUMP JUMPDEST PUSH2 0x3280 PUSH2 0x3278 DUP3 PUSH2 0x3259 JUMP JUMPDEST DUP5 DUP5 SLOAD PUSH2 0x31DB JUMP JUMPDEST DUP3 SSTORE POP POP POP POP JUMP JUMPDEST PUSH1 0x0 SWAP1 JUMP JUMPDEST PUSH2 0x3295 PUSH2 0x3288 JUMP JUMPDEST PUSH2 0x32A0 DUP2 DUP5 DUP5 PUSH2 0x3263 JUMP JUMPDEST POP POP POP JUMP JUMPDEST JUMPDEST DUP2 DUP2 LT ISZERO PUSH2 0x32C4 JUMPI PUSH2 0x32B9 PUSH1 0x0 DUP3 PUSH2 0x328D JUMP JUMPDEST PUSH1 0x1 DUP2 ADD SWAP1 POP PUSH2 0x32A6 JUMP JUMPDEST POP POP JUMP JUMPDEST PUSH1 0x1F DUP3 GT ISZERO PUSH2 0x3309 JUMPI PUSH2 0x32DA DUP2 PUSH2 0x31A9 JUMP JUMPDEST PUSH2 0x32E3 DUP5 PUSH2 0x31BE JUMP JUMPDEST DUP2 ADD PUSH1 0x20 DUP6 LT ISZERO PUSH2 0x32F2 JUMPI DUP2 SWAP1 POP JUMPDEST PUSH2 0x3306 PUSH2 0x32FE DUP6 PUSH2 0x31BE JUMP JUMPDEST DUP4 ADD DUP3 PUSH2 0x32A5 JUMP JUMPDEST POP POP JUMPDEST POP POP POP JUMP JUMPDEST PUSH1 0x0 DUP3 DUP3 SHR SWAP1 POP SWAP3 SWAP2 POP POP JUMP JUMPDEST PUSH1 0x0 PUSH2 0x332C PUSH1 0x0 NOT DUP5 PUSH1 0x8 MUL PUSH2 0x330E JUMP JUMPDEST NOT DUP1 DUP4 AND SWAP2 POP POP SWAP3 SWAP2 POP POP JUMP JUMPDEST PUSH1 0x0 PUSH2 0x3345 DUP4 DUP4 PUSH2 0x331B JUMP JUMPDEST SWAP2 POP DUP3 PUSH1 0x2 MUL DUP3 OR SWAP1 POP SWAP3 SWAP2 POP POP JUMP JUMPDEST PUSH2 0x335E DUP3 PUSH2 0x26DF JUMP JUMPDEST PUSH8 0xFFFFFFFFFFFFFFFF DUP2 GT ISZERO PUSH2 0x3377 JUMPI PUSH2 0x3376 PUSH2 0x24F7 JUMP JUMPDEST JUMPDEST PUSH2 0x3381 DUP3 SLOAD PUSH2 0x3178 JUMP JUMPDEST PUSH2 0x338C DUP3 DUP3 DUP6 PUSH2 0x32C8 JUMP JUMPDEST PUSH1 0x0 PUSH1 0x20 SWAP1 POP PUSH1 0x1F DUP4 GT PUSH1 0x1 DUP2 EQ PUSH2 0x33BF JUMPI PUSH1 0x0 DUP5 ISZERO PUSH2 0x33AD JUMPI DUP3 DUP8 ADD MLOAD SWAP1 POP JUMPDEST PUSH2 0x33B7 DUP6 DUP3 PUSH2 0x3339 JUMP JUMPDEST DUP7 SSTORE POP PUSH2 0x341F JUMP JUMPDEST PUSH1 0x1F NOT DUP5 AND PUSH2 0x33CD DUP7 PUSH2 0x31A9 JUMP JUMPDEST PUSH1 0x0 JUMPDEST DUP3 DUP2 LT ISZERO PUSH2 0x33F5 JUMPI DUP5 DUP10 ADD MLOAD DUP3 SSTORE PUSH1 0x1 DUP3 ADD SWAP2 POP PUSH1 0x20 DUP6 ADD SWAP5 POP PUSH1 0x20 DUP2 ADD SWAP1 POP PUSH2 0x33D0 JUMP JUMPDEST DUP7 DUP4 LT ISZERO PUSH2 0x3412 JUMPI DUP5 DUP10 ADD MLOAD PUSH2 0x340E PUSH1 0x1F DUP10 AND DUP3 PUSH2 0x331B JUMP JUMPDEST DUP4 SSTORE POP JUMPDEST PUSH1 0x1 PUSH1 0x2 DUP9 MUL ADD DUP9 SSTORE POP POP POP JUMPDEST POP POP POP POP POP POP JUMP JUMPDEST PUSH32 0x4E487B7100000000000000000000000000000000000000000000000000000000 PUSH1 0x0 MSTORE PUSH1 0x32 PUSH1 0x4 MSTORE PUSH1 0x24 PUSH1 0x0 REVERT JUMPDEST PUSH32 0x556E617574686F72697A656420416374696F6E00000000000000000000000000 PUSH1 0x0 DUP3 ADD MSTORE POP JUMP JUMPDEST PUSH1 0x0 PUSH2 0x348C PUSH1 0x13 DUP4 PUSH2 0x2BEB JUMP JUMPDEST SWAP2 POP PUSH2 0x3497 DUP3 PUSH2 0x3456 JUMP JUMPDEST PUSH1 0x20 DUP3 ADD SWAP1 POP SWAP2 SWAP1 POP JUMP JUMPDEST PUSH1 0x0 PUSH1 0x20 DUP3 ADD SWAP1 POP DUP2 DUP2 SUB PUSH1 0x0 DUP4 ADD MSTORE PUSH2 0x34BB DUP2 PUSH2 0x347F JUMP JUMPDEST SWAP1 POP SWAP2 SWAP1 POP JUMP JUMPDEST PUSH32 0x506F6C6C20646F6573206E6F7420657869737400000000000000000000000000 PUSH1 0x0 DUP3 ADD MSTORE POP JUMP JUMPDEST PUSH1 0x0 PUSH2 0x34F8 PUSH1 0x13 DUP4 PUSH2 0x2BEB JUMP JUMPDEST SWAP2 POP PUSH2 0x3503 DUP3 PUSH2 0x34C2 JUMP JUMPDEST PUSH1 0x20 DUP3 ADD SWAP1 POP SWAP2 SWAP1 POP JUMP JUMPDEST PUSH1 0x0 PUSH1 0x20 DUP3 ADD SWAP1 POP DUP2 DUP2 SUB PUSH1 0x0 DUP4 ADD MSTORE PUSH2 0x3527 DUP2 PUSH2 0x34EB JUMP JUMPDEST SWAP1 POP SWAP2 SWAP1 POP JUMP JUMPDEST PUSH32 0x4E6F7420612052656769737465726564204D656D626572000000000000000000 PUSH1 0x0 DUP3 ADD MSTORE POP JUMP JUMPDEST PUSH1 0x0 PUSH2 0x3564 PUSH1 0x17 DUP4 PUSH2 0x2BEB JUMP JUMPDEST SWAP2 POP PUSH2 0x356F DUP3 PUSH2 0x352E JUMP JUMPDEST PUSH1 0x20 DUP3 ADD SWAP1 POP SWAP2 SWAP1 POP JUMP JUMPDEST PUSH1 0x0 PUSH1 0x20 DUP3 ADD SWAP1 POP DUP2 DUP2 SUB PUSH1 0x0 DUP4 ADD MSTORE PUSH2 0x3593 DUP2 PUSH2 0x3557 JUMP JUMPDEST SWAP1 POP SWAP2 SWAP1 POP JUMP JUMPDEST PUSH32 0x416C726561647920566F74656400000000000000000000000000000000000000 PUSH1 0x0 DUP3 ADD MSTORE POP JUMP JUMPDEST PUSH1 0x0 PUSH2 0x35D0 PUSH1 0xD DUP4 PUSH2 0x2BEB JUMP JUMPDEST SWAP2 POP PUSH2 0x35DB DUP3 PUSH2 0x359A JUMP JUMPDEST PUSH1 0x20 DUP3 ADD SWAP1 POP SWAP2 SWAP1 POP JUMP JUMPDEST PUSH1 0x0 PUSH1 0x20 DUP3 ADD SWAP1 POP DUP2 DUP2 SUB PUSH1 0x0 DUP4 ADD MSTORE PUSH2 0x35FF DUP2 PUSH2 0x35C3 JUMP JUMPDEST SWAP1 POP SWAP2 SWAP1 POP JUMP JUMPDEST PUSH32 0x506F6C6C20686173206265656E2064656C657465640000000000000000000000 PUSH1 0x0 DUP3 ADD MSTORE POP JUMP JUMPDEST PUSH1 0x0 PUSH2 0x363C PUSH1 0x15 DUP4 PUSH2 0x2BEB JUMP JUMPDEST SWAP2 POP PUSH2 0x3647 DUP3 PUSH2 0x3606 JUMP JUMPDEST PUSH1 0x20 DUP3 ADD SWAP1 POP SWAP2 SWAP1 POP JUMP JUMPDEST PUSH1 0x0 PUSH1 0x20 DUP3 ADD SWAP1 POP DUP2 DUP2 SUB PUSH1 0x0 DUP4 ADD MSTORE PUSH2 0x366B DUP2 PUSH2 0x362F JUMP JUMPDEST SWAP1 POP SWAP2 SWAP1 POP JUMP JUMPDEST PUSH32 0x506F6C6C206E6F7420696E2073657373696F6E00000000000000000000000000 PUSH1 0x0 DUP3 ADD MSTORE POP JUMP JUMPDEST PUSH1 0x0 PUSH2 0x36A8 PUSH1 0x13 DUP4 PUSH2 0x2BEB JUMP JUMPDEST SWAP2 POP PUSH2 0x36B3 DUP3 PUSH2 0x3672 JUMP JUMPDEST PUSH1 0x20 DUP3 ADD SWAP1 POP SWAP2 SWAP1 POP JUMP JUMPDEST PUSH1 0x0 PUSH1 0x20 DUP3 ADD SWAP1 POP DUP2 DUP2 SUB PUSH1 0x0 DUP4 ADD MSTORE PUSH2 0x36D7 DUP2 PUSH2 0x369B JUMP JUMPDEST SWAP1 POP SWAP2 SWAP1 POP JUMP JUMPDEST PUSH32 0x506F6C6C206E6F206C6F6E676572206578697374730000000000000000000000 PUSH1 0x0 DUP3 ADD MSTORE POP JUMP JUMPDEST PUSH1 0x0 PUSH2 0x3714 PUSH1 0x15 DUP4 PUSH2 0x2BEB JUMP JUMPDEST SWAP2 POP PUSH2 0x371F DUP3 PUSH2 0x36DE JUMP JUMPDEST PUSH1 0x20 DUP3 ADD SWAP1 POP SWAP2 SWAP1 POP JUMP JUMPDEST PUSH1 0x0 PUSH1 0x20 DUP3 ADD SWAP1 POP DUP2 DUP2 SUB PUSH1 0x0 DUP4 ADD MSTORE PUSH2 0x3743 DUP2 PUSH2 0x3707 JUMP JUMPDEST SWAP1 POP SWAP2 SWAP1 POP JUMP JUMPDEST PUSH32 0x496D6167652063616E6E6F7420626520656D7074790000000000000000000000 PUSH1 0x0 DUP3 ADD MSTORE POP JUMP JUMPDEST PUSH1 0x0 PUSH2 0x3780 PUSH1 0x15 DUP4 PUSH2 0x2BEB JUMP JUMPDEST SWAP2 POP PUSH2 0x378B DUP3 PUSH2 0x374A JUMP JUMPDEST PUSH1 0x20 DUP3 ADD SWAP1 POP SWAP2 SWAP1 POP JUMP JUMPDEST PUSH1 0x0 PUSH1 0x20 DUP3 ADD SWAP1 POP DUP2 DUP2 SUB PUSH1 0x0 DUP4 ADD MSTORE PUSH2 0x37AF DUP2 PUSH2 0x3773 JUMP JUMPDEST SWAP1 POP SWAP2 SWAP1 POP JUMP JUMPDEST PUSH32 0x5469746C652063616E6E6F7420626520656D7074790000000000000000000000 PUSH1 0x0 DUP3 ADD MSTORE POP JUMP JUMPDEST PUSH1 0x0 PUSH2 0x37EC PUSH1 0x15 DUP4 PUSH2 0x2BEB JUMP JUMPDEST SWAP2 POP PUSH2 0x37F7 DUP3 PUSH2 0x37B6 JUMP JUMPDEST PUSH1 0x20 DUP3 ADD SWAP1 POP SWAP2 SWAP1 POP JUMP JUMPDEST PUSH1 0x0 PUSH1 0x20 DUP3 ADD SWAP1 POP DUP2 DUP2 SUB PUSH1 0x0 DUP4 ADD MSTORE PUSH2 0x381B DUP2 PUSH2 0x37DF JUMP JUMPDEST SWAP1 POP SWAP2 SWAP1 POP JUMP JUMPDEST PUSH32 0x4465736372697074696F6E2063616E6E6F7420626520656D7074790000000000 PUSH1 0x0 DUP3 ADD MSTORE POP JUMP JUMPDEST PUSH1 0x0 PUSH2 0x3858 PUSH1 0x1B DUP4 PUSH2 0x2BEB JUMP JUMPDEST SWAP2 POP PUSH2 0x3863 DUP3 PUSH2 0x3822 JUMP JUMPDEST PUSH1 0x20 DUP3 ADD SWAP1 POP SWAP2 SWAP1 POP JUMP JUMPDEST PUSH1 0x0 PUSH1 0x20 DUP3 ADD SWAP1 POP DUP2 DUP2 SUB PUSH1 0x0 DUP4 ADD MSTORE PUSH2 0x3887 DUP2 PUSH2 0x384B JUMP JUMPDEST SWAP1 POP SWAP2 SWAP1 POP JUMP JUMPDEST PUSH32 0x496E76616C696420456E642054696D6520476976656E00000000000000000000 PUSH1 0x0 DUP3 ADD MSTORE POP JUMP JUMPDEST PUSH1 0x0 PUSH2 0x38C4 PUSH1 0x16 DUP4 PUSH2 0x2BEB JUMP JUMPDEST SWAP2 POP PUSH2 0x38CF DUP3 PUSH2 0x388E JUMP JUMPDEST PUSH1 0x20 DUP3 ADD SWAP1 POP SWAP2 SWAP1 POP JUMP JUMPDEST PUSH1 0x0 PUSH1 0x20 DUP3 ADD SWAP1 POP DUP2 DUP2 SUB PUSH1 0x0 DUP4 ADD MSTORE PUSH2 0x38F3 DUP2 PUSH2 0x38B7 JUMP JUMPDEST SWAP1 POP SWAP2 SWAP1 POP JUMP JUMPDEST PUSH32 0x416C726561647920436F6E746573746564000000000000000000000000000000 PUSH1 0x0 DUP3 ADD MSTORE POP JUMP JUMPDEST PUSH1 0x0 PUSH2 0x3930 PUSH1 0x11 DUP4 PUSH2 0x2BEB JUMP JUMPDEST SWAP2 POP PUSH2 0x393B DUP3 PUSH2 0x38FA JUMP JUMPDEST PUSH1 0x20 DUP3 ADD SWAP1 POP SWAP2 SWAP1 POP JUMP JUMPDEST PUSH1 0x0 PUSH1 0x20 DUP3 ADD SWAP1 POP DUP2 DUP2 SUB PUSH1 0x0 DUP4 ADD MSTORE PUSH2 0x395F DUP2 PUSH2 0x3923 JUMP JUMPDEST SWAP1 POP SWAP2 SWAP1 POP JUMP INVALID LOG2 PUSH5 0x6970667358 0x22 SLT KECCAK256 0x1E 0xAC 0xE1 0xCF SIGNEXTEND 0xD1 DELEGATECALL DUP15 PC 0x2A 0xE3 0x2C 0x4F 0xEB 0x5F 0x2D 0x5D 0xD 0xCC PUSH30 0x951300D94243B3C33D084DDF64736F6C6343000811003300000000000000 "},"methodIdentifiers":{"contest(uint256)":"9d1c0bc6","contestantIn(uint256,uint256)":"c16c9e03","contested(uint256,address)":"e8e35632","createPoll(string,string,string,uint256,uint256)":"f0d0bc45","deletePollById(uint256)":"6b56dd23","getAllContestantsByPoll(uint256)":"da5199cb","getAllPolls()":"32b633fa","getPollById(uint256)":"d4bc5e91","registerUser(string,string)":"1d2e4afd","totalPolls()":"a2eeeb2f","totalUsers()":"bff1f9e1","updatePollById(uint256,string,string,string,uint256,uint256)":"93c2f222","users(address)":"a87430ba","voteContestant(uint256,uint256)":"72942840","voted(uint256,address)":"5277b4ae"}}}}}