{
  "_format": "hh-sol-artifact-1",
  "contractName": "Token",
  "sourceName": "src/contracts/Token.sol",
  "abi": [
    {
      "inputs": [],
      "stateMutability": "nonpayable",
      "type": "constructor"
    },
    {
      "anonymous": false,
      "inputs": [
        {
          "indexed": true,
          "internalType": "address",
          "name": "_from",
          "type": "address"
        },
        {
          "indexed": true,
          "internalType": "address",
          "name": "_to",
          "type": "address"
        },
        {
          "indexed": false,
          "internalType": "uint256",
          "name": "_value",
          "type": "uint256"
        }
      ],
      "name": "Transfer",
      "type": "event"
    },
    {
      "inputs": [
        {
          "internalType": "address",
          "name": "",
          "type": "address"
        }
      ],
      "name": "balances",
      "outputs": [
        {
          "internalType": "uint256",
          "name": "",
          "type": "uint256"
        }
      ],
      "stateMutability": "view",
      "type": "function"
    },
    {
      "inputs": [
        {
          "internalType": "address",
          "name": "_accountNo",
          "type": "address"
        }
      ],
      "name": "getAccountBalance",
      "outputs": [
        {
          "internalType": "uint256",
          "name": "",
          "type": "uint256"
        }
      ],
      "stateMutability": "view",
      "type": "function"
    },
    {
      "inputs": [],
      "name": "owner",
      "outputs": [
        {
          "internalType": "address",
          "name": "",
          "type": "address"
        }
      ],
      "stateMutability": "view",
      "type": "function"
    },
    {
      "inputs": [],
      "name": "tokenName",
      "outputs": [
        {
          "internalType": "string",
          "name": "",
          "type": "string"
        }
      ],
      "stateMutability": "view",
      "type": "function"
    },
    {
      "inputs": [],
      "name": "tokenSymbol",
      "outputs": [
        {
          "internalType": "string",
          "name": "",
          "type": "string"
        }
      ],
      "stateMutability": "view",
      "type": "function"
    },
    {
      "inputs": [],
      "name": "totalSupply",
      "outputs": [
        {
          "internalType": "uint256",
          "name": "",
          "type": "uint256"
        }
      ],
      "stateMutability": "view",
      "type": "function"
    },
    {
      "inputs": [
        {
          "internalType": "address",
          "name": "_to",
          "type": "address"
        },
        {
          "internalType": "uint256",
          "name": "_amount",
          "type": "uint256"
        }
      ],
      "name": "transferToken",
      "outputs": [],
      "stateMutability": "nonpayable",
      "type": "function"
    }
  ],
  "bytecode": "0x6080604052604051806020016040528060008152506000908162000024919062000363565b50604051806020016040528060008152506001908162000045919062000363565b50633b9aca006002553480156200005b57600080fd5b50600254600460003373ffffffffffffffffffffffffffffffffffffffff1673ffffffffffffffffffffffffffffffffffffffff1681526020019081526020016000208190555033600360006101000a81548173ffffffffffffffffffffffffffffffffffffffff021916908373ffffffffffffffffffffffffffffffffffffffff1602179055506200044a565b600081519050919050565b7f4e487b7100000000000000000000000000000000000000000000000000000000600052604160045260246000fd5b7f4e487b7100000000000000000000000000000000000000000000000000000000600052602260045260246000fd5b600060028204905060018216806200016b57607f821691505b60208210810362000181576200018062000123565b5b50919050565b60008190508160005260206000209050919050565b60006020601f8301049050919050565b600082821b905092915050565b600060088302620001eb7fffffffffffffffffffffffffffffffffffffffffffffffffffffffffffffffff82620001ac565b620001f78683620001ac565b95508019841693508086168417925050509392505050565b6000819050919050565b6000819050919050565b6000620002446200023e62000238846200020f565b62000219565b6200020f565b9050919050565b6000819050919050565b620002608362000223565b620002786200026f826200024b565b848454620001b9565b825550505050565b600090565b6200028f62000280565b6200029c81848462000255565b505050565b5b81811015620002c457620002b860008262000285565b600181019050620002a2565b5050565b601f8211156200031357620002dd8162000187565b620002e8846200019c565b81016020851015620002f8578190505b6200031062000307856200019c565b830182620002a1565b50505b505050565b600082821c905092915050565b6000620003386000198460080262000318565b1980831691505092915050565b600062000353838362000325565b9150826002028217905092915050565b6200036e82620000e9565b67ffffffffffffffff8111156200038a5762000389620000f4565b5b62000396825462000152565b620003a3828285620002c8565b600060209050601f831160018114620003db5760008415620003c6578287015190505b620003d2858262000345565b86555062000442565b601f198416620003eb8662000187565b60005b828110156200041557848901518255600182019150602085019450602081019050620003ee565b8683101562000435578489015162000431601f89168262000325565b8355505b6001600288020188555050505b505050505050565b61085b806200045a6000396000f3fe608060405234801561001057600080fd5b506004361061007d5760003560e01c80636c02a9311161005b5780636c02a931146100ec5780637b61c3201461010a5780638da5cb5b1461012857806393423e9c146101465761007d565b80631072cbea1461008257806318160ddd1461009e57806327e235e3146100bc575b600080fd5b61009c6004803603810190610097919061054f565b610176565b005b6100a661030d565b6040516100b3919061059e565b60405180910390f35b6100d660048036038101906100d191906105b9565b610313565b6040516100e3919061059e565b60405180910390f35b6100f461032b565b6040516101019190610676565b60405180910390f35b6101126103b9565b60405161011f9190610676565b60405180910390f35b610130610447565b60405161013d91906106a7565b60405180910390f35b610160600480360381019061015b91906105b9565b61046d565b60405161016d919061059e565b60405180910390f35b80600460003373ffffffffffffffffffffffffffffffffffffffff1673ffffffffffffffffffffffffffffffffffffffff1681526020019081526020016000205410156101f8576040517f08c379a00000000000000000000000000000000000000000000000000000000081526004016101ef9061070e565b60405180910390fd5b80600460003373ffffffffffffffffffffffffffffffffffffffff1673ffffffffffffffffffffffffffffffffffffffff1681526020019081526020016000206000828254610247919061075d565b9250508190555080600460008473ffffffffffffffffffffffffffffffffffffffff1673ffffffffffffffffffffffffffffffffffffffff168152602001908152602001600020600082825461029d9190610791565b925050819055508173ffffffffffffffffffffffffffffffffffffffff163373ffffffffffffffffffffffffffffffffffffffff167fddf252ad1be2c89b69c2b068fc378daa952ba7f163c4a11628f55a4df523b3ef83604051610301919061059e565b60405180910390a35050565b60025481565b60046020528060005260406000206000915090505481565b60008054610338906107f4565b80601f0160208091040260200160405190810160405280929190818152602001828054610364906107f4565b80156103b15780601f10610386576101008083540402835291602001916103b1565b820191906000526020600020905b81548152906001019060200180831161039457829003601f168201915b505050505081565b600180546103c6906107f4565b80601f01602080910402602001604051908101604052809291908181526020018280546103f2906107f4565b801561043f5780601f106104145761010080835404028352916020019161043f565b820191906000526020600020905b81548152906001019060200180831161042257829003601f168201915b505050505081565b600360009054906101000a900473ffffffffffffffffffffffffffffffffffffffff1681565b6000600460008373ffffffffffffffffffffffffffffffffffffffff1673ffffffffffffffffffffffffffffffffffffffff168152602001908152602001600020549050919050565b600080fd5b600073ffffffffffffffffffffffffffffffffffffffff82169050919050565b60006104e6826104bb565b9050919050565b6104f6816104db565b811461050157600080fd5b50565b600081359050610513816104ed565b92915050565b6000819050919050565b61052c81610519565b811461053757600080fd5b50565b60008135905061054981610523565b92915050565b60008060408385031215610566576105656104b6565b5b600061057485828601610504565b92505060206105858582860161053a565b9150509250929050565b61059881610519565b82525050565b60006020820190506105b3600083018461058f565b92915050565b6000602082840312156105cf576105ce6104b6565b5b60006105dd84828501610504565b91505092915050565b600081519050919050565b600082825260208201905092915050565b60005b83811015610620578082015181840152602081019050610605565b60008484015250505050565b6000601f19601f8301169050919050565b6000610648826105e6565b61065281856105f1565b9350610662818560208601610602565b61066b8161062c565b840191505092915050565b60006020820190508181036000830152610690818461063d565b905092915050565b6106a1816104db565b82525050565b60006020820190506106bc6000830184610698565b92915050565b7f496e73756666696369656e7420546f6b656e0000000000000000000000000000600082015250565b60006106f86012836105f1565b9150610703826106c2565b602082019050919050565b60006020820190508181036000830152610727816106eb565b9050919050565b7f4e487b7100000000000000000000000000000000000000000000000000000000600052601160045260246000fd5b600061076882610519565b915061077383610519565b925082820390508181111561078b5761078a61072e565b5b92915050565b600061079c82610519565b91506107a783610519565b92508282019050808211156107bf576107be61072e565b5b92915050565b7f4e487b7100000000000000000000000000000000000000000000000000000000600052602260045260246000fd5b6000600282049050600182168061080c57607f821691505b60208210810361081f5761081e6107c5565b5b5091905056fea2646970667358221220d9c7c8f999989486e5804f197e669af348f068e807826e7d5dcf933012ca5f4264736f6c63430008110033",
  "linkReferences": {},
  "deployedLinkReferences": {}
}