{
  "_format": "hh-sol-artifact-1",
  "contractName": "Voting",
  "sourceName": "src/contracts/Voting.sol",
  "abi": [
    {
      "anonymous": false,
      "inputs": [
        {
          "indexed": false,
          "internalType": "string",
          "name": "fullName",
          "type": "string"
        },
        {
          "indexed": true,
          "internalType": "address",
          "name": "voter",
          "type": "address"
        },
        {
          "indexed": false,
          "internalType": "uint256",
          "name": "timestamp",
          "type": "uint256"
        }
      ],
      "name": "Voted",
      "type": "event"
    },
    {
      "inputs": [
        {
          "internalType": "uint256",
          "name": "_id",
          "type": "uint256"
        }
      ],
      "name": "contest",
      "outputs": [],
      "stateMutability": "nonpayable",
      "type": "function"
    },
    {
      "inputs": [
        {
          "internalType": "uint256",
          "name": "",
          "type": "uint256"
        },
        {
          "internalType": "uint256",
          "name": "",
          "type": "uint256"
        }
      ],
      "name": "contestantIn",
      "outputs": [
        {
          "internalType": "uint256",
          "name": "id",
          "type": "uint256"
        },
        {
          "internalType": "string",
          "name": "image",
          "type": "string"
        },
        {
          "internalType": "string",
          "name": "fullName",
          "type": "string"
        },
        {
          "internalType": "address",
          "name": "voterAddress",
          "type": "address"
        },
        {
          "internalType": "uint256",
          "name": "totalVotes",
          "type": "uint256"
        }
      ],
      "stateMutability": "view",
      "type": "function"
    },
    {
      "inputs": [
        {
          "internalType": "uint256",
          "name": "",
          "type": "uint256"
        },
        {
          "internalType": "address",
          "name": "",
          "type": "address"
        }
      ],
      "name": "contested",
      "outputs": [
        {
          "internalType": "bool",
          "name": "",
          "type": "bool"
        }
      ],
      "stateMutability": "view",
      "type": "function"
    },
    {
      "inputs": [
        {
          "internalType": "string",
          "name": "_image",
          "type": "string"
        },
        {
          "internalType": "string",
          "name": "_title",
          "type": "string"
        },
        {
          "internalType": "string",
          "name": "_description",
          "type": "string"
        },
        {
          "internalType": "uint256",
          "name": "_startsAt",
          "type": "uint256"
        },
        {
          "internalType": "uint256",
          "name": "_endsAt",
          "type": "uint256"
        }
      ],
      "name": "createPoll",
      "outputs": [],
      "stateMutability": "nonpayable",
      "type": "function"
    },
    {
      "inputs": [
        {
          "internalType": "uint256",
          "name": "_pollId",
          "type": "uint256"
        }
      ],
      "name": "deletePollById",
      "outputs": [],
      "stateMutability": "nonpayable",
      "type": "function"
    },
    {
      "inputs": [
        {
          "internalType": "uint256",
          "name": "_pollId",
          "type": "uint256"
        }
      ],
      "name": "getAllContestantsByPoll",
      "outputs": [
        {
          "components": [
            {
              "internalType": "uint256",
              "name": "id",
              "type": "uint256"
            },
            {
              "internalType": "string",
              "name": "image",
              "type": "string"
            },
            {
              "internalType": "string",
              "name": "fullName",
              "type": "string"
            },
            {
              "internalType": "address",
              "name": "voterAddress",
              "type": "address"
            },
            {
              "internalType": "uint256",
              "name": "totalVotes",
              "type": "uint256"
            },
            {
              "internalType": "address[]",
              "name": "voters",
              "type": "address[]"
            }
          ],
          "internalType": "struct Voting.Voter[]",
          "name": "",
          "type": "tuple[]"
        }
      ],
      "stateMutability": "view",
      "type": "function"
    },
    {
      "inputs": [],
      "name": "getAllPolls",
      "outputs": [
        {
          "components": [
            {
              "internalType": "uint256",
              "name": "id",
              "type": "uint256"
            },
            {
              "internalType": "string",
              "name": "image",
              "type": "string"
            },
            {
              "internalType": "string",
              "name": "title",
              "type": "string"
            },
            {
              "internalType": "string",
              "name": "description",
              "type": "string"
            },
            {
              "internalType": "uint256",
              "name": "totalVotes",
              "type": "uint256"
            },
            {
              "internalType": "uint256",
              "name": "totalContestants",
              "type": "uint256"
            },
            {
              "internalType": "bool",
              "name": "deleted",
              "type": "bool"
            },
            {
              "internalType": "address",
              "name": "director",
              "type": "address"
            },
            {
              "internalType": "uint256",
              "name": "startsAt",
              "type": "uint256"
            },
            {
              "internalType": "uint256",
              "name": "endsAt",
              "type": "uint256"
            },
            {
              "internalType": "uint256",
              "name": "createdAt",
              "type": "uint256"
            },
            {
              "internalType": "uint256",
              "name": "updatedAt",
              "type": "uint256"
            }
          ],
          "internalType": "struct Voting.Poll[]",
          "name": "",
          "type": "tuple[]"
        }
      ],
      "stateMutability": "view",
      "type": "function"
    },
    {
      "inputs": [
        {
          "internalType": "uint256",
          "name": "_pollId",
          "type": "uint256"
        }
      ],
      "name": "getPollById",
      "outputs": [
        {
          "components": [
            {
              "internalType": "uint256",
              "name": "id",
              "type": "uint256"
            },
            {
              "internalType": "string",
              "name": "image",
              "type": "string"
            },
            {
              "internalType": "string",
              "name": "title",
              "type": "string"
            },
            {
              "internalType": "string",
              "name": "description",
              "type": "string"
            },
            {
              "internalType": "uint256",
              "name": "totalVotes",
              "type": "uint256"
            },
            {
              "internalType": "uint256",
              "name": "totalContestants",
              "type": "uint256"
            },
            {
              "internalType": "bool",
              "name": "deleted",
              "type": "bool"
            },
            {
              "internalType": "address",
              "name": "director",
              "type": "address"
            },
            {
              "internalType": "uint256",
              "name": "startsAt",
              "type": "uint256"
            },
            {
              "internalType": "uint256",
              "name": "endsAt",
              "type": "uint256"
            },
            {
              "internalType": "uint256",
              "name": "createdAt",
              "type": "uint256"
            },
            {
              "internalType": "uint256",
              "name": "updatedAt",
              "type": "uint256"
            }
          ],
          "internalType": "struct Voting.Poll",
          "name": "",
          "type": "tuple"
        }
      ],
      "stateMutability": "view",
      "type": "function"
    },
    {
      "inputs": [
        {
          "internalType": "string",
          "name": "_image",
          "type": "string"
        },
        {
          "internalType": "string",
          "name": "_fullName",
          "type": "string"
        }
      ],
      "name": "registerUser",
      "outputs": [],
      "stateMutability": "nonpayable",
      "type": "function"
    },
    {
      "inputs": [],
      "name": "totalPolls",
      "outputs": [
        {
          "internalType": "uint256",
          "name": "",
          "type": "uint256"
        }
      ],
      "stateMutability": "view",
      "type": "function"
    },
    {
      "inputs": [],
      "name": "totalUsers",
      "outputs": [
        {
          "internalType": "uint256",
          "name": "",
          "type": "uint256"
        }
      ],
      "stateMutability": "view",
      "type": "function"
    },
    {
      "inputs": [
        {
          "internalType": "uint256",
          "name": "_pollId",
          "type": "uint256"
        },
        {
          "internalType": "string",
          "name": "_image",
          "type": "string"
        },
        {
          "internalType": "string",
          "name": "_title",
          "type": "string"
        },
        {
          "internalType": "string",
          "name": "_description",
          "type": "string"
        },
        {
          "internalType": "uint256",
          "name": "_startsAt",
          "type": "uint256"
        },
        {
          "internalType": "uint256",
          "name": "_endsAt",
          "type": "uint256"
        }
      ],
      "name": "updatePollById",
      "outputs": [],
      "stateMutability": "nonpayable",
      "type": "function"
    },
    {
      "inputs": [
        {
          "internalType": "address",
          "name": "",
          "type": "address"
        }
      ],
      "name": "users",
      "outputs": [
        {
          "internalType": "uint256",
          "name": "id",
          "type": "uint256"
        },
        {
          "internalType": "string",
          "name": "image",
          "type": "string"
        },
        {
          "internalType": "string",
          "name": "fullName",
          "type": "string"
        },
        {
          "internalType": "address",
          "name": "voterAddress",
          "type": "address"
        },
        {
          "internalType": "uint256",
          "name": "totalVotes",
          "type": "uint256"
        }
      ],
      "stateMutability": "view",
      "type": "function"
    },
    {
      "inputs": [
        {
          "internalType": "uint256",
          "name": "_pollId",
          "type": "uint256"
        },
        {
          "internalType": "uint256",
          "name": "_contestantId",
          "type": "uint256"
        }
      ],
      "name": "voteContestant",
      "outputs": [],
      "stateMutability": "nonpayable",
      "type": "function"
    },
    {
      "inputs": [
        {
          "internalType": "uint256",
          "name": "",
          "type": "uint256"
        },
        {
          "internalType": "address",
          "name": "",
          "type": "address"
        }
      ],
      "name": "voted",
      "outputs": [
        {
          "internalType": "bool",
          "name": "",
          "type": "bool"
        }
      ],
      "stateMutability": "view",
      "type": "function"
    }
  ],
  "bytecode": "0x608060405234801561001057600080fd5b5061399c806100206000396000f3fe608060405234801561001057600080fd5b50600436106100f55760003560e01c8063a2eeeb2f11610097578063d4bc5e9111610066578063d4bc5e9114610278578063da5199cb146102a8578063e8e35632146102d8578063f0d0bc4514610308576100f5565b8063a2eeeb2f146101d4578063a87430ba146101f2578063bff1f9e114610226578063c16c9e0314610244576100f5565b80636b56dd23116100d35780636b56dd2314610164578063729428401461018057806393c2f2221461019c5780639d1c0bc6146101b8576100f5565b80631d2e4afd146100fa57806332b633fa146101165780635277b4ae14610134575b600080fd5b610114600480360381019061010f9190612622565b610324565b005b61011e610482565b60405161012b9190612962565b60405180910390f35b61014e600480360381019061014991906129dc565b61074f565b60405161015b9190612a2b565b60405180910390f35b61017e60048036038101906101799190612a46565b61077e565b005b61019a60048036038101906101959190612a73565b6108d6565b005b6101b660048036038101906101b19190612ab3565b610d43565b005b6101d260048036038101906101cd9190612a46565b611129565b005b6101dc61165e565b6040516101e99190612ba3565b60405180910390f35b61020c60048036038101906102079190612bbe565b611664565b60405161021d959493929190612c44565b60405180910390f35b61022e6117ca565b60405161023b9190612ba3565b60405180910390f35b61025e60048036038101906102599190612a73565b6117d0565b60405161026f959493929190612c44565b60405180910390f35b610292600480360381019061028d9190612a46565b611953565b60405161029f9190612db7565b60405180910390f35b6102c260048036038101906102bd9190612a46565b611c5f565b6040516102cf9190612fe1565b60405180910390f35b6102f260048036038101906102ed91906129dc565b611f4f565b6040516102ff9190612a2b565b60405180910390f35b610322600480360381019061031d9190613003565b611f7e565b005b61032c61235c565b6001600081548092919061033f90613101565b9190505581600001818152505082816020018190525081816040018190525033816060019073ffffffffffffffffffffffffffffffffffffffff16908173ffffffffffffffffffffffffffffffffffffffff168152505080600360003373ffffffffffffffffffffffffffffffffffffffff1673ffffffffffffffffffffffffffffffffffffffff1681526020019081526020016000206000820151816000015560208201518160010190816103f59190613355565b50604082015181600201908161040b9190613355565b5060608201518160030160006101000a81548173ffffffffffffffffffffffffffffffffffffffff021916908373ffffffffffffffffffffffffffffffffffffffff1602179055506080820151816004015560a08201518160050190805190602001906104799291906123a8565b50905050505050565b60606002805480602002602001604051908101604052809291908181526020016000905b8282101561074657838290600052602060002090600b020160405180610180016040529081600082015481526020016001820180546104e490613178565b80601f016020809104026020016040519081016040528092919081815260200182805461051090613178565b801561055d5780601f106105325761010080835404028352916020019161055d565b820191906000526020600020905b81548152906001019060200180831161054057829003601f168201915b5050505050815260200160028201805461057690613178565b80601f01602080910402602001604051908101604052809291908181526020018280546105a290613178565b80156105ef5780601f106105c4576101008083540402835291602001916105ef565b820191906000526020600020905b8154815290600101906020018083116105d257829003601f168201915b5050505050815260200160038201805461060890613178565b80601f016020809104026020016040519081016040528092919081815260200182805461063490613178565b80156106815780601f1061065657610100808354040283529160200191610681565b820191906000526020600020905b81548152906001019060200180831161066457829003601f168201915b5050505050815260200160048201548152602001600582015481526020016006820160009054906101000a900460ff161515151581526020016006820160019054906101000a900473ffffffffffffffffffffffffffffffffffffffff1673ffffffffffffffffffffffffffffffffffffffff1673ffffffffffffffffffffffffffffffffffffffff168152602001600782015481526020016008820154815260200160098201548152602001600a82015481525050815260200190600101906104a6565b50505050905090565b60046020528160005260406000206020528060005260406000206000915091509054906101000a900460ff1681565b6002818154811061079257610791613427565b5b90600052602060002090600b020160060160019054906101000a900473ffffffffffffffffffffffffffffffffffffffff163373ffffffffffffffffffffffffffffffffffffffff168173ffffffffffffffffffffffffffffffffffffffff1614610832576040517f08c379a0000000000000000000000000000000000000000000000000000000008152600401610829906134a2565b60405180910390fd5b816008600082815260200190815260200160002060009054906101000a900460ff16610893576040517f08c379a000000000000000000000000000000000000000000000000000000000815260040161088a9061350e565b60405180910390fd5b6001600284815481106108a9576108a8613427565b5b90600052602060002090600b020160060160006101000a81548160ff021916908315150217905550505050565b3373ffffffffffffffffffffffffffffffffffffffff16600360003373ffffffffffffffffffffffffffffffffffffffff1673ffffffffffffffffffffffffffffffffffffffff16815260200190815260200160002060030160009054906101000a900473ffffffffffffffffffffffffffffffffffffffff1673ffffffffffffffffffffffffffffffffffffffff16146109a6576040517f08c379a000000000000000000000000000000000000000000000000000000000815260040161099d9061357a565b60405180910390fd5b816008600082815260200190815260200160002060009054906101000a900460ff16610a07576040517f08c379a00000000000000000000000000000000000000000000000000000000081526004016109fe9061350e565b60405180910390fd5b82336004600083815260200190815260200160002060008273ffffffffffffffffffffffffffffffffffffffff1673ffffffffffffffffffffffffffffffffffffffff16815260200190815260200160002060009054906101000a900460ff1615610aa7576040517f08c379a0000000000000000000000000000000000000000000000000000000008152600401610a9e906135e6565b60405180910390fd5b8460028181548110610abc57610abb613427565b5b90600052602060002090600b020160060160009054906101000a900460ff1615610b1b576040517f08c379a0000000000000000000000000000000000000000000000000000000008152600401610b1290613652565b60405180910390fd5b8560028181548110610b3057610b2f613427565b5b90600052602060002090600b02016007015442118015610b7457504260028281548110610b6057610b5f613427565b5b90600052602060002090600b020160080154115b610bb3576040517f08c379a0000000000000000000000000000000000000000000000000000000008152600401610baa906136be565b60405180910390fd5b60028781548110610bc757610bc6613427565b5b90600052602060002090600b02016004016000815480929190610be990613101565b9190505550600660008881526020019081526020016000208681548110610c1357610c12613427565b5b90600052602060002090600602016004016000815480929190610c3590613101565b9190505550600660008881526020019081526020016000208681548110610c5f57610c5e613427565b5b9060005260206000209060060201600501339080600181540180825580915050600190039060005260206000200160009091909190916101000a81548173ffffffffffffffffffffffffffffffffffffffff021916908373ffffffffffffffffffffffffffffffffffffffff16021790555060016004600089815260200190815260200160002060003373ffffffffffffffffffffffffffffffffffffffff1673ffffffffffffffffffffffffffffffffffffffff16815260200190815260200160002060006101000a81548160ff02191690831515021790555050505050505050565b3373ffffffffffffffffffffffffffffffffffffffff16600360003373ffffffffffffffffffffffffffffffffffffffff1673ffffffffffffffffffffffffffffffffffffffff16815260200190815260200160002060030160009054906101000a900473ffffffffffffffffffffffffffffffffffffffff1673ffffffffffffffffffffffffffffffffffffffff1614610e13576040517f08c379a0000000000000000000000000000000000000000000000000000000008152600401610e0a9061357a565b60405180910390fd5b856008600082815260200190815260200160002060009054906101000a900460ff16610e74576040517f08c379a0000000000000000000000000000000000000000000000000000000008152600401610e6b9061350e565b60405180910390fd5b866001151560028281548110610e8d57610e8c613427565b5b90600052602060002090600b020160060160009054906101000a900460ff16151503610eee576040517f08c379a0000000000000000000000000000000000000000000000000000000008152600401610ee59061372a565b60405180910390fd5b6000875111610f32576040517f08c379a0000000000000000000000000000000000000000000000000000000008152600401610f2990613796565b60405180910390fd5b6000865111610f76576040517f08c379a0000000000000000000000000000000000000000000000000000000008152600401610f6d90613802565b60405180910390fd5b6000855111610fba576040517f08c379a0000000000000000000000000000000000000000000000000000000008152600401610fb19061386e565b60405180910390fd5b600083118015610fc957508383115b611008576040517f08c379a0000000000000000000000000000000000000000000000000000000008152600401610fff906138da565b60405180910390fd5b856002898154811061101d5761101c613427565b5b90600052602060002090600b0201600201908161103a9190613355565b5084600289815481106110505761104f613427565b5b90600052602060002090600b0201600301908161106d9190613355565b50866002898154811061108357611082613427565b5b90600052602060002090600b020160010190816110a09190613355565b5083600289815481106110b6576110b5613427565b5b90600052602060002090600b02016007018190555082600289815481106110e0576110df613427565b5b90600052602060002090600b020160080181905550426002898154811061110a57611109613427565b5b90600052602060002090600b0201600a01819055505050505050505050565b806008600082815260200190815260200160002060009054906101000a900460ff1661118a576040517f08c379a00000000000000000000000000000000000000000000000000000000081526004016111819061350e565b60405180910390fd5b600760003373ffffffffffffffffffffffffffffffffffffffff1673ffffffffffffffffffffffffffffffffffffffff16815260200190815260200160002060009054906101000a900460ff16611216576040517f08c379a000000000000000000000000000000000000000000000000000000000815260040161120d90613946565b60405180910390fd5b6000600360003373ffffffffffffffffffffffffffffffffffffffff1673ffffffffffffffffffffffffffffffffffffffff1681526020019081526020016000206040518060c00160405290816000820154815260200160018201805461127c90613178565b80601f01602080910402602001604051908101604052809291908181526020018280546112a890613178565b80156112f55780601f106112ca576101008083540402835291602001916112f5565b820191906000526020600020905b8154815290600101906020018083116112d857829003601f168201915b5050505050815260200160028201805461130e90613178565b80601f016020809104026020016040519081016040528092919081815260200182805461133a90613178565b80156113875780601f1061135c57610100808354040283529160200191611387565b820191906000526020600020905b81548152906001019060200180831161136a57829003601f168201915b505050505081526020016003820160009054906101000a900473ffffffffffffffffffffffffffffffffffffffff1673ffffffffffffffffffffffffffffffffffffffff1673ffffffffffffffffffffffffffffffffffffffff168152602001600482015481526020016005820180548060200260200160405190810160405280929190818152602001828054801561147557602002820191906000526020600020905b8160009054906101000a900473ffffffffffffffffffffffffffffffffffffffff1673ffffffffffffffffffffffffffffffffffffffff168152602001906001019080831161142b575b5050505050815250509050600760003373ffffffffffffffffffffffffffffffffffffffff1673ffffffffffffffffffffffffffffffffffffffff16815260200190815260200160002060009054906101000a900460ff16611659576006600084815260200190815260200160002081908060018154018082558091505060019003906000526020600020906006020160009091909190915060008201518160000155602082015181600101908161152d9190613355565b5060408201518160020190816115439190613355565b5060608201518160030160006101000a81548173ffffffffffffffffffffffffffffffffffffffff021916908373ffffffffffffffffffffffffffffffffffffffff1602179055506080820151816004015560a08201518160050190805190602001906115b19291906123a8565b50505060016005600085815260200190815260200160002060003373ffffffffffffffffffffffffffffffffffffffff1673ffffffffffffffffffffffffffffffffffffffff16815260200190815260200160002060006101000a81548160ff0219169083151502179055506002838154811061163157611630613427565b5b90600052602060002090600b0201600501600081548092919061165390613101565b91905055505b505050565b60005481565b600360205280600052604060002060009150905080600001549080600101805461168d90613178565b80601f01602080910402602001604051908101604052809291908181526020018280546116b990613178565b80156117065780601f106116db57610100808354040283529160200191611706565b820191906000526020600020905b8154815290600101906020018083116116e957829003601f168201915b50505050509080600201805461171b90613178565b80601f016020809104026020016040519081016040528092919081815260200182805461174790613178565b80156117945780601f1061176957610100808354040283529160200191611794565b820191906000526020600020905b81548152906001019060200180831161177757829003601f168201915b5050505050908060030160009054906101000a900473ffffffffffffffffffffffffffffffffffffffff16908060040154905085565b60015481565b600660205281600052604060002081815481106117ec57600080fd5b90600052602060002090600602016000915091505080600001549080600101805461181690613178565b80601f016020809104026020016040519081016040528092919081815260200182805461184290613178565b801561188f5780601f106118645761010080835404028352916020019161188f565b820191906000526020600020905b81548152906001019060200180831161187257829003601f168201915b5050505050908060020180546118a490613178565b80601f01602080910402602001604051908101604052809291908181526020018280546118d090613178565b801561191d5780601f106118f25761010080835404028352916020019161191d565b820191906000526020600020905b81548152906001019060200180831161190057829003601f168201915b5050505050908060030160009054906101000a900473ffffffffffffffffffffffffffffffffffffffff16908060040154905085565b61195b612432565b816008600082815260200190815260200160002060009054906101000a900460ff166119bc576040517f08c379a00000000000000000000000000000000000000000000000000000000081526004016119b39061350e565b60405180910390fd5b600283815481106119d0576119cf613427565b5b90600052602060002090600b02016040518061018001604052908160008201548152602001600182018054611a0490613178565b80601f0160208091040260200160405190810160405280929190818152602001828054611a3090613178565b8015611a7d5780601f10611a5257610100808354040283529160200191611a7d565b820191906000526020600020905b815481529060010190602001808311611a6057829003601f168201915b50505050508152602001600282018054611a9690613178565b80601f0160208091040260200160405190810160405280929190818152602001828054611ac290613178565b8015611b0f5780601f10611ae457610100808354040283529160200191611b0f565b820191906000526020600020905b815481529060010190602001808311611af257829003601f168201915b50505050508152602001600382018054611b2890613178565b80601f0160208091040260200160405190810160405280929190818152602001828054611b5490613178565b8015611ba15780601f10611b7657610100808354040283529160200191611ba1565b820191906000526020600020905b815481529060010190602001808311611b8457829003601f168201915b5050505050815260200160048201548152602001600582015481526020016006820160009054906101000a900460ff161515151581526020016006820160019054906101000a900473ffffffffffffffffffffffffffffffffffffffff1673ffffffffffffffffffffffffffffffffffffffff1673ffffffffffffffffffffffffffffffffffffffff168152602001600782015481526020016008820154815260200160098201548152602001600a82015481525050915050919050565b6060816008600082815260200190815260200160002060009054906101000a900460ff16611cc2576040517f08c379a0000000000000000000000000000000000000000000000000000000008152600401611cb99061350e565b60405180910390fd5b60066000848152602001908152602001600020805480602002602001604051908101604052809291908181526020016000905b82821015611f4357838290600052602060002090600602016040518060c001604052908160008201548152602001600182018054611d3290613178565b80601f0160208091040260200160405190810160405280929190818152602001828054611d5e90613178565b8015611dab5780601f10611d8057610100808354040283529160200191611dab565b820191906000526020600020905b815481529060010190602001808311611d8e57829003601f168201915b50505050508152602001600282018054611dc490613178565b80601f0160208091040260200160405190810160405280929190818152602001828054611df090613178565b8015611e3d5780601f10611e1257610100808354040283529160200191611e3d565b820191906000526020600020905b815481529060010190602001808311611e2057829003601f168201915b505050505081526020016003820160009054906101000a900473ffffffffffffffffffffffffffffffffffffffff1673ffffffffffffffffffffffffffffffffffffffff1673ffffffffffffffffffffffffffffffffffffffff1681526020016004820154815260200160058201805480602002602001604051908101604052809291908181526020018280548015611f2b57602002820191906000526020600020905b8160009054906101000a900473ffffffffffffffffffffffffffffffffffffffff1673ffffffffffffffffffffffffffffffffffffffff1681526020019060010190808311611ee1575b50505050508152505081526020019060010190611cf5565b50505050915050919050565b60056020528160005260406000206020528060005260406000206000915091509054906101000a900460ff1681565b3373ffffffffffffffffffffffffffffffffffffffff16600360003373ffffffffffffffffffffffffffffffffffffffff1673ffffffffffffffffffffffffffffffffffffffff16815260200190815260200160002060030160009054906101000a900473ffffffffffffffffffffffffffffffffffffffff1673ffffffffffffffffffffffffffffffffffffffff161461204e576040517f08c379a00000000000000000000000000000000000000000000000000000000081526004016120459061357a565b60405180910390fd5b6000855111612092576040517f08c379a000000000000000000000000000000000000000000000000000000000815260040161208990613796565b60405180910390fd5b60008451116120d6576040517f08c379a00000000000000000000000000000000000000000000000000000000081526004016120cd90613802565b60405180910390fd5b600083511161211a576040517f08c379a00000000000000000000000000000000000000000000000000000000081526004016121119061386e565b60405180910390fd5b60008111801561212957508181115b612168576040517f08c379a000000000000000000000000000000000000000000000000000000000815260040161215f906138da565b60405180910390fd5b612170612432565b60008081548092919061218290613101565b9190505581600001818152505084816040018190525083816060018190525085816020018190525082816101000181815250508181610120018181525050338160e0019073ffffffffffffffffffffffffffffffffffffffff16908173ffffffffffffffffffffffffffffffffffffffff1681525050428161014001818152505060028190806001815401808255809150506001900390600052602060002090600b020160009091909190915060008201518160000155602082015181600101908161224e9190613355565b5060408201518160020190816122649190613355565b50606082015181600301908161227a9190613355565b506080820151816004015560a0820151816005015560c08201518160060160006101000a81548160ff02191690831515021790555060e08201518160060160016101000a81548173ffffffffffffffffffffffffffffffffffffffff021916908373ffffffffffffffffffffffffffffffffffffffff16021790555061010082015181600701556101208201518160080155610140820151816009015561016082015181600a015550506001600860008360000151815260200190815260200160002060006101000a81548160ff021916908315150217905550505050505050565b6040518060c00160405280600081526020016060815260200160608152602001600073ffffffffffffffffffffffffffffffffffffffff16815260200160008152602001606081525090565b828054828255906000526020600020908101928215612421579160200282015b828111156124205782518260006101000a81548173ffffffffffffffffffffffffffffffffffffffff021916908373ffffffffffffffffffffffffffffffffffffffff160217905550916020019190600101906123c8565b5b50905061242e91906124ab565b5090565b604051806101800160405280600081526020016060815260200160608152602001606081526020016000815260200160008152602001600015158152602001600073ffffffffffffffffffffffffffffffffffffffff168152602001600081526020016000815260200160008152602001600081525090565b5b808211156124c45760008160009055506001016124ac565b5090565b6000604051905090565b600080fd5b600080fd5b600080fd5b600080fd5b6000601f19601f8301169050919050565b7f4e487b7100000000000000000000000000000000000000000000000000000000600052604160045260246000fd5b61252f826124e6565b810181811067ffffffffffffffff8211171561254e5761254d6124f7565b5b80604052505050565b60006125616124c8565b905061256d8282612526565b919050565b600067ffffffffffffffff82111561258d5761258c6124f7565b5b612596826124e6565b9050602081019050919050565b82818337600083830152505050565b60006125c56125c084612572565b612557565b9050828152602081018484840111156125e1576125e06124e1565b5b6125ec8482856125a3565b509392505050565b600082601f830112612609576126086124dc565b5b81356126198482602086016125b2565b91505092915050565b60008060408385031215612639576126386124d2565b5b600083013567ffffffffffffffff811115612657576126566124d7565b5b612663858286016125f4565b925050602083013567ffffffffffffffff811115612684576126836124d7565b5b612690858286016125f4565b9150509250929050565b600081519050919050565b600082825260208201905092915050565b6000819050602082019050919050565b6000819050919050565b6126d9816126c6565b82525050565b600081519050919050565b600082825260208201905092915050565b60005b838110156127195780820151818401526020810190506126fe565b60008484015250505050565b6000612730826126df565b61273a81856126ea565b935061274a8185602086016126fb565b612753816124e6565b840191505092915050565b60008115159050919050565b6127738161275e565b82525050565b600073ffffffffffffffffffffffffffffffffffffffff82169050919050565b60006127a482612779565b9050919050565b6127b481612799565b82525050565b6000610180830160008301516127d360008601826126d0565b50602083015184820360208601526127eb8282612725565b915050604083015184820360408601526128058282612725565b9150506060830151848203606086015261281f8282612725565b915050608083015161283460808601826126d0565b5060a083015161284760a08601826126d0565b5060c083015161285a60c086018261276a565b5060e083015161286d60e08601826127ab565b506101008301516128826101008601826126d0565b506101208301516128976101208601826126d0565b506101408301516128ac6101408601826126d0565b506101608301516128c16101608601826126d0565b508091505092915050565b60006128d883836127ba565b905092915050565b6000602082019050919050565b60006128f88261269a565b61290281856126a5565b935083602082028501612914856126b6565b8060005b85811015612950578484038952815161293185826128cc565b945061293c836128e0565b925060208a01995050600181019050612918565b50829750879550505050505092915050565b6000602082019050818103600083015261297c81846128ed565b905092915050565b61298d816126c6565b811461299857600080fd5b50565b6000813590506129aa81612984565b92915050565b6129b981612799565b81146129c457600080fd5b50565b6000813590506129d6816129b0565b92915050565b600080604083850312156129f3576129f26124d2565b5b6000612a018582860161299b565b9250506020612a12858286016129c7565b9150509250929050565b612a258161275e565b82525050565b6000602082019050612a406000830184612a1c565b92915050565b600060208284031215612a5c57612a5b6124d2565b5b6000612a6a8482850161299b565b91505092915050565b60008060408385031215612a8a57612a896124d2565b5b6000612a988582860161299b565b9250506020612aa98582860161299b565b9150509250929050565b60008060008060008060c08789031215612ad057612acf6124d2565b5b6000612ade89828a0161299b565b965050602087013567ffffffffffffffff811115612aff57612afe6124d7565b5b612b0b89828a016125f4565b955050604087013567ffffffffffffffff811115612b2c57612b2b6124d7565b5b612b3889828a016125f4565b945050606087013567ffffffffffffffff811115612b5957612b586124d7565b5b612b6589828a016125f4565b9350506080612b7689828a0161299b565b92505060a0612b8789828a0161299b565b9150509295509295509295565b612b9d816126c6565b82525050565b6000602082019050612bb86000830184612b94565b92915050565b600060208284031215612bd457612bd36124d2565b5b6000612be2848285016129c7565b91505092915050565b600082825260208201905092915050565b6000612c07826126df565b612c118185612beb565b9350612c218185602086016126fb565b612c2a816124e6565b840191505092915050565b612c3e81612799565b82525050565b600060a082019050612c596000830188612b94565b8181036020830152612c6b8187612bfc565b90508181036040830152612c7f8186612bfc565b9050612c8e6060830185612c35565b612c9b6080830184612b94565b9695505050505050565b600061018083016000830151612cbe60008601826126d0565b5060208301518482036020860152612cd68282612725565b91505060408301518482036040860152612cf08282612725565b91505060608301518482036060860152612d0a8282612725565b9150506080830151612d1f60808601826126d0565b5060a0830151612d3260a08601826126d0565b5060c0830151612d4560c086018261276a565b5060e0830151612d5860e08601826127ab565b50610100830151612d6d6101008601826126d0565b50610120830151612d826101208601826126d0565b50610140830151612d976101408601826126d0565b50610160830151612dac6101608601826126d0565b508091505092915050565b60006020820190508181036000830152612dd18184612ca5565b905092915050565b600081519050919050565b600082825260208201905092915050565b6000819050602082019050919050565b600081519050919050565b600082825260208201905092915050565b6000819050602082019050919050565b6000612e3d83836127ab565b60208301905092915050565b6000602082019050919050565b6000612e6182612e05565b612e6b8185612e10565b9350612e7683612e21565b8060005b83811015612ea7578151612e8e8882612e31565b9750612e9983612e49565b925050600181019050612e7a565b5085935050505092915050565b600060c083016000830151612ecc60008601826126d0565b5060208301518482036020860152612ee48282612725565b91505060408301518482036040860152612efe8282612725565b9150506060830151612f1360608601826127ab565b506080830151612f2660808601826126d0565b5060a083015184820360a0860152612f3e8282612e56565b9150508091505092915050565b6000612f578383612eb4565b905092915050565b6000602082019050919050565b6000612f7782612dd9565b612f818185612de4565b935083602082028501612f9385612df5565b8060005b85811015612fcf5784840389528151612fb08582612f4b565b9450612fbb83612f5f565b925060208a01995050600181019050612f97565b50829750879550505050505092915050565b60006020820190508181036000830152612ffb8184612f6c565b905092915050565b600080600080600060a0868803121561301f5761301e6124d2565b5b600086013567ffffffffffffffff81111561303d5761303c6124d7565b5b613049888289016125f4565b955050602086013567ffffffffffffffff81111561306a576130696124d7565b5b613076888289016125f4565b945050604086013567ffffffffffffffff811115613097576130966124d7565b5b6130a3888289016125f4565b93505060606130b48882890161299b565b92505060806130c58882890161299b565b9150509295509295909350565b7f4e487b7100000000000000000000000000000000000000000000000000000000600052601160045260246000fd5b600061310c826126c6565b91507fffffffffffffffffffffffffffffffffffffffffffffffffffffffffffffffff820361313e5761313d6130d2565b5b600182019050919050565b7f4e487b7100000000000000000000000000000000000000000000000000000000600052602260045260246000fd5b6000600282049050600182168061319057607f821691505b6020821081036131a3576131a2613149565b5b50919050565b60008190508160005260206000209050919050565b60006020601f8301049050919050565b600082821b905092915050565b60006008830261320b7fffffffffffffffffffffffffffffffffffffffffffffffffffffffffffffffff826131ce565b61321586836131ce565b95508019841693508086168417925050509392505050565b6000819050919050565b600061325261324d613248846126c6565b61322d565b6126c6565b9050919050565b6000819050919050565b61326c83613237565b61328061327882613259565b8484546131db565b825550505050565b600090565b613295613288565b6132a0818484613263565b505050565b5b818110156132c4576132b960008261328d565b6001810190506132a6565b5050565b601f821115613309576132da816131a9565b6132e3846131be565b810160208510156132f2578190505b6133066132fe856131be565b8301826132a5565b50505b505050565b600082821c905092915050565b600061332c6000198460080261330e565b1980831691505092915050565b6000613345838361331b565b9150826002028217905092915050565b61335e826126df565b67ffffffffffffffff811115613377576133766124f7565b5b6133818254613178565b61338c8282856132c8565b600060209050601f8311600181146133bf57600084156133ad578287015190505b6133b78582613339565b86555061341f565b601f1984166133cd866131a9565b60005b828110156133f5578489015182556001820191506020850194506020810190506133d0565b86831015613412578489015161340e601f89168261331b565b8355505b6001600288020188555050505b505050505050565b7f4e487b7100000000000000000000000000000000000000000000000000000000600052603260045260246000fd5b7f556e617574686f72697a656420416374696f6e00000000000000000000000000600082015250565b600061348c601383612beb565b915061349782613456565b602082019050919050565b600060208201905081810360008301526134bb8161347f565b9050919050565b7f506f6c6c20646f6573206e6f7420657869737400000000000000000000000000600082015250565b60006134f8601383612beb565b9150613503826134c2565b602082019050919050565b60006020820190508181036000830152613527816134eb565b9050919050565b7f4e6f7420612052656769737465726564204d656d626572000000000000000000600082015250565b6000613564601783612beb565b915061356f8261352e565b602082019050919050565b6000602082019050818103600083015261359381613557565b9050919050565b7f416c726561647920566f74656400000000000000000000000000000000000000600082015250565b60006135d0600d83612beb565b91506135db8261359a565b602082019050919050565b600060208201905081810360008301526135ff816135c3565b9050919050565b7f506f6c6c20686173206265656e2064656c657465640000000000000000000000600082015250565b600061363c601583612beb565b915061364782613606565b602082019050919050565b6000602082019050818103600083015261366b8161362f565b9050919050565b7f506f6c6c206e6f7420696e2073657373696f6e00000000000000000000000000600082015250565b60006136a8601383612beb565b91506136b382613672565b602082019050919050565b600060208201905081810360008301526136d78161369b565b9050919050565b7f506f6c6c206e6f206c6f6e676572206578697374730000000000000000000000600082015250565b6000613714601583612beb565b915061371f826136de565b602082019050919050565b6000602082019050818103600083015261374381613707565b9050919050565b7f496d6167652063616e6e6f7420626520656d7074790000000000000000000000600082015250565b6000613780601583612beb565b915061378b8261374a565b602082019050919050565b600060208201905081810360008301526137af81613773565b9050919050565b7f5469746c652063616e6e6f7420626520656d7074790000000000000000000000600082015250565b60006137ec601583612beb565b91506137f7826137b6565b602082019050919050565b6000602082019050818103600083015261381b816137df565b9050919050565b7f4465736372697074696f6e2063616e6e6f7420626520656d7074790000000000600082015250565b6000613858601b83612beb565b915061386382613822565b602082019050919050565b600060208201905081810360008301526138878161384b565b9050919050565b7f496e76616c696420456e642054696d6520476976656e00000000000000000000600082015250565b60006138c4601683612beb565b91506138cf8261388e565b602082019050919050565b600060208201905081810360008301526138f3816138b7565b9050919050565b7f416c726561647920436f6e746573746564000000000000000000000000000000600082015250565b6000613930601183612beb565b915061393b826138fa565b602082019050919050565b6000602082019050818103600083015261395f81613923565b905091905056fea26469706673582212201eace1cf0bd1f48e582ae32c4feb5f2d5d0dcc7d951300d94243b3c33d084ddf64736f6c63430008110033",
  "linkReferences": {},
  "deployedLinkReferences": {}
}